{
  "_format": "hh-sol-artifact-1",
  "contractName": "SVGNFT",
  "sourceName": "contracts/SVGNFT.sol",
  "abi": [
    {
      "inputs": [],
      "stateMutability": "nonpayable",
      "type": "constructor"
    },
    {
      "anonymous": false,
      "inputs": [
        {
          "indexed": true,
          "internalType": "address",
          "name": "owner",
          "type": "address"
        },
        {
          "indexed": true,
          "internalType": "address",
          "name": "approved",
          "type": "address"
        },
        {
          "indexed": true,
          "internalType": "uint256",
          "name": "tokenId",
          "type": "uint256"
        }
      ],
      "name": "Approval",
      "type": "event"
    },
    {
      "anonymous": false,
      "inputs": [
        {
          "indexed": true,
          "internalType": "address",
          "name": "owner",
          "type": "address"
        },
        {
          "indexed": true,
          "internalType": "address",
          "name": "operator",
          "type": "address"
        },
        {
          "indexed": false,
          "internalType": "bool",
          "name": "approved",
          "type": "bool"
        }
      ],
      "name": "ApprovalForAll",
      "type": "event"
    },
    {
      "anonymous": false,
      "inputs": [
        {
          "indexed": true,
          "internalType": "uint256",
          "name": "tokenId",
          "type": "uint256"
        },
        {
          "indexed": false,
          "internalType": "string",
          "name": "tokenUri",
          "type": "string"
        }
      ],
      "name": "CreatedSVGNFT",
      "type": "event"
    },
    {
      "anonymous": false,
      "inputs": [
        {
          "indexed": true,
          "internalType": "address",
          "name": "from",
          "type": "address"
        },
        {
          "indexed": true,
          "internalType": "address",
          "name": "to",
          "type": "address"
        },
        {
          "indexed": true,
          "internalType": "uint256",
          "name": "tokenId",
          "type": "uint256"
        }
      ],
      "name": "Transfer",
      "type": "event"
    },
    {
      "inputs": [
        {
          "internalType": "address",
          "name": "to",
          "type": "address"
        },
        {
          "internalType": "uint256",
          "name": "tokenId",
          "type": "uint256"
        }
      ],
      "name": "approve",
      "outputs": [],
      "stateMutability": "nonpayable",
      "type": "function"
    },
    {
      "inputs": [
        {
          "internalType": "address",
          "name": "owner",
          "type": "address"
        }
      ],
      "name": "balanceOf",
      "outputs": [
        {
          "internalType": "uint256",
          "name": "",
          "type": "uint256"
        }
      ],
      "stateMutability": "view",
      "type": "function"
    },
    {
      "inputs": [
        {
          "internalType": "string",
          "name": "_svg",
          "type": "string"
        }
      ],
      "name": "create",
      "outputs": [],
      "stateMutability": "nonpayable",
      "type": "function"
    },
    {
      "inputs": [
        {
          "internalType": "string",
          "name": "_imageUri",
          "type": "string"
        }
      ],
      "name": "formatTokenURI",
      "outputs": [
        {
          "internalType": "string",
          "name": "",
          "type": "string"
        }
      ],
      "stateMutability": "pure",
      "type": "function"
    },
    {
      "inputs": [
        {
          "internalType": "uint256",
          "name": "tokenId",
          "type": "uint256"
        }
      ],
      "name": "getApproved",
      "outputs": [
        {
          "internalType": "address",
          "name": "",
          "type": "address"
        }
      ],
      "stateMutability": "view",
      "type": "function"
    },
    {
      "inputs": [
        {
          "internalType": "address",
          "name": "owner",
          "type": "address"
        },
        {
          "internalType": "address",
          "name": "operator",
          "type": "address"
        }
      ],
      "name": "isApprovedForAll",
      "outputs": [
        {
          "internalType": "bool",
          "name": "",
          "type": "bool"
        }
      ],
      "stateMutability": "view",
      "type": "function"
    },
    {
      "inputs": [],
      "name": "name",
      "outputs": [
        {
          "internalType": "string",
          "name": "",
          "type": "string"
        }
      ],
      "stateMutability": "view",
      "type": "function"
    },
    {
      "inputs": [
        {
          "internalType": "uint256",
          "name": "tokenId",
          "type": "uint256"
        }
      ],
      "name": "ownerOf",
      "outputs": [
        {
          "internalType": "address",
          "name": "",
          "type": "address"
        }
      ],
      "stateMutability": "view",
      "type": "function"
    },
    {
      "inputs": [
        {
          "internalType": "address",
          "name": "from",
          "type": "address"
        },
        {
          "internalType": "address",
          "name": "to",
          "type": "address"
        },
        {
          "internalType": "uint256",
          "name": "tokenId",
          "type": "uint256"
        }
      ],
      "name": "safeTransferFrom",
      "outputs": [],
      "stateMutability": "nonpayable",
      "type": "function"
    },
    {
      "inputs": [
        {
          "internalType": "address",
          "name": "from",
          "type": "address"
        },
        {
          "internalType": "address",
          "name": "to",
          "type": "address"
        },
        {
          "internalType": "uint256",
          "name": "tokenId",
          "type": "uint256"
        },
        {
          "internalType": "bytes",
          "name": "_data",
          "type": "bytes"
        }
      ],
      "name": "safeTransferFrom",
      "outputs": [],
      "stateMutability": "nonpayable",
      "type": "function"
    },
    {
      "inputs": [
        {
          "internalType": "address",
          "name": "operator",
          "type": "address"
        },
        {
          "internalType": "bool",
          "name": "approved",
          "type": "bool"
        }
      ],
      "name": "setApprovalForAll",
      "outputs": [],
      "stateMutability": "nonpayable",
      "type": "function"
    },
    {
      "inputs": [
        {
          "internalType": "bytes4",
          "name": "interfaceId",
          "type": "bytes4"
        }
      ],
      "name": "supportsInterface",
      "outputs": [
        {
          "internalType": "bool",
          "name": "",
          "type": "bool"
        }
      ],
      "stateMutability": "view",
      "type": "function"
    },
    {
      "inputs": [
        {
          "internalType": "string",
          "name": "_svg",
          "type": "string"
        }
      ],
      "name": "svgToImageURI",
      "outputs": [
        {
          "internalType": "string",
          "name": "",
          "type": "string"
        }
      ],
      "stateMutability": "pure",
      "type": "function"
    },
    {
      "inputs": [],
      "name": "symbol",
      "outputs": [
        {
          "internalType": "string",
          "name": "",
          "type": "string"
        }
      ],
      "stateMutability": "view",
      "type": "function"
    },
    {
      "inputs": [
        {
          "internalType": "uint256",
          "name": "tokenId",
          "type": "uint256"
        }
      ],
      "name": "tokenURI",
      "outputs": [
        {
          "internalType": "string",
          "name": "",
          "type": "string"
        }
      ],
      "stateMutability": "view",
      "type": "function"
    },
    {
      "inputs": [
        {
          "internalType": "address",
          "name": "from",
          "type": "address"
        },
        {
          "internalType": "address",
          "name": "to",
          "type": "address"
        },
        {
          "internalType": "uint256",
          "name": "tokenId",
          "type": "uint256"
        }
      ],
      "name": "transferFrom",
      "outputs": [],
      "stateMutability": "nonpayable",
      "type": "function"
    }
  ],
  "bytecode": "0x60806040523480156200001157600080fd5b506040518060400160405280600781526020017f535647204e4654000000000000000000000000000000000000000000000000008152506040518060400160405280600681526020017f7376674e46540000000000000000000000000000000000000000000000000000815250816000908051906020019062000096929190620000c0565b508060019080519060200190620000af929190620000c0565b5050506000600781905550620001d5565b828054620000ce906200019f565b90600052602060002090601f016020900481019282620000f257600085556200013e565b82601f106200010d57805160ff19168380011785556200013e565b828001600101855582156200013e579182015b828111156200013d57825182559160200191906001019062000120565b5b5090506200014d919062000151565b5090565b5b808211156200016c57600081600090555060010162000152565b5090565b7f4e487b7100000000000000000000000000000000000000000000000000000000600052602260045260246000fd5b60006002820490506001821680620001b857607f821691505b60208210811415620001cf57620001ce62000170565b5b50919050565b6131c680620001e56000396000f3fe608060405234801561001057600080fd5b50600436106101005760003560e01c806370a0823111610097578063b6a46b3b11610066578063b6a46b3b146102d1578063b88d4fde146102ed578063c87b56dd14610309578063e985e9c51461033957610100565b806370a082311461023757806371aee1931461026757806395d89b4114610297578063a22cb465146102b557610100565b806323b872dd116100d357806323b872dd1461019f57806330d871c6146101bb57806342842e0e146101eb5780636352211e1461020757610100565b806301ffc9a71461010557806306fdde0314610135578063081812fc14610153578063095ea7b314610183575b600080fd5b61011f600480360381019061011a9190611c9a565b610369565b60405161012c9190611ce2565b60405180910390f35b61013d61044b565b60405161014a9190611d96565b60405180910390f35b61016d60048036038101906101689190611dee565b6104dd565b60405161017a9190611e5c565b60405180910390f35b61019d60048036038101906101989190611ea3565b610562565b005b6101b960048036038101906101b49190611ee3565b61067a565b005b6101d560048036038101906101d0919061206b565b6106da565b6040516101e29190611d96565b60405180910390f35b61020560048036038101906102009190611ee3565b610773565b005b610221600480360381019061021c9190611dee565b610793565b60405161022e9190611e5c565b60405180910390f35b610251600480360381019061024c91906120b4565b610845565b60405161025e91906120f0565b60405180910390f35b610281600480360381019061027c919061206b565b6108fd565b60405161028e9190611d96565b60405180910390f35b61029f61098a565b6040516102ac9190611d96565b60405180910390f35b6102cf60048036038101906102ca9190612137565b610a1c565b005b6102eb60048036038101906102e6919061206b565b610b9d565b005b61030760048036038101906103029190612218565b610c23565b005b610323600480360381019061031e9190611dee565b610c85565b6040516103309190611d96565b60405180910390f35b610353600480360381019061034e919061229b565b610dd7565b6040516103609190611ce2565b60405180910390f35b60007f80ac58cd000000000000000000000000000000000000000000000000000000007bffffffffffffffffffffffffffffffffffffffffffffffffffffffff1916827bffffffffffffffffffffffffffffffffffffffffffffffffffffffff1916148061043457507f5b5e139f000000000000000000000000000000000000000000000000000000007bffffffffffffffffffffffffffffffffffffffffffffffffffffffff1916827bffffffffffffffffffffffffffffffffffffffffffffffffffffffff1916145b80610444575061044382610e6b565b5b9050919050565b60606000805461045a9061230a565b80601f01602080910402602001604051908101604052809291908181526020018280546104869061230a565b80156104d35780601f106104a8576101008083540402835291602001916104d3565b820191906000526020600020905b8154815290600101906020018083116104b657829003601f168201915b5050505050905090565b60006104e882610ed5565b610527576040517f08c379a000000000000000000000000000000000000000000000000000000000815260040161051e906123ae565b60405180910390fd5b6004600083815260200190815260200160002060009054906101000a900473ffffffffffffffffffffffffffffffffffffffff169050919050565b600061056d82610793565b90508073ffffffffffffffffffffffffffffffffffffffff168373ffffffffffffffffffffffffffffffffffffffff1614156105de576040517f08c379a00000000000000000000000000000000000000000000000000000000081526004016105d590612440565b60405180910390fd5b8073ffffffffffffffffffffffffffffffffffffffff166105fd610f41565b73ffffffffffffffffffffffffffffffffffffffff16148061062c575061062b81610626610f41565b610dd7565b5b61066b576040517f08c379a0000000000000000000000000000000000000000000000000000000008152600401610662906124d2565b60405180910390fd5b6106758383610f49565b505050565b61068b610685610f41565b82611002565b6106ca576040517f08c379a00000000000000000000000000000000000000000000000000000000081526004016106c190612564565b60405180910390fd5b6106d58383836110e0565b505050565b606060006040518060400160405280601a81526020017f646174613a696d6167652f7376672b786d6c3b6261736536342c000000000000815250905060006107408460405160200161072c91906125c0565b60405160208183030381529060405261133c565b9050600082826040516020016107579291906125d7565b6040516020818303038152906040529050809350505050919050565b61078e83838360405180602001604052806000815250610c23565b505050565b6000806002600084815260200190815260200160002060009054906101000a900473ffffffffffffffffffffffffffffffffffffffff169050600073ffffffffffffffffffffffffffffffffffffffff168173ffffffffffffffffffffffffffffffffffffffff16141561083c576040517f08c379a00000000000000000000000000000000000000000000000000000000081526004016108339061266d565b60405180910390fd5b80915050919050565b60008073ffffffffffffffffffffffffffffffffffffffff168273ffffffffffffffffffffffffffffffffffffffff1614156108b6576040517f08c379a00000000000000000000000000000000000000000000000000000000081526004016108ad906126ff565b60405180910390fd5b600360008373ffffffffffffffffffffffffffffffffffffffff1673ffffffffffffffffffffffffffffffffffffffff168152602001908152602001600020549050919050565b606060006040518060400160405280601d81526020017f646174613a6170706c69636174696f6e2f6a736f6e3b6261736536342c0000008152509050806109628460405160200161094e91906128c1565b60405160208183030381529060405261133c565b6040516020016109739291906125d7565b604051602081830303815290604052915050919050565b6060600180546109999061230a565b80601f01602080910402602001604051908101604052809291908181526020018280546109c59061230a565b8015610a125780601f106109e757610100808354040283529160200191610a12565b820191906000526020600020905b8154815290600101906020018083116109f557829003601f168201915b5050505050905090565b610a24610f41565b73ffffffffffffffffffffffffffffffffffffffff168273ffffffffffffffffffffffffffffffffffffffff161415610a92576040517f08c379a0000000000000000000000000000000000000000000000000000000008152600401610a899061295b565b60405180910390fd5b8060056000610a9f610f41565b73ffffffffffffffffffffffffffffffffffffffff1673ffffffffffffffffffffffffffffffffffffffff16815260200190815260200160002060008473ffffffffffffffffffffffffffffffffffffffff1673ffffffffffffffffffffffffffffffffffffffff16815260200190815260200160002060006101000a81548160ff0219169083151502179055508173ffffffffffffffffffffffffffffffffffffffff16610b4c610f41565b73ffffffffffffffffffffffffffffffffffffffff167f17307eab39ab6107e8899845ad3d59bd9653f200f220920489ca2b5937696c3183604051610b919190611ce2565b60405180910390a35050565b610ba9336007546114b5565b6000610bb4826106da565b90506000610bc1826108fd565b9050610bcf600754826114d3565b6007547ff5acc616aa8ecd00e5d76674d7812f9c3c3571d662c9fba4499deefa6d0be12d82604051610c019190611d96565b60405180910390a26001600754610c1891906129aa565b600781905550505050565b610c34610c2e610f41565b83611002565b610c73576040517f08c379a0000000000000000000000000000000000000000000000000000000008152600401610c6a90612564565b60405180910390fd5b610c7f84848484611547565b50505050565b6060610c9082610ed5565b610ccf576040517f08c379a0000000000000000000000000000000000000000000000000000000008152600401610cc690612a72565b60405180910390fd5b6000600660008481526020019081526020016000208054610cef9061230a565b80601f0160208091040260200160405190810160405280929190818152602001828054610d1b9061230a565b8015610d685780601f10610d3d57610100808354040283529160200191610d68565b820191906000526020600020905b815481529060010190602001808311610d4b57829003601f168201915b505050505090506000610d796115a3565b9050600081511415610d8f578192505050610dd2565b600082511115610dc4578082604051602001610dac9291906125d7565b60405160208183030381529060405292505050610dd2565b610dcd846115ba565b925050505b919050565b6000600560008473ffffffffffffffffffffffffffffffffffffffff1673ffffffffffffffffffffffffffffffffffffffff16815260200190815260200160002060008373ffffffffffffffffffffffffffffffffffffffff1673ffffffffffffffffffffffffffffffffffffffff16815260200190815260200160002060009054906101000a900460ff16905092915050565b60007f01ffc9a7000000000000000000000000000000000000000000000000000000007bffffffffffffffffffffffffffffffffffffffffffffffffffffffff1916827bffffffffffffffffffffffffffffffffffffffffffffffffffffffff1916149050919050565b60008073ffffffffffffffffffffffffffffffffffffffff166002600084815260200190815260200160002060009054906101000a900473ffffffffffffffffffffffffffffffffffffffff1673ffffffffffffffffffffffffffffffffffffffff1614159050919050565b600033905090565b816004600083815260200190815260200160002060006101000a81548173ffffffffffffffffffffffffffffffffffffffff021916908373ffffffffffffffffffffffffffffffffffffffff160217905550808273ffffffffffffffffffffffffffffffffffffffff16610fbc83610793565b73ffffffffffffffffffffffffffffffffffffffff167f8c5be1e5ebec7d5bd14f71427d1e84f3dd0314c0f7b2291e5b200ac8c7c3b92560405160405180910390a45050565b600061100d82610ed5565b61104c576040517f08c379a000000000000000000000000000000000000000000000000000000000815260040161104390612b04565b60405180910390fd5b600061105783610793565b90508073ffffffffffffffffffffffffffffffffffffffff168473ffffffffffffffffffffffffffffffffffffffff1614806110c657508373ffffffffffffffffffffffffffffffffffffffff166110ae846104dd565b73ffffffffffffffffffffffffffffffffffffffff16145b806110d757506110d68185610dd7565b5b91505092915050565b8273ffffffffffffffffffffffffffffffffffffffff1661110082610793565b73ffffffffffffffffffffffffffffffffffffffff1614611156576040517f08c379a000000000000000000000000000000000000000000000000000000000815260040161114d90612b96565b60405180910390fd5b600073ffffffffffffffffffffffffffffffffffffffff168273ffffffffffffffffffffffffffffffffffffffff1614156111c6576040517f08c379a00000000000000000000000000000000000000000000000000000000081526004016111bd90612c28565b60405180910390fd5b6111d1838383611661565b6111dc600082610f49565b6001600360008573ffffffffffffffffffffffffffffffffffffffff1673ffffffffffffffffffffffffffffffffffffffff168152602001908152602001600020600082825461122c9190612c48565b925050819055506001600360008473ffffffffffffffffffffffffffffffffffffffff1673ffffffffffffffffffffffffffffffffffffffff168152602001908152602001600020600082825461128391906129aa565b92505081905550816002600083815260200190815260200160002060006101000a81548173ffffffffffffffffffffffffffffffffffffffff021916908373ffffffffffffffffffffffffffffffffffffffff160217905550808273ffffffffffffffffffffffffffffffffffffffff168473ffffffffffffffffffffffffffffffffffffffff167fddf252ad1be2c89b69c2b068fc378daa952ba7f163c4a11628f55a4df523b3ef60405160405180910390a4505050565b606060008251141561135f576040518060200160405280600081525090506114b0565b6000604051806060016040528060408152602001613151604091399050600060036002855161138e91906129aa565b6113989190612cab565b60046113a49190612cdc565b905060006020826113b591906129aa565b67ffffffffffffffff8111156113ce576113cd611f40565b5b6040519080825280601f01601f1916602001820160405280156114005781602001600182028036833780820191505090505b509050818152600183018586518101602084015b8183101561146f576003830192508251603f8160121c168501518253600182019150603f81600c1c168501518253600182019150603f8160061c168501518253600182019150603f8116850151825360018201915050611414565b6003895106600181146114895760028114611499576114a4565b613d3d60f01b60028303526114a4565b603d60f81b60018303525b50505050508093505050505b919050565b6114cf828260405180602001604052806000815250611666565b5050565b6114dc82610ed5565b61151b576040517f08c379a000000000000000000000000000000000000000000000000000000000815260040161151290612da8565b60405180910390fd5b80600660008481526020019081526020016000209080519060200190611542929190611b8b565b505050565b6115528484846110e0565b61155e848484846116c1565b61159d576040517f08c379a000000000000000000000000000000000000000000000000000000000815260040161159490612e3a565b60405180910390fd5b50505050565b606060405180602001604052806000815250905090565b60606115c582610ed5565b611604576040517f08c379a00000000000000000000000000000000000000000000000000000000081526004016115fb90612ecc565b60405180910390fd5b600061160e6115a3565b9050600081511161162e5760405180602001604052806000815250611659565b8061163884611849565b6040516020016116499291906125d7565b6040516020818303038152906040525b915050919050565b505050565b61167083836119aa565b61167d60008484846116c1565b6116bc576040517f08c379a00000000000000000000000000000000000000000000000000000000081526004016116b390612e3a565b60405180910390fd5b505050565b60006116e28473ffffffffffffffffffffffffffffffffffffffff16611b78565b1561183c578373ffffffffffffffffffffffffffffffffffffffff1663150b7a0261170b610f41565b8786866040518563ffffffff1660e01b815260040161172d9493929190612f41565b6020604051808303816000875af192505050801561176957506040513d601f19601f820116820180604052508101906117669190612fa2565b60015b6117ec573d8060008114611799576040519150601f19603f3d011682016040523d82523d6000602084013e61179e565b606091505b506000815114156117e4576040517f08c379a00000000000000000000000000000000000000000000000000000000081526004016117db90612e3a565b60405180910390fd5b805181602001fd5b63150b7a0260e01b7bffffffffffffffffffffffffffffffffffffffffffffffffffffffff1916817bffffffffffffffffffffffffffffffffffffffffffffffffffffffff191614915050611841565b600190505b949350505050565b60606000821415611891576040518060400160405280600181526020017f300000000000000000000000000000000000000000000000000000000000000081525090506119a5565b600082905060005b600082146118c35780806118ac90612fcf565b915050600a826118bc9190612cab565b9150611899565b60008167ffffffffffffffff8111156118df576118de611f40565b5b6040519080825280601f01601f1916602001820160405280156119115781602001600182028036833780820191505090505b5090505b6000851461199e5760018261192a9190612c48565b9150600a856119399190613018565b603061194591906129aa565b60f81b81838151811061195b5761195a613049565b5b60200101907effffffffffffffffffffffffffffffffffffffffffffffffffffffffffffff1916908160001a905350600a856119979190612cab565b9450611915565b8093505050505b919050565b600073ffffffffffffffffffffffffffffffffffffffff168273ffffffffffffffffffffffffffffffffffffffff161415611a1a576040517f08c379a0000000000000000000000000000000000000000000000000000000008152600401611a11906130c4565b60405180910390fd5b611a2381610ed5565b15611a63576040517f08c379a0000000000000000000000000000000000000000000000000000000008152600401611a5a90613130565b60405180910390fd5b611a6f60008383611661565b6001600360008473ffffffffffffffffffffffffffffffffffffffff1673ffffffffffffffffffffffffffffffffffffffff1681526020019081526020016000206000828254611abf91906129aa565b92505081905550816002600083815260200190815260200160002060006101000a81548173ffffffffffffffffffffffffffffffffffffffff021916908373ffffffffffffffffffffffffffffffffffffffff160217905550808273ffffffffffffffffffffffffffffffffffffffff16600073ffffffffffffffffffffffffffffffffffffffff167fddf252ad1be2c89b69c2b068fc378daa952ba7f163c4a11628f55a4df523b3ef60405160405180910390a45050565b600080823b905060008111915050919050565b828054611b979061230a565b90600052602060002090601f016020900481019282611bb95760008555611c00565b82601f10611bd257805160ff1916838001178555611c00565b82800160010185558215611c00579182015b82811115611bff578251825591602001919060010190611be4565b5b509050611c0d9190611c11565b5090565b5b80821115611c2a576000816000905550600101611c12565b5090565b6000604051905090565b600080fd5b600080fd5b60007fffffffff0000000000000000000000000000000000000000000000000000000082169050919050565b611c7781611c42565b8114611c8257600080fd5b50565b600081359050611c9481611c6e565b92915050565b600060208284031215611cb057611caf611c38565b5b6000611cbe84828501611c85565b91505092915050565b60008115159050919050565b611cdc81611cc7565b82525050565b6000602082019050611cf76000830184611cd3565b92915050565b600081519050919050565b600082825260208201905092915050565b60005b83811015611d37578082015181840152602081019050611d1c565b83811115611d46576000848401525b50505050565b6000601f19601f8301169050919050565b6000611d6882611cfd565b611d728185611d08565b9350611d82818560208601611d19565b611d8b81611d4c565b840191505092915050565b60006020820190508181036000830152611db08184611d5d565b905092915050565b6000819050919050565b611dcb81611db8565b8114611dd657600080fd5b50565b600081359050611de881611dc2565b92915050565b600060208284031215611e0457611e03611c38565b5b6000611e1284828501611dd9565b91505092915050565b600073ffffffffffffffffffffffffffffffffffffffff82169050919050565b6000611e4682611e1b565b9050919050565b611e5681611e3b565b82525050565b6000602082019050611e716000830184611e4d565b92915050565b611e8081611e3b565b8114611e8b57600080fd5b50565b600081359050611e9d81611e77565b92915050565b60008060408385031215611eba57611eb9611c38565b5b6000611ec885828601611e8e565b9250506020611ed985828601611dd9565b9150509250929050565b600080600060608486031215611efc57611efb611c38565b5b6000611f0a86828701611e8e565b9350506020611f1b86828701611e8e565b9250506040611f2c86828701611dd9565b9150509250925092565b600080fd5b600080fd5b7f4e487b7100000000000000000000000000000000000000000000000000000000600052604160045260246000fd5b611f7882611d4c565b810181811067ffffffffffffffff82111715611f9757611f96611f40565b5b80604052505050565b6000611faa611c2e565b9050611fb68282611f6f565b919050565b600067ffffffffffffffff821115611fd657611fd5611f40565b5b611fdf82611d4c565b9050602081019050919050565b82818337600083830152505050565b600061200e61200984611fbb565b611fa0565b90508281526020810184848401111561202a57612029611f3b565b5b612035848285611fec565b509392505050565b600082601f83011261205257612051611f36565b5b8135612062848260208601611ffb565b91505092915050565b60006020828403121561208157612080611c38565b5b600082013567ffffffffffffffff81111561209f5761209e611c3d565b5b6120ab8482850161203d565b91505092915050565b6000602082840312156120ca576120c9611c38565b5b60006120d884828501611e8e565b91505092915050565b6120ea81611db8565b82525050565b600060208201905061210560008301846120e1565b92915050565b61211481611cc7565b811461211f57600080fd5b50565b6000813590506121318161210b565b92915050565b6000806040838503121561214e5761214d611c38565b5b600061215c85828601611e8e565b925050602061216d85828601612122565b9150509250929050565b600067ffffffffffffffff82111561219257612191611f40565b5b61219b82611d4c565b9050602081019050919050565b60006121bb6121b684612177565b611fa0565b9050828152602081018484840111156121d7576121d6611f3b565b5b6121e2848285611fec565b509392505050565b600082601f8301126121ff576121fe611f36565b5b813561220f8482602086016121a8565b91505092915050565b6000806000806080858703121561223257612231611c38565b5b600061224087828801611e8e565b945050602061225187828801611e8e565b935050604061226287828801611dd9565b925050606085013567ffffffffffffffff81111561228357612282611c3d565b5b61228f878288016121ea565b91505092959194509250565b600080604083850312156122b2576122b1611c38565b5b60006122c085828601611e8e565b92505060206122d185828601611e8e565b9150509250929050565b7f4e487b7100000000000000000000000000000000000000000000000000000000600052602260045260246000fd5b6000600282049050600182168061232257607f821691505b60208210811415612336576123356122db565b5b50919050565b7f4552433732313a20617070726f76656420717565727920666f72206e6f6e657860008201527f697374656e7420746f6b656e0000000000000000000000000000000000000000602082015250565b6000612398602c83611d08565b91506123a38261233c565b604082019050919050565b600060208201905081810360008301526123c78161238b565b9050919050565b7f4552433732313a20617070726f76616c20746f2063757272656e74206f776e6560008201527f7200000000000000000000000000000000000000000000000000000000000000602082015250565b600061242a602183611d08565b9150612435826123ce565b604082019050919050565b600060208201905081810360008301526124598161241d565b9050919050565b7f4552433732313a20617070726f76652063616c6c6572206973206e6f74206f7760008201527f6e6572206e6f7220617070726f76656420666f7220616c6c0000000000000000602082015250565b60006124bc603883611d08565b91506124c782612460565b604082019050919050565b600060208201905081810360008301526124eb816124af565b9050919050565b7f4552433732313a207472616e736665722063616c6c6572206973206e6f74206f60008201527f776e6572206e6f7220617070726f766564000000000000000000000000000000602082015250565b600061254e603183611d08565b9150612559826124f2565b604082019050919050565b6000602082019050818103600083015261257d81612541565b9050919050565b600081905092915050565b600061259a82611cfd565b6125a48185612584565b93506125b4818560208601611d19565b80840191505092915050565b60006125cc828461258f565b915081905092915050565b60006125e3828561258f565b91506125ef828461258f565b91508190509392505050565b7f4552433732313a206f776e657220717565727920666f72206e6f6e657869737460008201527f656e7420746f6b656e0000000000000000000000000000000000000000000000602082015250565b6000612657602983611d08565b9150612662826125fb565b604082019050919050565b600060208201905081810360008301526126868161264a565b9050919050565b7f4552433732313a2062616c616e636520717565727920666f7220746865207a6560008201527f726f206164647265737300000000000000000000000000000000000000000000602082015250565b60006126e9602a83611d08565b91506126f48261268d565b604082019050919050565b60006020820190508181036000830152612718816126dc565b9050919050565b7f7b226e616d65223a2022535647204e4654222c20000000000000000000000000600082015250565b6000612755601483612584565b91506127608261271f565b601482019050919050565b7f226465736372697074696f6e223a2022416e204e4654206261736564206f6e2060008201527f53564721222c2000000000000000000000000000000000000000000000000000602082015250565b60006127c7602783612584565b91506127d28261276b565b602782019050919050565b7f2261747472696275746573223a2022222c200000000000000000000000000000600082015250565b6000612813601283612584565b915061281e826127dd565b601282019050919050565b7f22696d616765223a202200000000000000000000000000000000000000000000600082015250565b600061285f600a83612584565b915061286a82612829565b600a82019050919050565b7f227d000000000000000000000000000000000000000000000000000000000000600082015250565b60006128ab600283612584565b91506128b682612875565b600282019050919050565b60006128cc82612748565b91506128d7826127ba565b91506128e282612806565b91506128ed82612852565b91506128f9828461258f565b91506129048261289e565b915081905092915050565b7f4552433732313a20617070726f766520746f2063616c6c657200000000000000600082015250565b6000612945601983611d08565b91506129508261290f565b602082019050919050565b6000602082019050818103600083015261297481612938565b9050919050565b7f4e487b7100000000000000000000000000000000000000000000000000000000600052601160045260246000fd5b60006129b582611db8565b91506129c083611db8565b9250827fffffffffffffffffffffffffffffffffffffffffffffffffffffffffffffffff038211156129f5576129f461297b565b5b828201905092915050565b7f45524337323155524953746f726167653a2055524920717565727920666f722060008201527f6e6f6e6578697374656e7420746f6b656e000000000000000000000000000000602082015250565b6000612a5c603183611d08565b9150612a6782612a00565b604082019050919050565b60006020820190508181036000830152612a8b81612a4f565b9050919050565b7f4552433732313a206f70657261746f7220717565727920666f72206e6f6e657860008201527f697374656e7420746f6b656e0000000000000000000000000000000000000000602082015250565b6000612aee602c83611d08565b9150612af982612a92565b604082019050919050565b60006020820190508181036000830152612b1d81612ae1565b9050919050565b7f4552433732313a207472616e73666572206f6620746f6b656e2074686174206960008201527f73206e6f74206f776e0000000000000000000000000000000000000000000000602082015250565b6000612b80602983611d08565b9150612b8b82612b24565b604082019050919050565b60006020820190508181036000830152612baf81612b73565b9050919050565b7f4552433732313a207472616e7366657220746f20746865207a65726f2061646460008201527f7265737300000000000000000000000000000000000000000000000000000000602082015250565b6000612c12602483611d08565b9150612c1d82612bb6565b604082019050919050565b60006020820190508181036000830152612c4181612c05565b9050919050565b6000612c5382611db8565b9150612c5e83611db8565b925082821015612c7157612c7061297b565b5b828203905092915050565b7f4e487b7100000000000000000000000000000000000000000000000000000000600052601260045260246000fd5b6000612cb682611db8565b9150612cc183611db8565b925082612cd157612cd0612c7c565b5b828204905092915050565b6000612ce782611db8565b9150612cf283611db8565b9250817fffffffffffffffffffffffffffffffffffffffffffffffffffffffffffffffff0483118215151615612d2b57612d2a61297b565b5b828202905092915050565b7f45524337323155524953746f726167653a2055524920736574206f66206e6f6e60008201527f6578697374656e7420746f6b656e000000000000000000000000000000000000602082015250565b6000612d92602e83611d08565b9150612d9d82612d36565b604082019050919050565b60006020820190508181036000830152612dc181612d85565b9050919050565b7f4552433732313a207472616e7366657220746f206e6f6e20455243373231526560008201527f63656976657220696d706c656d656e7465720000000000000000000000000000602082015250565b6000612e24603283611d08565b9150612e2f82612dc8565b604082019050919050565b60006020820190508181036000830152612e5381612e17565b9050919050565b7f4552433732314d657461646174613a2055524920717565727920666f72206e6f60008201527f6e6578697374656e7420746f6b656e0000000000000000000000000000000000602082015250565b6000612eb6602f83611d08565b9150612ec182612e5a565b604082019050919050565b60006020820190508181036000830152612ee581612ea9565b9050919050565b600081519050919050565b600082825260208201905092915050565b6000612f1382612eec565b612f1d8185612ef7565b9350612f2d818560208601611d19565b612f3681611d4c565b840191505092915050565b6000608082019050612f566000830187611e4d565b612f636020830186611e4d565b612f7060408301856120e1565b8181036060830152612f828184612f08565b905095945050505050565b600081519050612f9c81611c6e565b92915050565b600060208284031215612fb857612fb7611c38565b5b6000612fc684828501612f8d565b91505092915050565b6000612fda82611db8565b91507fffffffffffffffffffffffffffffffffffffffffffffffffffffffffffffffff82141561300d5761300c61297b565b5b600182019050919050565b600061302382611db8565b915061302e83611db8565b92508261303e5761303d612c7c565b5b828206905092915050565b7f4e487b7100000000000000000000000000000000000000000000000000000000600052603260045260246000fd5b7f4552433732313a206d696e7420746f20746865207a65726f2061646472657373600082015250565b60006130ae602083611d08565b91506130b982613078565b602082019050919050565b600060208201905081810360008301526130dd816130a1565b9050919050565b7f4552433732313a20746f6b656e20616c7265616479206d696e74656400000000600082015250565b600061311a601c83611d08565b9150613125826130e4565b602082019050919050565b600060208201905081810360008301526131498161310d565b905091905056fe4142434445464748494a4b4c4d4e4f505152535455565758595a6162636465666768696a6b6c6d6e6f707172737475767778797a303132333435363738392b2fa264697066735822122006b745f8f2efa2cf26b0381948444f2738352313c64e083f392d2edd4635e99364736f6c634300080a0033",
  "linkReferences": {},
  "deployedLinkReferences": {}
}