{
  "_format": "hh-sol-artifact-1",
  "contractName": "Test",
  "sourceName": "contracts/Echidna_Test.sol",
  "abi": [
    {
      "inputs": [],
      "stateMutability": "nonpayable",
      "type": "constructor"
    },
    {
      "anonymous": false,
      "inputs": [
        {
          "indexed": true,
          "internalType": "bytes32",
          "name": "id",
          "type": "bytes32"
        }
      ],
      "name": "ChainlinkCancelled",
      "type": "event"
    },
    {
      "anonymous": false,
      "inputs": [
        {
          "indexed": true,
          "internalType": "bytes32",
          "name": "id",
          "type": "bytes32"
        }
      ],
      "name": "ChainlinkFulfilled",
      "type": "event"
    },
    {
      "anonymous": false,
      "inputs": [
        {
          "indexed": true,
          "internalType": "bytes32",
          "name": "id",
          "type": "bytes32"
        }
      ],
      "name": "ChainlinkRequested",
      "type": "event"
    },
    {
      "anonymous": false,
      "inputs": [
        {
          "indexed": false,
          "internalType": "uint256",
          "name": "_reward",
          "type": "uint256"
        },
        {
          "indexed": false,
          "internalType": "address",
          "name": "_user",
          "type": "address"
        }
      ],
      "name": "ClaimedReward",
      "type": "event"
    },
    {
      "anonymous": false,
      "inputs": [
        {
          "indexed": true,
          "internalType": "uint256",
          "name": "_marketItemId",
          "type": "uint256"
        },
        {
          "indexed": true,
          "internalType": "uint256",
          "name": "_tokenId",
          "type": "uint256"
        },
        {
          "indexed": false,
          "internalType": "uint256",
          "name": "_amount",
          "type": "uint256"
        },
        {
          "indexed": false,
          "internalType": "uint256",
          "name": "_timestamp",
          "type": "uint256"
        },
        {
          "indexed": false,
          "internalType": "address",
          "name": "_erc20Address",
          "type": "address"
        },
        {
          "indexed": false,
          "internalType": "bool",
          "name": "_isBond",
          "type": "bool"
        },
        {
          "indexed": false,
          "internalType": "address",
          "name": "_user",
          "type": "address"
        },
        {
          "indexed": false,
          "internalType": "bytes32",
          "name": "_requestId",
          "type": "bytes32"
        },
        {
          "indexed": false,
          "internalType": "uint256",
          "name": "_iconId",
          "type": "uint256"
        }
      ],
      "name": "NFTBond",
      "type": "event"
    },
    {
      "anonymous": false,
      "inputs": [
        {
          "indexed": true,
          "internalType": "uint256",
          "name": "_marketItemId",
          "type": "uint256"
        },
        {
          "indexed": true,
          "internalType": "address",
          "name": "_contractAddress",
          "type": "address"
        },
        {
          "indexed": true,
          "internalType": "uint256",
          "name": "_tokenId",
          "type": "uint256"
        },
        {
          "indexed": false,
          "internalType": "address",
          "name": "_seller",
          "type": "address"
        },
        {
          "indexed": false,
          "internalType": "address",
          "name": "_newOwner",
          "type": "address"
        },
        {
          "indexed": false,
          "internalType": "uint256",
          "name": "_price",
          "type": "uint256"
        }
      ],
      "name": "NFTBought",
      "type": "event"
    },
    {
      "anonymous": false,
      "inputs": [
        {
          "indexed": true,
          "internalType": "uint256",
          "name": "_marketItemId",
          "type": "uint256"
        },
        {
          "indexed": true,
          "internalType": "address",
          "name": "_contractAddress",
          "type": "address"
        },
        {
          "indexed": true,
          "internalType": "uint256",
          "name": "_tokenId",
          "type": "uint256"
        },
        {
          "indexed": false,
          "internalType": "address",
          "name": "_seller",
          "type": "address"
        },
        {
          "indexed": false,
          "internalType": "address",
          "name": "_newOwner",
          "type": "address"
        },
        {
          "indexed": false,
          "internalType": "uint256",
          "name": "_price",
          "type": "uint256"
        },
        {
          "indexed": false,
          "internalType": "uint256",
          "name": "_timestampNFT",
          "type": "uint256"
        }
      ],
      "name": "NFTListed",
      "type": "event"
    },
    {
      "anonymous": false,
      "inputs": [
        {
          "indexed": true,
          "internalType": "uint256",
          "name": "_marketItemId",
          "type": "uint256"
        },
        {
          "indexed": true,
          "internalType": "uint256",
          "name": "_tokenId",
          "type": "uint256"
        },
        {
          "indexed": false,
          "internalType": "uint256",
          "name": "_amount",
          "type": "uint256"
        },
        {
          "indexed": false,
          "internalType": "uint256",
          "name": "_timestamp",
          "type": "uint256"
        },
        {
          "indexed": false,
          "internalType": "address",
          "name": "_erc20Address",
          "type": "address"
        },
        {
          "indexed": false,
          "internalType": "bool",
          "name": "_isBond",
          "type": "bool"
        },
        {
          "indexed": false,
          "internalType": "address",
          "name": "_user",
          "type": "address"
        }
      ],
      "name": "NFTUnbond",
      "type": "event"
    },
    {
      "anonymous": false,
      "inputs": [
        {
          "indexed": true,
          "internalType": "address",
          "name": "previousOwner",
          "type": "address"
        },
        {
          "indexed": true,
          "internalType": "address",
          "name": "newOwner",
          "type": "address"
        }
      ],
      "name": "OwnershipTransferred",
      "type": "event"
    },
    {
      "anonymous": false,
      "inputs": [
        {
          "indexed": false,
          "internalType": "uint256",
          "name": "_votingPower",
          "type": "uint256"
        }
      ],
      "name": "VotingPower",
      "type": "event"
    },
    {
      "inputs": [
        {
          "internalType": "uint256",
          "name": "marketItemId",
          "type": "uint256"
        },
        {
          "internalType": "uint256",
          "name": "amount",
          "type": "uint256"
        },
        {
          "internalType": "address",
          "name": "erc20Address",
          "type": "address"
        },
        {
          "internalType": "uint256",
          "name": "iconId",
          "type": "uint256"
        }
      ],
      "name": "bondNFT",
      "outputs": [],
      "stateMutability": "nonpayable",
      "type": "function"
    },
    {
      "inputs": [
        {
          "internalType": "uint256",
          "name": "marketItemId",
          "type": "uint256"
        }
      ],
      "name": "buyNFT",
      "outputs": [],
      "stateMutability": "payable",
      "type": "function"
    },
    {
      "inputs": [
        {
          "internalType": "uint256",
          "name": "marketItemId",
          "type": "uint256"
        }
      ],
      "name": "claimReward",
      "outputs": [],
      "stateMutability": "nonpayable",
      "type": "function"
    },
    {
      "inputs": [],
      "name": "echidnaDeployer",
      "outputs": [
        {
          "internalType": "address",
          "name": "",
          "type": "address"
        }
      ],
      "stateMutability": "view",
      "type": "function"
    },
    {
      "inputs": [],
      "name": "echidnaSender",
      "outputs": [
        {
          "internalType": "address",
          "name": "",
          "type": "address"
        }
      ],
      "stateMutability": "view",
      "type": "function"
    },
    {
      "inputs": [],
      "name": "echidna_test_Owner",
      "outputs": [
        {
          "internalType": "bool",
          "name": "",
          "type": "bool"
        }
      ],
      "stateMutability": "nonpayable",
      "type": "function"
    },
    {
      "inputs": [],
      "name": "echidna_test_curationFee",
      "outputs": [
        {
          "internalType": "bool",
          "name": "",
          "type": "bool"
        }
      ],
      "stateMutability": "nonpayable",
      "type": "function"
    },
    {
      "inputs": [],
      "name": "echidna_test_erc1155Address",
      "outputs": [
        {
          "internalType": "bool",
          "name": "",
          "type": "bool"
        }
      ],
      "stateMutability": "nonpayable",
      "type": "function"
    },
    {
      "inputs": [
        {
          "internalType": "uint256",
          "name": "_amount",
          "type": "uint256"
        }
      ],
      "name": "eighthRoot",
      "outputs": [
        {
          "internalType": "bytes32",
          "name": "requestId",
          "type": "bytes32"
        }
      ],
      "stateMutability": "nonpayable",
      "type": "function"
    },
    {
      "inputs": [],
      "name": "erc1155Address",
      "outputs": [
        {
          "internalType": "address",
          "name": "",
          "type": "address"
        }
      ],
      "stateMutability": "view",
      "type": "function"
    },
    {
      "inputs": [],
      "name": "fetchMyNFTs",
      "outputs": [
        {
          "components": [
            {
              "internalType": "uint256",
              "name": "id",
              "type": "uint256"
            },
            {
              "internalType": "address",
              "name": "contractAddress",
              "type": "address"
            },
            {
              "internalType": "uint256",
              "name": "tokenId",
              "type": "uint256"
            },
            {
              "internalType": "string",
              "name": "metadataUri",
              "type": "string"
            },
            {
              "internalType": "address payable",
              "name": "seller",
              "type": "address"
            },
            {
              "internalType": "address payable",
              "name": "owner",
              "type": "address"
            },
            {
              "internalType": "uint256",
              "name": "price",
              "type": "uint256"
            },
            {
              "internalType": "uint256",
              "name": "timestampNFT",
              "type": "uint256"
            },
            {
              "internalType": "uint256",
              "name": "totalVotingPower",
              "type": "uint256"
            },
            {
              "internalType": "uint256",
              "name": "tokenValue",
              "type": "uint256"
            },
            {
              "internalType": "uint256",
              "name": "numberOfBonders",
              "type": "uint256"
            },
            {
              "internalType": "address[]",
              "name": "Bonders",
              "type": "address[]"
            }
          ],
          "internalType": "struct Marketplace.listedNFT[]",
          "name": "",
          "type": "tuple[]"
        }
      ],
      "stateMutability": "view",
      "type": "function"
    },
    {
      "inputs": [
        {
          "internalType": "bytes32",
          "name": "_requestId",
          "type": "bytes32"
        },
        {
          "internalType": "uint256",
          "name": "_volume",
          "type": "uint256"
        }
      ],
      "name": "fulfill",
      "outputs": [],
      "stateMutability": "nonpayable",
      "type": "function"
    },
    {
      "inputs": [],
      "name": "getCurationFee",
      "outputs": [
        {
          "internalType": "uint256",
          "name": "",
          "type": "uint256"
        }
      ],
      "stateMutability": "view",
      "type": "function"
    },
    {
      "inputs": [
        {
          "internalType": "uint256",
          "name": "_marketItemId",
          "type": "uint256"
        }
      ],
      "name": "getMarketItem",
      "outputs": [
        {
          "components": [
            {
              "internalType": "uint256",
              "name": "id",
              "type": "uint256"
            },
            {
              "internalType": "address",
              "name": "contractAddress",
              "type": "address"
            },
            {
              "internalType": "uint256",
              "name": "tokenId",
              "type": "uint256"
            },
            {
              "internalType": "string",
              "name": "metadataUri",
              "type": "string"
            },
            {
              "internalType": "address payable",
              "name": "seller",
              "type": "address"
            },
            {
              "internalType": "address payable",
              "name": "owner",
              "type": "address"
            },
            {
              "internalType": "uint256",
              "name": "price",
              "type": "uint256"
            },
            {
              "internalType": "uint256",
              "name": "timestampNFT",
              "type": "uint256"
            },
            {
              "internalType": "uint256",
              "name": "totalVotingPower",
              "type": "uint256"
            },
            {
              "internalType": "uint256",
              "name": "tokenValue",
              "type": "uint256"
            },
            {
              "internalType": "uint256",
              "name": "numberOfBonders",
              "type": "uint256"
            },
            {
              "internalType": "address[]",
              "name": "Bonders",
              "type": "address[]"
            }
          ],
          "internalType": "struct Marketplace.listedNFT",
          "name": "",
          "type": "tuple"
        }
      ],
      "stateMutability": "view",
      "type": "function"
    },
    {
      "inputs": [],
      "name": "getMyUnclaimedNFTs",
      "outputs": [
        {
          "internalType": "uint256[]",
          "name": "",
          "type": "uint256[]"
        }
      ],
      "stateMutability": "view",
      "type": "function"
    },
    {
      "inputs": [
        {
          "internalType": "uint256",
          "name": "_marketItemId",
          "type": "uint256"
        }
      ],
      "name": "getNFTBond",
      "outputs": [
        {
          "components": [
            {
              "internalType": "uint256",
              "name": "tokenId",
              "type": "uint256"
            },
            {
              "internalType": "uint256",
              "name": "amount",
              "type": "uint256"
            },
            {
              "internalType": "address",
              "name": "user",
              "type": "address"
            },
            {
              "internalType": "bool",
              "name": "isBond",
              "type": "bool"
            },
            {
              "internalType": "uint256",
              "name": "timeStamp",
              "type": "uint256"
            },
            {
              "internalType": "address",
              "name": "erc20Address",
              "type": "address"
            },
            {
              "internalType": "uint256",
              "name": "votingPower",
              "type": "uint256"
            },
            {
              "internalType": "uint256",
              "name": "iconId",
              "type": "uint256"
            }
          ],
          "internalType": "struct Marketplace.bondedNFT[]",
          "name": "",
          "type": "tuple[]"
        }
      ],
      "stateMutability": "view",
      "type": "function"
    },
    {
      "inputs": [
        {
          "internalType": "uint256",
          "name": "_marketItemId",
          "type": "uint256"
        }
      ],
      "name": "getNFTOwner",
      "outputs": [
        {
          "internalType": "address",
          "name": "",
          "type": "address"
        }
      ],
      "stateMutability": "view",
      "type": "function"
    },
    {
      "inputs": [],
      "name": "getUnsoldNFTsOnMarket",
      "outputs": [
        {
          "components": [
            {
              "internalType": "uint256",
              "name": "id",
              "type": "uint256"
            },
            {
              "internalType": "address",
              "name": "contractAddress",
              "type": "address"
            },
            {
              "internalType": "uint256",
              "name": "tokenId",
              "type": "uint256"
            },
            {
              "internalType": "string",
              "name": "metadataUri",
              "type": "string"
            },
            {
              "internalType": "address payable",
              "name": "seller",
              "type": "address"
            },
            {
              "internalType": "address payable",
              "name": "owner",
              "type": "address"
            },
            {
              "internalType": "uint256",
              "name": "price",
              "type": "uint256"
            },
            {
              "internalType": "uint256",
              "name": "timestampNFT",
              "type": "uint256"
            },
            {
              "internalType": "uint256",
              "name": "totalVotingPower",
              "type": "uint256"
            },
            {
              "internalType": "uint256",
              "name": "tokenValue",
              "type": "uint256"
            },
            {
              "internalType": "uint256",
              "name": "numberOfBonders",
              "type": "uint256"
            },
            {
              "internalType": "address[]",
              "name": "Bonders",
              "type": "address[]"
            }
          ],
          "internalType": "struct Marketplace.listedNFT[]",
          "name": "items",
          "type": "tuple[]"
        }
      ],
      "stateMutability": "view",
      "type": "function"
    },
    {
      "inputs": [
        {
          "internalType": "address",
          "name": "_contractAddress",
          "type": "address"
        },
        {
          "internalType": "uint256",
          "name": "_tokenId",
          "type": "uint256"
        },
        {
          "internalType": "string",
          "name": "_metadataUri",
          "type": "string"
        },
        {
          "internalType": "uint256",
          "name": "_price",
          "type": "uint256"
        }
      ],
      "name": "listNFT",
      "outputs": [],
      "stateMutability": "nonpayable",
      "type": "function"
    },
    {
      "inputs": [
        {
          "internalType": "uint256",
          "name": "_a",
          "type": "uint256"
        },
        {
          "internalType": "uint256",
          "name": "_n",
          "type": "uint256"
        },
        {
          "internalType": "uint256",
          "name": "_dp",
          "type": "uint256"
        },
        {
          "internalType": "uint256",
          "name": "_maxIts",
          "type": "uint256"
        }
      ],
      "name": "nthRoot",
      "outputs": [
        {
          "internalType": "uint256",
          "name": "",
          "type": "uint256"
        }
      ],
      "stateMutability": "pure",
      "type": "function"
    },
    {
      "inputs": [],
      "name": "owner",
      "outputs": [
        {
          "internalType": "address",
          "name": "",
          "type": "address"
        }
      ],
      "stateMutability": "view",
      "type": "function"
    },
    {
      "inputs": [],
      "name": "renounceOwnership",
      "outputs": [],
      "stateMutability": "nonpayable",
      "type": "function"
    },
    {
      "inputs": [
        {
          "internalType": "address",
          "name": "newOwner",
          "type": "address"
        }
      ],
      "name": "transferOwnership",
      "outputs": [],
      "stateMutability": "nonpayable",
      "type": "function"
    }
  ],
  "bytecode": "0x608060405260016005556001601360006101000a81548173ffffffffffffffffffffffffffffffffffffffff021916908373ffffffffffffffffffffffffffffffffffffffff1602179055506002601460006101000a81548173ffffffffffffffffffffffffffffffffffffffff021916908373ffffffffffffffffffffffffffffffffffffffff1602179055503480156200009a57600080fd5b506014735fc8d32690cc91d4c39d9d3abcbd16989f875707735fbdb2315678afecb367f032d93f642f64180aa373e7f1725e7734ce288f8367e1bb143e90bb3f0512620000fc620000f0620002a160201b60201c565b620002a960201b60201c565b6200012c6040518060600160405280602a8152602001620068b2602a9139856200036d60201b620034c71760201c565b8360098190555082600a60006101000a81548173ffffffffffffffffffffffffffffffffffffffff021916908373ffffffffffffffffffffffffffffffffffffffff16021790555062000185826200041360201b60201c565b80600b60006101000a81548173ffffffffffffffffffffffffffffffffffffffff021916908373ffffffffffffffffffffffffffffffffffffffff1602179055507f6262663062616461643239643439646338383735303462616366626239303562600c81905550662386f26fc10000600d819055506040518060400160405280602081526020017f68747470733a2f2f6170692e6d6174686a732e6f72672f76342f3f657870723d815250600e90805190602001906200024892919062000480565b506040518060400160405280600681526020017f5e28312f38290000000000000000000000000000000000000000000000000000815250600f90805190602001906200029692919062000480565b505050505062000688565b600033905090565b60008060009054906101000a900473ffffffffffffffffffffffffffffffffffffffff169050816000806101000a81548173ffffffffffffffffffffffffffffffffffffffff021916908373ffffffffffffffffffffffffffffffffffffffff1602179055508173ffffffffffffffffffffffffffffffffffffffff168173ffffffffffffffffffffffffffffffffffffffff167f8be0079c531659141344cd1fd0a4f28419497f9722a3daafe3b4186f6b6457e060405160405180910390a35050565b6200040f828260405160240162000386929190620005ef565b6040516020818303038152906040527f9710a9d0000000000000000000000000000000000000000000000000000000007bffffffffffffffffffffffffffffffffffffffffffffffffffffffff19166020820180517bffffffffffffffffffffffffffffffffffffffffffffffffffffffff83818316178352505050506200045760201b60201c565b5050565b80600360006101000a81548173ffffffffffffffffffffffffffffffffffffffff021916908373ffffffffffffffffffffffffffffffffffffffff16021790555050565b60008151905060006a636f6e736f6c652e6c6f679050602083016000808483855afa5050505050565b8280546200048e9062000652565b90600052602060002090601f016020900481019282620004b25760008555620004fe565b82601f10620004cd57805160ff1916838001178555620004fe565b82800160010185558215620004fe579182015b82811115620004fd578251825591602001919060010190620004e0565b5b5090506200050d919062000511565b5090565b5b808211156200052c57600081600090555060010162000512565b5090565b600081519050919050565b600082825260208201905092915050565b60005b838110156200056c5780820151818401526020810190506200054f565b838111156200057c576000848401525b50505050565b6000601f19601f8301169050919050565b6000620005a08262000530565b620005ac81856200053b565b9350620005be8185602086016200054c565b620005c98162000582565b840191505092915050565b6000819050919050565b620005e981620005d4565b82525050565b600060408201905081810360008301526200060b818562000593565b90506200061c6020830184620005de565b9392505050565b7f4e487b7100000000000000000000000000000000000000000000000000000000600052602260045260246000fd5b600060028204905060018216806200066b57607f821691505b6020821081141562000682576200068162000623565b5b50919050565b61621a80620006986000396000f3fe6080604052600436106101405760003560e01c80636228f7c3116100b65780639b2ead951161006f5780639b2ead951461042d578063ae169a5014610458578063bcda63bc14610481578063c7be7a49146104ac578063deaea2e3146104e9578063f2fde38b1461052657610140565b80636228f7c3146103315780636469cfac1461035c578063682575e414610399578063715018a6146103c257806386b100d4146103d95780638da5cb5b1461040257610140565b80634505ea00116101085780634505ea001461021a5780634ce8eef4146102575780634e8dd6bb146102825780634f487955146102ad57806351ed8288146102d857806355b92a9e146102f457610140565b806301b1c00114610145578063051420021461017057806317c3150b1461019b578063202e3740146101c65780634357855e146101f1575b600080fd5b34801561015157600080fd5b5061015a61054f565b60405161016791906144ae565b60405180910390f35b34801561017c57600080fd5b5061018561083f565b6040516101929190614511565b60405180910390f35b3480156101a757600080fd5b506101b0610865565b6040516101bd9190614547565b60405180910390f35b3480156101d257600080fd5b506101db6108c4565b6040516101e891906148a7565b60405180910390f35b3480156101fd57600080fd5b506102186004803603810190610213919061493f565b610d40565b005b34801561022657600080fd5b50610241600480360381019061023c919061497f565b611180565b60405161024e91906149bb565b60405180910390f35b34801561026357600080fd5b5061026c6112a5565b60405161027991906148a7565b60405180910390f35b34801561028e57600080fd5b506102976116a5565b6040516102a49190614511565b60405180910390f35b3480156102b957600080fd5b506102c26116cb565b6040516102cf9190614547565b60405180910390f35b6102f260048036038101906102ed919061497f565b6116dd565b005b34801561030057600080fd5b5061031b6004803603810190610316919061497f565b6119c1565b6040516103289190614b37565b60405180910390f35b34801561033d57600080fd5b50610346611ce9565b6040516103539190614b68565b60405180910390f35b34801561036857600080fd5b50610383600480360381019061037e9190614b83565b611cf3565b6040516103909190614b68565b60405180910390f35b3480156103a557600080fd5b506103c060048036038101906103bb9190614d4b565b611e30565b005b3480156103ce57600080fd5b506103d76121b5565b005b3480156103e557600080fd5b5061040060048036038101906103fb9190614dce565b61223d565b005b34801561040e57600080fd5b50610417612abf565b6040516104249190614511565b60405180910390f35b34801561043957600080fd5b50610442612ae8565b60405161044f9190614547565b60405180910390f35b34801561046457600080fd5b5061047f600480360381019061047a919061497f565b612b54565b005b34801561048d57600080fd5b50610496613033565b6040516104a39190614511565b60405180910390f35b3480156104b857600080fd5b506104d360048036038101906104ce919061497f565b613059565b6040516104e09190614f40565b60405180910390f35b3480156104f557600080fd5b50610510600480360381019061050b919061497f565b6132f5565b60405161051d9190614511565b60405180910390f35b34801561053257600080fd5b5061054d60048036038101906105489190614f62565b6133cf565b005b6060600061055d6007613563565b905060008060005b8381101561068357600073ffffffffffffffffffffffffffffffffffffffff16601060006001846105969190614fbe565b815260200190815260200160002060050160009054906101000a900473ffffffffffffffffffffffffffffffffffffffff1673ffffffffffffffffffffffffffffffffffffffff161415801561065c575060011515601160006001846105fc9190614fbe565b815260200190815260200160002060003373ffffffffffffffffffffffffffffffffffffffff1673ffffffffffffffffffffffffffffffffffffffff16815260200190815260200160002060020160149054906101000a900460ff161515145b1561067057828061066c90615014565b9350505b808061067b90615014565b915050610565565b5060008267ffffffffffffffff8111156106a05761069f614c20565b5b6040519080825280602002602001820160405280156106ce5781602001602082028036833780820191505090505b50905060005b8481101561083457600073ffffffffffffffffffffffffffffffffffffffff16601060006001846107059190614fbe565b815260200190815260200160002060050160009054906101000a900473ffffffffffffffffffffffffffffffffffffffff1673ffffffffffffffffffffffffffffffffffffffff16141580156107cb5750600115156011600060018461076b9190614fbe565b815260200190815260200160002060003373ffffffffffffffffffffffffffffffffffffffff1673ffffffffffffffffffffffffffffffffffffffff16815260200190815260200160002060020160149054906101000a900460ff161515145b1561082157601060006001836107e19190614fbe565b8152602001908152602001600020600001548284815181106108065761080561505d565b5b602002602001018181525050828061081d90615014565b9350505b808061082c90615014565b9150506106d4565b508094505050505090565b600a60009054906101000a900473ffffffffffffffffffffffffffffffffffffffff1681565b6000601360009054906101000a900473ffffffffffffffffffffffffffffffffffffffff1673ffffffffffffffffffffffffffffffffffffffff166108a8612abf565b73ffffffffffffffffffffffffffffffffffffffff1614905090565b606060006108d26007613563565b905060008060005b8381101561097b573373ffffffffffffffffffffffffffffffffffffffff166010600060018461090a9190614fbe565b815260200190815260200160002060050160009054906101000a900473ffffffffffffffffffffffffffffffffffffffff1673ffffffffffffffffffffffffffffffffffffffff161415610968576001836109659190614fbe565b92505b808061097390615014565b9150506108da565b5060008267ffffffffffffffff81111561099857610997614c20565b5b6040519080825280602002602001820160405280156109d157816020015b6109be6141a6565b8152602001906001900390816109b65790505b50905060005b84811015610d35573373ffffffffffffffffffffffffffffffffffffffff1660106000600184610a079190614fbe565b815260200190815260200160002060050160009054906101000a900473ffffffffffffffffffffffffffffffffffffffff1673ffffffffffffffffffffffffffffffffffffffff161415610d22576000600182610a649190614fbe565b905060006010600083815260200190815260200160002090508060405180610180016040529081600082015481526020016001820160009054906101000a900473ffffffffffffffffffffffffffffffffffffffff1673ffffffffffffffffffffffffffffffffffffffff1673ffffffffffffffffffffffffffffffffffffffff16815260200160028201548152602001600382018054610b04906150bb565b80601f0160208091040260200160405190810160405280929190818152602001828054610b30906150bb565b8015610b7d5780601f10610b5257610100808354040283529160200191610b7d565b820191906000526020600020905b815481529060010190602001808311610b6057829003601f168201915b505050505081526020016004820160009054906101000a900473ffffffffffffffffffffffffffffffffffffffff1673ffffffffffffffffffffffffffffffffffffffff1673ffffffffffffffffffffffffffffffffffffffff1681526020016005820160009054906101000a900473ffffffffffffffffffffffffffffffffffffffff1673ffffffffffffffffffffffffffffffffffffffff1673ffffffffffffffffffffffffffffffffffffffff16815260200160068201548152602001600782015481526020016008820154815260200160098201548152602001600a8201548152602001600b8201805480602002602001604051908101604052809291908181526020018280548015610ce957602002820191906000526020600020905b8160009054906101000a900473ffffffffffffffffffffffffffffffffffffffff1673ffffffffffffffffffffffffffffffffffffffff1681526020019060010190808311610c9f575b505050505081525050848681518110610d0557610d0461505d565b5b6020026020010181905250600185610d1d9190614fbe565b945050505b8080610d2d90615014565b9150506109d7565b508094505050505090565b816006600082815260200190815260200160002060009054906101000a900473ffffffffffffffffffffffffffffffffffffffff1673ffffffffffffffffffffffffffffffffffffffff163373ffffffffffffffffffffffffffffffffffffffff1614610de2576040517f08c379a0000000000000000000000000000000000000000000000000000000008152600401610dd990615170565b60405180910390fd5b6006600082815260200190815260200160002060006101000a81549073ffffffffffffffffffffffffffffffffffffffff0219169055807f7cc135e0cebb02c3480ae5d74d377283180a2601f8f644edf7987b009316c63a60405160405180910390a260006012600085815260200190815260200160002060000160009054906101000a900473ffffffffffffffffffffffffffffffffffffffff1690506000601260008681526020019081526020016000206001015490506000606485610eaa91906151bf565b610f0c6011600085815260200190815260200160002060008673ffffffffffffffffffffffffffffffffffffffff1673ffffffffffffffffffffffffffffffffffffffff16815260200190815260200160002060010154600260126014611cf3565b610f1691906151bf565b9050806011600084815260200190815260200160002060008573ffffffffffffffffffffffffffffffffffffffff1673ffffffffffffffffffffffffffffffffffffffff16815260200190815260200160002060050181905550600a60009054906101000a900473ffffffffffffffffffffffffffffffffffffffff1673ffffffffffffffffffffffffffffffffffffffff1663731133e984846011600087815260200190815260200160002060008873ffffffffffffffffffffffffffffffffffffffff1673ffffffffffffffffffffffffffffffffffffffff168152602001908152602001600020600501546040518463ffffffff1660e01b81526004016110229392919061524d565b600060405180830381600087803b15801561103c57600080fd5b505af1158015611050573d6000803e3d6000fd5b505050506011600083815260200190815260200160002060008473ffffffffffffffffffffffffffffffffffffffff1673ffffffffffffffffffffffffffffffffffffffff1681526020019081526020016000206005015460106000848152602001908152602001600020600801546110c99190614fbe565b601060008481526020019081526020016000206008018190555060106000838152602001908152602001600020600801546064601060008581526020019081526020016000206006015461111d91906151bf565b61112791906151bf565b60106000848152602001908152602001600020600901819055507f9e0bb4afdbf87f067e4109b80b01934bfaf1e7e9560dcb90f23f17d320fb88f7816040516111709190614b68565b60405180910390a1505050505050565b60008061118c83613571565b905060006111a4600c5430634357855e60e01b6136fa565b90506112156040518060400160405280600381526020017f6765740000000000000000000000000000000000000000000000000000000000815250600e84600f6040516020016111f693929190615367565b6040516020818303038152906040528361372b9092919063ffffffff16565b6000670de0b6b3a7640000905061126c6040518060400160405280600581526020017f74696d6573000000000000000000000000000000000000000000000000000000815250828461375e9092919063ffffffff16565b61129b600b60009054906101000a900473ffffffffffffffffffffffffffffffffffffffff1683600d54613791565b9350505050919050565b606060006112b36007613563565b905060006112c16008613563565b826112cc9190615398565b905060008167ffffffffffffffff8111156112ea576112e9614c20565b5b60405190808252806020026020018201604052801561132357816020015b6113106141a6565b8152602001906001900390816113085790505b50935060005b8381101561169e57600073ffffffffffffffffffffffffffffffffffffffff166010600060018461135a9190614fbe565b815260200190815260200160002060050160009054906101000a900473ffffffffffffffffffffffffffffffffffffffff1673ffffffffffffffffffffffffffffffffffffffff16141561168b576000601060006001846113bb9190614fbe565b815260200190815260200160002060000154905060006010600083815260200190815260200160002090508060405180610180016040529081600082015481526020016001820160009054906101000a900473ffffffffffffffffffffffffffffffffffffffff1673ffffffffffffffffffffffffffffffffffffffff1673ffffffffffffffffffffffffffffffffffffffff1681526020016002820154815260200160038201805461146d906150bb565b80601f0160208091040260200160405190810160405280929190818152602001828054611499906150bb565b80156114e65780601f106114bb576101008083540402835291602001916114e6565b820191906000526020600020905b8154815290600101906020018083116114c957829003601f168201915b505050505081526020016004820160009054906101000a900473ffffffffffffffffffffffffffffffffffffffff1673ffffffffffffffffffffffffffffffffffffffff1673ffffffffffffffffffffffffffffffffffffffff1681526020016005820160009054906101000a900473ffffffffffffffffffffffffffffffffffffffff1673ffffffffffffffffffffffffffffffffffffffff1673ffffffffffffffffffffffffffffffffffffffff16815260200160068201548152602001600782015481526020016008820154815260200160098201548152602001600a8201548152602001600b820180548060200260200160405190810160405280929190818152602001828054801561165257602002820191906000526020600020905b8160009054906101000a900473ffffffffffffffffffffffffffffffffffffffff1673ffffffffffffffffffffffffffffffffffffffff1681526020019060010190808311611608575b50505050508152505087858151811061166e5761166d61505d565b5b60200260200101819052506001846116869190614fbe565b935050505b808061169690615014565b915050611329565b5050505090565b601460009054906101000a900473ffffffffffffffffffffffffffffffffffffffff1681565b600060146116d7611ce9565b14905090565b6010600082815260200190815260200160002060040160009054906101000a900473ffffffffffffffffffffffffffffffffffffffff1673ffffffffffffffffffffffffffffffffffffffff163373ffffffffffffffffffffffffffffffffffffffff16141561174c57600080fd5b60006010600083815260200190815260200160002060060154905060006010600084815260200190815260200160002060020154905060006010600085815260200190815260200160002060040160009054906101000a900473ffffffffffffffffffffffffffffffffffffffff16905060006010600086815260200190815260200160002060010160009054906101000a900473ffffffffffffffffffffffffffffffffffffffff16905083341461183a576040517f08c379a000000000000000000000000000000000000000000000000000000000815260040161183190615418565b60405180910390fd5b336010600087815260200190815260200160002060050160006101000a81548173ffffffffffffffffffffffffffffffffffffffff021916908373ffffffffffffffffffffffffffffffffffffffff1602179055508073ffffffffffffffffffffffffffffffffffffffff166323b872dd8333866040518463ffffffff1660e01b81526004016118cc93929190615497565b600060405180830381600087803b1580156118e657600080fd5b505af11580156118fa573d6000803e3d6000fd5b505050508173ffffffffffffffffffffffffffffffffffffffff166108fc60648661192591906151bf565b866119309190615398565b9081150290604051600060405180830381858888f1935050505015801561195b573d6000803e3d6000fd5b5061196660086137b1565b828173ffffffffffffffffffffffffffffffffffffffff16867fd149f58da1dff89c18946d3ebf3588c7e52cb96cdbb10ca1baf80c14178f524b8533896040516119b293929190615497565b60405180910390a45050505050565b6060600060106000848152602001908152602001600020600a0154905060008167ffffffffffffffff8111156119fa576119f9614c20565b5b604051908082528060200260200182016040528015611a3357816020015b611a20614249565b815260200190600190039081611a185790505b50905060005b82811015611cde576000151560116000878152602001908152602001600020600060106000898152602001908152602001600020600b018481548110611a8257611a8161505d565b5b9060005260206000200160009054906101000a900473ffffffffffffffffffffffffffffffffffffffff1673ffffffffffffffffffffffffffffffffffffffff1673ffffffffffffffffffffffffffffffffffffffff16815260200190815260200160002060020160149054906101000a900460ff16151514611ccb57600060116000878152602001908152602001600020600060106000898152602001908152602001600020600b018481548110611b3e57611b3d61505d565b5b9060005260206000200160009054906101000a900473ffffffffffffffffffffffffffffffffffffffff1673ffffffffffffffffffffffffffffffffffffffff1673ffffffffffffffffffffffffffffffffffffffff1681526020019081526020016000209050806040518061010001604052908160008201548152602001600182015481526020016002820160009054906101000a900473ffffffffffffffffffffffffffffffffffffffff1673ffffffffffffffffffffffffffffffffffffffff1673ffffffffffffffffffffffffffffffffffffffff1681526020016002820160149054906101000a900460ff16151515158152602001600382015481526020016004820160009054906101000a900473ffffffffffffffffffffffffffffffffffffffff1673ffffffffffffffffffffffffffffffffffffffff1673ffffffffffffffffffffffffffffffffffffffff16815260200160058201548152602001600682015481525050838381518110611cbe57611cbd61505d565b5b6020026020010181905250505b8080611cd690615014565b915050611a39565b508092505050919050565b6000600954905090565b600060018411611d0657611d056154ce565b5b6000836001611d159190614fbe565b600a611d219190615630565b90506000868683611d329190615630565b611d3c919061567b565b9050600082905060006001905060005b818314158015611d5b57508681105b15611e0857829150600060018a611d729190615398565b83611d7d9190615630565b9050848184611d8c919061567b565b1115611dc657898186611d9f91906151bf565b84611daa9190615398565b611db491906151bf565b83611dbf9190615398565b9350611df6565b89838287611dd491906151bf565b611dde9190615398565b611de891906151bf565b83611df39190614fbe565b93505b81611e0090615014565b915050611d4c565b600a600584611e179190614fbe565b611e2191906151bf565b95505050505050949350505050565b60008111611e73576040517f08c379a0000000000000000000000000000000000000000000000000000000008152600401611e6a90615721565b60405180910390fd5b3373ffffffffffffffffffffffffffffffffffffffff168473ffffffffffffffffffffffffffffffffffffffff16636352211e856040518263ffffffff1660e01b8152600401611ec39190614b68565b602060405180830381865afa158015611ee0573d6000803e3d6000fd5b505050506040513d601f19601f82011682018060405250810190611f049190615756565b73ffffffffffffffffffffffffffffffffffffffff1614611f5a576040517f08c379a0000000000000000000000000000000000000000000000000000000008152600401611f51906157cf565b60405180910390fd5b611f6460076137b1565b6000611f706007613563565b9050806010600083815260200190815260200160002060000181905550846010600083815260200190815260200160002060010160006101000a81548173ffffffffffffffffffffffffffffffffffffffff021916908373ffffffffffffffffffffffffffffffffffffffff160217905550836010600083815260200190815260200160002060020181905550336010600083815260200190815260200160002060040160006101000a81548173ffffffffffffffffffffffffffffffffffffffff021916908373ffffffffffffffffffffffffffffffffffffffff16021790555060006010600083815260200190815260200160002060050160006101000a81548173ffffffffffffffffffffffffffffffffffffffff021916908373ffffffffffffffffffffffffffffffffffffffff160217905550816010600083815260200190815260200160002060060181905550826010600083815260200190815260200160002060030190805190602001906120ed9291906142bc565b5042601060008381526020019081526020016000206007018190555060016010600083815260200190815260200160002060080181905550600060106000838152602001908152602001600020600a0181905550838573ffffffffffffffffffffffffffffffffffffffff16827f7cbfcf258cc3aeee8e717152f695ef2ba70d99d7fa0ecc2147944cbdf6181b753360008760106000898152602001908152602001600020600701546040516121a694939291906157ef565b60405180910390a45050505050565b6121bd6137c7565b73ffffffffffffffffffffffffffffffffffffffff166121db612abf565b73ffffffffffffffffffffffffffffffffffffffff1614612231576040517f08c379a000000000000000000000000000000000000000000000000000000000815260040161222890615880565b60405180910390fd5b61223b60006137cf565b565b60008311612280576040517f08c379a0000000000000000000000000000000000000000000000000000000008152600401612277906158ec565b60405180910390fd5b828273ffffffffffffffffffffffffffffffffffffffff166370a08231336040518263ffffffff1660e01b81526004016122ba9190614511565b602060405180830381865afa1580156122d7573d6000803e3d6000fd5b505050506040513d601f19601f820116820180604052508101906122fb9190615921565b101561233c576040517f08c379a0000000000000000000000000000000000000000000000000000000008152600401612333906159c0565b60405180910390fd5b600015156011600086815260200190815260200160002060003373ffffffffffffffffffffffffffffffffffffffff1673ffffffffffffffffffffffffffffffffffffffff16815260200190815260200160002060020160149054906101000a900460ff161515146123e3576040517f08c379a00000000000000000000000000000000000000000000000000000000081526004016123da90615a2c565b60405180910390fd5b600073ffffffffffffffffffffffffffffffffffffffff166010600086815260200190815260200160002060050160009054906101000a900473ffffffffffffffffffffffffffffffffffffffff1673ffffffffffffffffffffffffffffffffffffffff1614612488576040517f08c379a000000000000000000000000000000000000000000000000000000000815260040161247f90615a98565b60405180910390fd5b600481106124cb576040517f08c379a00000000000000000000000000000000000000000000000000000000081526004016124c290615b04565b60405180910390fd5b8173ffffffffffffffffffffffffffffffffffffffff166323b872dd3330866040518463ffffffff1660e01b815260040161250893929190615b24565b6020604051808303816000875af1158015612527573d6000803e3d6000fd5b505050506040513d601f19601f8201168201806040525081019061254b9190615b87565b50826011600086815260200190815260200160002060003373ffffffffffffffffffffffffffffffffffffffff1673ffffffffffffffffffffffffffffffffffffffff16815260200190815260200160002060010181905550336011600086815260200190815260200160002060003373ffffffffffffffffffffffffffffffffffffffff1673ffffffffffffffffffffffffffffffffffffffff16815260200190815260200160002060020160006101000a81548173ffffffffffffffffffffffffffffffffffffffff021916908373ffffffffffffffffffffffffffffffffffffffff16021790555060016011600086815260200190815260200160002060003373ffffffffffffffffffffffffffffffffffffffff1673ffffffffffffffffffffffffffffffffffffffff16815260200190815260200160002060020160146101000a81548160ff02191690831515021790555060106000858152602001908152602001600020600201546011600086815260200190815260200160002060003373ffffffffffffffffffffffffffffffffffffffff1673ffffffffffffffffffffffffffffffffffffffff16815260200190815260200160002060000181905550816011600086815260200190815260200160002060003373ffffffffffffffffffffffffffffffffffffffff1673ffffffffffffffffffffffffffffffffffffffff16815260200190815260200160002060040160006101000a81548173ffffffffffffffffffffffffffffffffffffffff021916908373ffffffffffffffffffffffffffffffffffffffff160217905550426011600086815260200190815260200160002060003373ffffffffffffffffffffffffffffffffffffffff1673ffffffffffffffffffffffffffffffffffffffff16815260200190815260200160002060030181905550806011600086815260200190815260200160002060003373ffffffffffffffffffffffffffffffffffffffff1673ffffffffffffffffffffffffffffffffffffffff16815260200190815260200160002060060181905550600060106000868152602001908152602001600020600701546011600087815260200190815260200160002060003373ffffffffffffffffffffffffffffffffffffffff1673ffffffffffffffffffffffffffffffffffffffff168152602001908152602001600020600301546128c99190615398565b9050600160106000878152602001908152602001600020600a01546128ee9190614fbe565b60106000878152602001908152602001600020600a018190555060106000868152602001908152602001600020600b01339080600181540180825580915050600190039060005260206000200160009091909190916101000a81548173ffffffffffffffffffffffffffffffffffffffff021916908373ffffffffffffffffffffffffffffffffffffffff160217905550600061298a82611180565b9050336012600083815260200190815260200160002060000160006101000a81548173ffffffffffffffffffffffffffffffffffffffff021916908373ffffffffffffffffffffffffffffffffffffffff1602179055508560126000838152602001908152602001600020600101819055506010600087815260200190815260200160002060020154867fbbc8c1f22f5a5ebca191715f8652bc63db7ff2bf982d6d329b24250d7aa236b8874288601160008d815260200190815260200160002060003373ffffffffffffffffffffffffffffffffffffffff1673ffffffffffffffffffffffffffffffffffffffff16815260200190815260200160002060020160149054906101000a900460ff1633888b604051612aaf9796959493929190615bb4565b60405180910390a3505050505050565b60008060009054906101000a900473ffffffffffffffffffffffffffffffffffffffff16905090565b6000735fc8d32690cc91d4c39d9d3abcbd16989f87570773ffffffffffffffffffffffffffffffffffffffff16600a60009054906101000a900473ffffffffffffffffffffffffffffffffffffffff1673ffffffffffffffffffffffffffffffffffffffff1614905090565b600115156011600083815260200190815260200160002060003373ffffffffffffffffffffffffffffffffffffffff1673ffffffffffffffffffffffffffffffffffffffff16815260200190815260200160002060020160149054906101000a900460ff16151514612bfb576040517f08c379a0000000000000000000000000000000000000000000000000000000008152600401612bf290615c6f565b60405180910390fd5b600073ffffffffffffffffffffffffffffffffffffffff166010600083815260200190815260200160002060050160009054906101000a900473ffffffffffffffffffffffffffffffffffffffff1673ffffffffffffffffffffffffffffffffffffffff161415612ca1576040517f08c379a0000000000000000000000000000000000000000000000000000000008152600401612c9890615cdb565b60405180910390fd5b600060106000838152602001908152602001600020600901546011600084815260200190815260200160002060003373ffffffffffffffffffffffffffffffffffffffff1673ffffffffffffffffffffffffffffffffffffffff16815260200190815260200160002060050154612d18919061567b565b90506000339050600a60009054906101000a900473ffffffffffffffffffffffffffffffffffffffff1673ffffffffffffffffffffffffffffffffffffffff1663f5298aca33856011600088815260200190815260200160002060003373ffffffffffffffffffffffffffffffffffffffff1673ffffffffffffffffffffffffffffffffffffffff168152602001908152602001600020600501546040518463ffffffff1660e01b8152600401612dd193929190615cfb565b600060405180830381600087803b158015612deb57600080fd5b505af1158015612dff573d6000803e3d6000fd5b505050506011600084815260200190815260200160002060003373ffffffffffffffffffffffffffffffffffffffff1673ffffffffffffffffffffffffffffffffffffffff16815260200190815260200160002060040160009054906101000a900473ffffffffffffffffffffffffffffffffffffffff1673ffffffffffffffffffffffffffffffffffffffff166323b872dd30336011600088815260200190815260200160002060003373ffffffffffffffffffffffffffffffffffffffff1673ffffffffffffffffffffffffffffffffffffffff168152602001908152602001600020600101546040518463ffffffff1660e01b8152600401612f0693929190615b24565b6020604051808303816000875af1158015612f25573d6000803e3d6000fd5b505050506040513d601f19601f82011682018060405250810190612f499190615b87565b508073ffffffffffffffffffffffffffffffffffffffff166108fc839081150290604051600060405180830381858888f19350505050158015612f90573d6000803e3d6000fd5b50600015156011600085815260200190815260200160002060003373ffffffffffffffffffffffffffffffffffffffff1673ffffffffffffffffffffffffffffffffffffffff16815260200190815260200160002060020160149054906101000a905050507f94f7e1faf1ea1155312a8cbf4d6de9661c699da906fe30e0685aebcc309fd8bb8233604051613026929190615d32565b60405180910390a1505050565b601360009054906101000a900473ffffffffffffffffffffffffffffffffffffffff1681565b6130616141a6565b60006010600084815260200190815260200160002090508060405180610180016040529081600082015481526020016001820160009054906101000a900473ffffffffffffffffffffffffffffffffffffffff1673ffffffffffffffffffffffffffffffffffffffff1673ffffffffffffffffffffffffffffffffffffffff168152602001600282015481526020016003820180546130ff906150bb565b80601f016020809104026020016040519081016040528092919081815260200182805461312b906150bb565b80156131785780601f1061314d57610100808354040283529160200191613178565b820191906000526020600020905b81548152906001019060200180831161315b57829003601f168201915b505050505081526020016004820160009054906101000a900473ffffffffffffffffffffffffffffffffffffffff1673ffffffffffffffffffffffffffffffffffffffff1673ffffffffffffffffffffffffffffffffffffffff1681526020016005820160009054906101000a900473ffffffffffffffffffffffffffffffffffffffff1673ffffffffffffffffffffffffffffffffffffffff1673ffffffffffffffffffffffffffffffffffffffff16815260200160068201548152602001600782015481526020016008820154815260200160098201548152602001600a8201548152602001600b82018054806020026020016040519081016040528092919081815260200182805480156132e457602002820191906000526020600020905b8160009054906101000a900473ffffffffffffffffffffffffffffffffffffffff1673ffffffffffffffffffffffffffffffffffffffff168152602001906001019080831161329a575b505050505081525050915050919050565b6000806010600084815260200190815260200160002060010160009054906101000a900473ffffffffffffffffffffffffffffffffffffffff1690506000601060008581526020019081526020016000206002015490508173ffffffffffffffffffffffffffffffffffffffff16636352211e826040518263ffffffff1660e01b81526004016133859190614b68565b602060405180830381865afa1580156133a2573d6000803e3d6000fd5b505050506040513d601f19601f820116820180604052508101906133c69190615756565b92505050919050565b6133d76137c7565b73ffffffffffffffffffffffffffffffffffffffff166133f5612abf565b73ffffffffffffffffffffffffffffffffffffffff161461344b576040517f08c379a000000000000000000000000000000000000000000000000000000000815260040161344290615880565b60405180910390fd5b600073ffffffffffffffffffffffffffffffffffffffff168173ffffffffffffffffffffffffffffffffffffffff1614156134bb576040517f08c379a00000000000000000000000000000000000000000000000000000000081526004016134b290615dcd565b60405180910390fd5b6134c4816137cf565b50565b61355f82826040516024016134dd929190615e26565b6040516020818303038152906040527f9710a9d0000000000000000000000000000000000000000000000000000000007bffffffffffffffffffffffffffffffffffffffffffffffffffffffff19166020820180517bffffffffffffffffffffffffffffffffffffffffffffffffffffffff8381831617835250505050613893565b5050565b600081600001549050919050565b606060008214156135b9576040518060400160405280600181526020017f300000000000000000000000000000000000000000000000000000000000000081525090506136f5565b600082905060005b600082146135eb5780806135d490615014565b915050600a826135e491906151bf565b91506135c1565b60008167ffffffffffffffff81111561360757613606614c20565b5b6040519080825280601f01601f1916602001820160405280156136395781602001600182028036833780820191505090505b50905060008290505b600086146136ed576001816136579190615398565b90506000600a808861366991906151bf565b613673919061567b565b8761367e9190615398565b603061368a9190615e63565b905060008160f81b9050808484815181106136a8576136a761505d565b5b60200101907effffffffffffffffffffffffffffffffffffffffffffffffffffffffffffff1916908160001a905350600a886136e491906151bf565b97505050613642565b819450505050505b919050565b613702614342565b61370a614342565b613721858585846138bc909392919063ffffffff16565b9150509392505050565b61374282846080015161396c90919063ffffffff16565b61375981846080015161396c90919063ffffffff16565b505050565b61377582846080015161396c90919063ffffffff16565b61378c81846080015161399190919063ffffffff16565b505050565b60006137a88484846001634042994660e01b613a3e565b90509392505050565b6001816000016000828254019250508190555050565b600033905090565b60008060009054906101000a900473ffffffffffffffffffffffffffffffffffffffff169050816000806101000a81548173ffffffffffffffffffffffffffffffffffffffff021916908373ffffffffffffffffffffffffffffffffffffffff1602179055508173ffffffffffffffffffffffffffffffffffffffff168173ffffffffffffffffffffffffffffffffffffffff167f8be0079c531659141344cd1fd0a4f28419497f9722a3daafe3b4186f6b6457e060405160405180910390a35050565b60008151905060006a636f6e736f6c652e6c6f679050602083016000808483855afa5050505050565b6138c4614342565b6138d48560800151610100613c97565b508385600001818152505082856020019073ffffffffffffffffffffffffffffffffffffffff16908173ffffffffffffffffffffffffffffffffffffffff16815250508185604001907bffffffffffffffffffffffffffffffffffffffffffffffffffffffff191690817bffffffffffffffffffffffffffffffffffffffffffffffffffffffff191681525050849050949350505050565b6139798260038351613d01565b61398c8183613e4690919063ffffffff16565b505050565b7fffffffffffffffffffffffffffffffffffffffffffffffff00000000000000008112156139c8576139c38282613e68565b613a3a565b67ffffffffffffffff8113156139e7576139e28282613edf565b613a39565b60008112613a00576139fb82600083613d01565b613a38565b613a37826001837fffffffffffffffffffffffffffffffffffffffffffffffffffffffffffffffff613a329190615ea4565b613d01565b5b5b5b5050565b600030600554604051602001613a55929190615fb3565b604051602081830303815290604052805190602001209050600554856060018181525050856006600083815260200190815260200160002060006101000a81548173ffffffffffffffffffffffffffffffffffffffff021916908373ffffffffffffffffffffffffffffffffffffffff160217905550807fb5e6e01e79f91267dc17b4e6314d5d4d03593d2ceee0fbb452b750bd70ea5af960405160405180910390a2600082600080886000015189602001518a604001518b606001518a8d6080015160000151604051602401613b3398979695949392919061605e565b604051602081830303815290604052907bffffffffffffffffffffffffffffffffffffffffffffffffffffffff19166020820180517bffffffffffffffffffffffffffffffffffffffffffffffffffffffff83818316178352505050509050600360009054906101000a900473ffffffffffffffffffffffffffffffffffffffff1673ffffffffffffffffffffffffffffffffffffffff16634000aea08887846040518463ffffffff1660e01b8152600401613bf1939291906160e3565b6020604051808303816000875af1158015613c10573d6000803e3d6000fd5b505050506040513d601f19601f82011682018060405250810190613c349190615b87565b613c73576040517f08c379a0000000000000000000000000000000000000000000000000000000008152600401613c6a90616193565b60405180910390fd5b600160056000828254613c869190614fbe565b925050819055505095945050505050565b613c9f6143af565b6000602083613cae91906161b3565b14613cda57602082613cc091906161b3565b6020613ccc9190615398565b82613cd79190614fbe565b91505b81836020018181525050604051808452600081528281016020016040525082905092915050565b60178111613d2e57613d288160058460ff16901b60ff161784613f2b90919063ffffffff16565b50613e41565b60ff8111613d7057613d53601860058460ff16901b1784613f2b90919063ffffffff16565b50613d6a81600185613f4b9092919063ffffffff16565b50613e40565b61ffff8111613db357613d96601960058460ff16901b1784613f2b90919063ffffffff16565b50613dad81600285613f4b9092919063ffffffff16565b50613e3f565b63ffffffff8111613df857613ddb601a60058460ff16901b1784613f2b90919063ffffffff16565b50613df281600485613f4b9092919063ffffffff16565b50613e3e565b67ffffffffffffffff8111613e3d57613e24601b60058460ff16901b1784613f2b90919063ffffffff16565b50613e3b81600885613f4b9092919063ffffffff16565b505b5b5b5b5b505050565b613e4e6143af565b613e6083846000015151848551613f6d565b905092915050565b613e8660036005600660ff16901b1783613f2b90919063ffffffff16565b50613edb82827fffffffffffffffffffffffffffffffffffffffffffffffffffffffffffffffff613eb79190615ea4565b604051602001613ec79190614b68565b60405160208183030381529060405261405c565b5050565b613efd60026005600660ff16901b1783613f2b90919063ffffffff16565b50613f278282604051602001613f139190614b68565b60405160208183030381529060405261405c565b5050565b613f336143af565b613f438384600001515184614081565b905092915050565b613f536143af565b613f648485600001515185856140d8565b90509392505050565b613f756143af565b8251821115613f8357600080fd5b84602001518285613f949190614fbe565b1115613fc957613fc8856002613fb988602001518887613fb49190614fbe565b614166565b613fc3919061567b565b614182565b5b600080865180518760208301019350808887011115613fe85787860182525b60208701925050505b6020841061402f578051825260208261400a9190614fbe565b91506020816140199190614fbe565b90506020846140289190615398565b9350613ff1565b60006001856020036101000a03905080198251168184511681811785525050508692505050949350505050565b6140698260028351613d01565b61407c8183613e4690919063ffffffff16565b505050565b6140896143af565b836020015183106140af576140ae84600286602001516140a9919061567b565b614182565b5b83518051602085830101848153818614156140cb576001820183525b5050508390509392505050565b6140e06143af565b846020015184836140f19190614fbe565b11156141195761411885600286856141099190614fbe565b614113919061567b565b614182565b5b600060018361010061412b9190615630565b6141359190615398565b905085518386820101858319825116178152815185880111156141585784870182525b505085915050949350505050565b6000818311156141785782905061417c565b8190505b92915050565b6000826000015190506141958383613c97565b506141a08382613e46565b50505050565b60405180610180016040528060008152602001600073ffffffffffffffffffffffffffffffffffffffff1681526020016000815260200160608152602001600073ffffffffffffffffffffffffffffffffffffffff168152602001600073ffffffffffffffffffffffffffffffffffffffff1681526020016000815260200160008152602001600081526020016000815260200160008152602001606081525090565b6040518061010001604052806000815260200160008152602001600073ffffffffffffffffffffffffffffffffffffffff16815260200160001515815260200160008152602001600073ffffffffffffffffffffffffffffffffffffffff16815260200160008152602001600081525090565b8280546142c8906150bb565b90600052602060002090601f0160209004810192826142ea5760008555614331565b82601f1061430357805160ff1916838001178555614331565b82800160010185558215614331579182015b82811115614330578251825591602001919060010190614315565b5b50905061433e91906143c9565b5090565b6040518060a0016040528060008019168152602001600073ffffffffffffffffffffffffffffffffffffffff16815260200160007bffffffffffffffffffffffffffffffffffffffffffffffffffffffff19168152602001600081526020016143a96143af565b81525090565b604051806040016040528060608152602001600081525090565b5b808211156143e25760008160009055506001016143ca565b5090565b600081519050919050565b600082825260208201905092915050565b6000819050602082019050919050565b6000819050919050565b61442581614412565b82525050565b6000614437838361441c565b60208301905092915050565b6000602082019050919050565b600061445b826143e6565b61446581856143f1565b935061447083614402565b8060005b838110156144a1578151614488888261442b565b975061449383614443565b925050600181019050614474565b5085935050505092915050565b600060208201905081810360008301526144c88184614450565b905092915050565b600073ffffffffffffffffffffffffffffffffffffffff82169050919050565b60006144fb826144d0565b9050919050565b61450b816144f0565b82525050565b60006020820190506145266000830184614502565b92915050565b60008115159050919050565b6145418161452c565b82525050565b600060208201905061455c6000830184614538565b92915050565b600081519050919050565b600082825260208201905092915050565b6000819050602082019050919050565b614597816144f0565b82525050565b600081519050919050565b600082825260208201905092915050565b60005b838110156145d75780820151818401526020810190506145bc565b838111156145e6576000848401525b50505050565b6000601f19601f8301169050919050565b60006146088261459d565b61461281856145a8565b93506146228185602086016145b9565b61462b816145ec565b840191505092915050565b6000614641826144d0565b9050919050565b61465181614636565b82525050565b600081519050919050565b600082825260208201905092915050565b6000819050602082019050919050565b600061468f838361458e565b60208301905092915050565b6000602082019050919050565b60006146b382614657565b6146bd8185614662565b93506146c883614673565b8060005b838110156146f95781516146e08882614683565b97506146eb8361469b565b9250506001810190506146cc565b5085935050505092915050565b60006101808301600083015161471f600086018261441c565b506020830151614732602086018261458e565b506040830151614745604086018261441c565b506060830151848203606086015261475d82826145fd565b91505060808301516147726080860182614648565b5060a083015161478560a0860182614648565b5060c083015161479860c086018261441c565b5060e08301516147ab60e086018261441c565b506101008301516147c061010086018261441c565b506101208301516147d561012086018261441c565b506101408301516147ea61014086018261441c565b5061016083015184820361016086015261480482826146a8565b9150508091505092915050565b600061481d8383614706565b905092915050565b6000602082019050919050565b600061483d82614562565b614847818561456d565b9350836020820285016148598561457e565b8060005b8581101561489557848403895281516148768582614811565b945061488183614825565b925060208a0199505060018101905061485d565b50829750879550505050505092915050565b600060208201905081810360008301526148c18184614832565b905092915050565b6000604051905090565b600080fd5b600080fd5b6000819050919050565b6148f0816148dd565b81146148fb57600080fd5b50565b60008135905061490d816148e7565b92915050565b61491c81614412565b811461492757600080fd5b50565b60008135905061493981614913565b92915050565b60008060408385031215614956576149556148d3565b5b6000614964858286016148fe565b92505060206149758582860161492a565b9150509250929050565b600060208284031215614995576149946148d3565b5b60006149a38482850161492a565b91505092915050565b6149b5816148dd565b82525050565b60006020820190506149d060008301846149ac565b92915050565b600081519050919050565b600082825260208201905092915050565b6000819050602082019050919050565b614a0b8161452c565b82525050565b61010082016000820151614a28600085018261441c565b506020820151614a3b602085018261441c565b506040820151614a4e604085018261458e565b506060820151614a616060850182614a02565b506080820151614a74608085018261441c565b5060a0820151614a8760a085018261458e565b5060c0820151614a9a60c085018261441c565b5060e0820151614aad60e085018261441c565b50505050565b6000614abf8383614a11565b6101008301905092915050565b6000602082019050919050565b6000614ae4826149d6565b614aee81856149e1565b9350614af9836149f2565b8060005b83811015614b2a578151614b118882614ab3565b9750614b1c83614acc565b925050600181019050614afd565b5085935050505092915050565b60006020820190508181036000830152614b518184614ad9565b905092915050565b614b6281614412565b82525050565b6000602082019050614b7d6000830184614b59565b92915050565b60008060008060808587031215614b9d57614b9c6148d3565b5b6000614bab8782880161492a565b9450506020614bbc8782880161492a565b9350506040614bcd8782880161492a565b9250506060614bde8782880161492a565b91505092959194509250565b614bf3816144f0565b8114614bfe57600080fd5b50565b600081359050614c1081614bea565b92915050565b600080fd5b600080fd5b7f4e487b7100000000000000000000000000000000000000000000000000000000600052604160045260246000fd5b614c58826145ec565b810181811067ffffffffffffffff82111715614c7757614c76614c20565b5b80604052505050565b6000614c8a6148c9565b9050614c968282614c4f565b919050565b600067ffffffffffffffff821115614cb657614cb5614c20565b5b614cbf826145ec565b9050602081019050919050565b82818337600083830152505050565b6000614cee614ce984614c9b565b614c80565b905082815260208101848484011115614d0a57614d09614c1b565b5b614d15848285614ccc565b509392505050565b600082601f830112614d3257614d31614c16565b5b8135614d42848260208601614cdb565b91505092915050565b60008060008060808587031215614d6557614d646148d3565b5b6000614d7387828801614c01565b9450506020614d848782880161492a565b935050604085013567ffffffffffffffff811115614da557614da46148d8565b5b614db187828801614d1d565b9250506060614dc28782880161492a565b91505092959194509250565b60008060008060808587031215614de857614de76148d3565b5b6000614df68782880161492a565b9450506020614e078782880161492a565b9350506040614e1887828801614c01565b9250506060614e298782880161492a565b91505092959194509250565b600061018083016000830151614e4e600086018261441c565b506020830151614e61602086018261458e565b506040830151614e74604086018261441c565b5060608301518482036060860152614e8c82826145fd565b9150506080830151614ea16080860182614648565b5060a0830151614eb460a0860182614648565b5060c0830151614ec760c086018261441c565b5060e0830151614eda60e086018261441c565b50610100830151614eef61010086018261441c565b50610120830151614f0461012086018261441c565b50610140830151614f1961014086018261441c565b50610160830151848203610160860152614f3382826146a8565b9150508091505092915050565b60006020820190508181036000830152614f5a8184614e35565b905092915050565b600060208284031215614f7857614f776148d3565b5b6000614f8684828501614c01565b91505092915050565b7f4e487b7100000000000000000000000000000000000000000000000000000000600052601160045260246000fd5b6000614fc982614412565b9150614fd483614412565b9250827fffffffffffffffffffffffffffffffffffffffffffffffffffffffffffffffff0382111561500957615008614f8f565b5b828201905092915050565b600061501f82614412565b91507fffffffffffffffffffffffffffffffffffffffffffffffffffffffffffffffff82141561505257615051614f8f565b5b600182019050919050565b7f4e487b7100000000000000000000000000000000000000000000000000000000600052603260045260246000fd5b7f4e487b7100000000000000000000000000000000000000000000000000000000600052602260045260246000fd5b600060028204905060018216806150d357607f821691505b602082108114156150e7576150e661508c565b5b50919050565b600082825260208201905092915050565b7f536f75726365206d75737420626520746865206f7261636c65206f662074686560008201527f2072657175657374000000000000000000000000000000000000000000000000602082015250565b600061515a6028836150ed565b9150615165826150fe565b604082019050919050565b600060208201905081810360008301526151898161514d565b9050919050565b7f4e487b7100000000000000000000000000000000000000000000000000000000600052601260045260246000fd5b60006151ca82614412565b91506151d583614412565b9250826151e5576151e4615190565b5b828204905092915050565b600082825260208201905092915050565b7f3078303000000000000000000000000000000000000000000000000000000000600082015250565b60006152376004836151f0565b915061524282615201565b602082019050919050565b60006080820190506152626000830186614502565b61526f6020830185614b59565b61527c6040830184614b59565b818103606083015261528d8161522a565b9050949350505050565b600081905092915050565b60008190508160005260206000209050919050565b600081546152c4816150bb565b6152ce8186615297565b945060018216600081146152e957600181146152fa5761532d565b60ff1983168652818601935061532d565b615303856152a2565b60005b8381101561532557815481890152600182019150602081019050615306565b838801955050505b50505092915050565b60006153418261459d565b61534b8185615297565b935061535b8185602086016145b9565b80840191505092915050565b600061537382866152b7565b915061537f8285615336565b915061538b82846152b7565b9150819050949350505050565b60006153a382614412565b91506153ae83614412565b9250828210156153c1576153c0614f8f565b5b828203905092915050565b7f56616c7565206d757374206d6174636820746865207072696365000000000000600082015250565b6000615402601a836150ed565b915061540d826153cc565b602082019050919050565b60006020820190508181036000830152615431816153f5565b9050919050565b6000819050919050565b600061545d615458615453846144d0565b615438565b6144d0565b9050919050565b600061546f82615442565b9050919050565b600061548182615464565b9050919050565b61549181615476565b82525050565b60006060820190506154ac6000830186615488565b6154b96020830185614502565b6154c66040830184614b59565b949350505050565b7f4e487b7100000000000000000000000000000000000000000000000000000000600052600160045260246000fd5b60008160011c9050919050565b6000808291508390505b6001851115615554578086048111156155305761552f614f8f565b5b600185161561553f5780820291505b808102905061554d856154fd565b9450615514565b94509492505050565b60008261556d5760019050615629565b8161557b5760009050615629565b8160018114615591576002811461559b576155ca565b6001915050615629565b60ff8411156155ad576155ac614f8f565b5b8360020a9150848211156155c4576155c3614f8f565b5b50615629565b5060208310610133831016604e8410600b84101617156155ff5782820a9050838111156155fa576155f9614f8f565b5b615629565b61560c848484600161550a565b9250905081840481111561562357615622614f8f565b5b81810290505b9392505050565b600061563b82614412565b915061564683614412565b92506156737fffffffffffffffffffffffffffffffffffffffffffffffffffffffffffffffff848461555d565b905092915050565b600061568682614412565b915061569183614412565b9250817fffffffffffffffffffffffffffffffffffffffffffffffffffffffffffffffff04831182151516156156ca576156c9614f8f565b5b828202905092915050565b7f5072696365206d75737420626520686967686572207468616e20300000000000600082015250565b600061570b601b836150ed565b9150615716826156d5565b602082019050919050565b6000602082019050818103600083015261573a816156fe565b9050919050565b60008151905061575081614bea565b92915050565b60006020828403121561576c5761576b6148d3565b5b600061577a84828501615741565b91505092915050565b7f4f6e6c7920746865206f776e65722063616e206c69737420746865204e465400600082015250565b60006157b9601f836150ed565b91506157c482615783565b602082019050919050565b600060208201905081810360008301526157e8816157ac565b9050919050565b60006080820190506158046000830187614502565b6158116020830186614502565b61581e6040830185614b59565b61582b6060830184614b59565b95945050505050565b7f4f776e61626c653a2063616c6c6572206973206e6f7420746865206f776e6572600082015250565b600061586a6020836150ed565b915061587582615834565b602082019050919050565b600060208201905081810360008301526158998161585d565b9050919050565b7f416d6f756e74206d75737420626520686967686572207468616e203000000000600082015250565b60006158d6601c836150ed565b91506158e1826158a0565b602082019050919050565b60006020820190508181036000830152615905816158c9565b9050919050565b60008151905061591b81614913565b92915050565b600060208284031215615937576159366148d3565b5b60006159458482850161590c565b91505092915050565b7f42616c616e6365206d757374206265206174206c6561737420657175616c207460008201527f6f2074686520616d6f756e740000000000000000000000000000000000000000602082015250565b60006159aa602c836150ed565b91506159b58261594e565b604082019050919050565b600060208201905081810360008301526159d98161599d565b9050919050565b7f5573657220697320616c726561647920626f6e64656400000000000000000000600082015250565b6000615a166016836150ed565b9150615a21826159e0565b602082019050919050565b60006020820190508181036000830152615a4581615a09565b9050919050565b7f546865204e465420686173206265656e20616c726561647920626f7567687400600082015250565b6000615a82601f836150ed565b9150615a8d82615a4c565b602082019050919050565b60006020820190508181036000830152615ab181615a75565b9050919050565b7f49636f6e4964206d757374206265206c657373207468616e2034000000000000600082015250565b6000615aee601a836150ed565b9150615af982615ab8565b602082019050919050565b60006020820190508181036000830152615b1d81615ae1565b9050919050565b6000606082019050615b396000830186614502565b615b466020830185614502565b615b536040830184614b59565b949350505050565b615b648161452c565b8114615b6f57600080fd5b50565b600081519050615b8181615b5b565b92915050565b600060208284031215615b9d57615b9c6148d3565b5b6000615bab84828501615b72565b91505092915050565b600060e082019050615bc9600083018a614b59565b615bd66020830189614b59565b615be36040830188614502565b615bf06060830187614538565b615bfd6080830186614502565b615c0a60a08301856149ac565b615c1760c0830184614b59565b98975050505050505050565b7f55736572206973206e6f7420626f6e6400000000000000000000000000000000600082015250565b6000615c596010836150ed565b9150615c6482615c23565b602082019050919050565b60006020820190508181036000830152615c8881615c4c565b9050919050565b7f546865204e465420686173206e6f74206265656e20736f6c6420796574000000600082015250565b6000615cc5601d836150ed565b9150615cd082615c8f565b602082019050919050565b60006020820190508181036000830152615cf481615cb8565b9050919050565b6000606082019050615d106000830186614502565b615d1d6020830185614b59565b615d2a6040830184614b59565b949350505050565b6000604082019050615d476000830185614b59565b615d546020830184614502565b9392505050565b7f4f776e61626c653a206e6577206f776e657220697320746865207a65726f206160008201527f6464726573730000000000000000000000000000000000000000000000000000602082015250565b6000615db76026836150ed565b9150615dc282615d5b565b604082019050919050565b60006020820190508181036000830152615de681615daa565b9050919050565b6000615df88261459d565b615e0281856150ed565b9350615e128185602086016145b9565b615e1b816145ec565b840191505092915050565b60006040820190508181036000830152615e408185615ded565b9050615e4f6020830184614b59565b9392505050565b600060ff82169050919050565b6000615e6e82615e56565b9150615e7983615e56565b92508260ff03821115615e8f57615e8e614f8f565b5b828201905092915050565b6000819050919050565b6000615eaf82615e9a565b9150615eba83615e9a565b9250827f800000000000000000000000000000000000000000000000000000000000000001821260008412151615615ef557615ef4614f8f565b5b827f7fffffffffffffffffffffffffffffffffffffffffffffffffffffffffffffff018213600084121615615f2d57615f2c614f8f565b5b828203905092915050565b6000615f4382615464565b9050919050565b60008160601b9050919050565b6000615f6282615f4a565b9050919050565b6000615f7482615f57565b9050919050565b615f8c615f8782615f38565b615f69565b82525050565b6000819050919050565b615fad615fa882614412565b615f92565b82525050565b6000615fbf8285615f7b565b601482019150615fcf8284615f9c565b6020820191508190509392505050565b60007fffffffff0000000000000000000000000000000000000000000000000000000082169050919050565b61601481615fdf565b82525050565b600081519050919050565b60006160308261601a565b61603a81856151f0565b935061604a8185602086016145b9565b616053816145ec565b840191505092915050565b600061010082019050616074600083018b614502565b616081602083018a614b59565b61608e60408301896149ac565b61609b6060830188614502565b6160a8608083018761600b565b6160b560a0830186614b59565b6160c260c0830185614b59565b81810360e08301526160d48184616025565b90509998505050505050505050565b60006060820190506160f86000830186614502565b6161056020830185614b59565b81810360408301526161178184616025565b9050949350505050565b7f756e61626c6520746f207472616e73666572416e6443616c6c20746f206f726160008201527f636c650000000000000000000000000000000000000000000000000000000000602082015250565b600061617d6023836150ed565b915061618882616121565b604082019050919050565b600060208201905081810360008301526161ac81616170565b9050919050565b60006161be82614412565b91506161c983614412565b9250826161d9576161d8615190565b5b82820690509291505056fea2646970667358221220b2f40426dbc5d32c05f837196345dbc8a5ad943bbacd545bf58f3dbe57f1c17564736f6c634300080a00334465706c6f79696e672061204d61726b6574706c6163652077697468206375726174696f6e206665653a",
  "linkReferences": {},
  "deployedLinkReferences": {}
}