{
  "_format": "hh-sol-artifact-1",
  "contractName": "NFT",
  "sourceName": "contracts/SampleERC721URI.sol",
  "abi": [
    {
      "inputs": [
        {
          "internalType": "string",
          "name": "_name",
          "type": "string"
        },
        {
          "internalType": "string",
          "name": "_symbol",
          "type": "string"
        },
        {
          "internalType": "string",
          "name": "_initBaseURI",
          "type": "string"
        }
      ],
      "stateMutability": "nonpayable",
      "type": "constructor"
    },
    {
      "anonymous": false,
      "inputs": [
        {
          "indexed": true,
          "internalType": "address",
          "name": "owner",
          "type": "address"
        },
        {
          "indexed": true,
          "internalType": "address",
          "name": "approved",
          "type": "address"
        },
        {
          "indexed": true,
          "internalType": "uint256",
          "name": "tokenId",
          "type": "uint256"
        }
      ],
      "name": "Approval",
      "type": "event"
    },
    {
      "anonymous": false,
      "inputs": [
        {
          "indexed": true,
          "internalType": "address",
          "name": "owner",
          "type": "address"
        },
        {
          "indexed": true,
          "internalType": "address",
          "name": "operator",
          "type": "address"
        },
        {
          "indexed": false,
          "internalType": "bool",
          "name": "approved",
          "type": "bool"
        }
      ],
      "name": "ApprovalForAll",
      "type": "event"
    },
    {
      "anonymous": false,
      "inputs": [
        {
          "indexed": true,
          "internalType": "address",
          "name": "previousOwner",
          "type": "address"
        },
        {
          "indexed": true,
          "internalType": "address",
          "name": "newOwner",
          "type": "address"
        }
      ],
      "name": "OwnershipTransferred",
      "type": "event"
    },
    {
      "anonymous": false,
      "inputs": [
        {
          "indexed": true,
          "internalType": "address",
          "name": "from",
          "type": "address"
        },
        {
          "indexed": true,
          "internalType": "address",
          "name": "to",
          "type": "address"
        },
        {
          "indexed": true,
          "internalType": "uint256",
          "name": "tokenId",
          "type": "uint256"
        }
      ],
      "name": "Transfer",
      "type": "event"
    },
    {
      "inputs": [
        {
          "internalType": "address",
          "name": "to",
          "type": "address"
        },
        {
          "internalType": "uint256",
          "name": "tokenId",
          "type": "uint256"
        }
      ],
      "name": "approve",
      "outputs": [],
      "stateMutability": "nonpayable",
      "type": "function"
    },
    {
      "inputs": [
        {
          "internalType": "address",
          "name": "owner",
          "type": "address"
        }
      ],
      "name": "balanceOf",
      "outputs": [
        {
          "internalType": "uint256",
          "name": "",
          "type": "uint256"
        }
      ],
      "stateMutability": "view",
      "type": "function"
    },
    {
      "inputs": [],
      "name": "baseExtension",
      "outputs": [
        {
          "internalType": "string",
          "name": "",
          "type": "string"
        }
      ],
      "stateMutability": "view",
      "type": "function"
    },
    {
      "inputs": [],
      "name": "baseURI",
      "outputs": [
        {
          "internalType": "string",
          "name": "",
          "type": "string"
        }
      ],
      "stateMutability": "view",
      "type": "function"
    },
    {
      "inputs": [],
      "name": "cost",
      "outputs": [
        {
          "internalType": "uint256",
          "name": "",
          "type": "uint256"
        }
      ],
      "stateMutability": "view",
      "type": "function"
    },
    {
      "inputs": [
        {
          "internalType": "uint256",
          "name": "tokenId",
          "type": "uint256"
        }
      ],
      "name": "getApproved",
      "outputs": [
        {
          "internalType": "address",
          "name": "",
          "type": "address"
        }
      ],
      "stateMutability": "view",
      "type": "function"
    },
    {
      "inputs": [
        {
          "internalType": "address",
          "name": "owner",
          "type": "address"
        },
        {
          "internalType": "address",
          "name": "operator",
          "type": "address"
        }
      ],
      "name": "isApprovedForAll",
      "outputs": [
        {
          "internalType": "bool",
          "name": "",
          "type": "bool"
        }
      ],
      "stateMutability": "view",
      "type": "function"
    },
    {
      "inputs": [],
      "name": "maxMintAmount",
      "outputs": [
        {
          "internalType": "uint256",
          "name": "",
          "type": "uint256"
        }
      ],
      "stateMutability": "view",
      "type": "function"
    },
    {
      "inputs": [],
      "name": "maxSupply",
      "outputs": [
        {
          "internalType": "uint256",
          "name": "",
          "type": "uint256"
        }
      ],
      "stateMutability": "view",
      "type": "function"
    },
    {
      "inputs": [
        {
          "internalType": "address",
          "name": "_to",
          "type": "address"
        },
        {
          "internalType": "uint256",
          "name": "_mintAmount",
          "type": "uint256"
        }
      ],
      "name": "mint",
      "outputs": [],
      "stateMutability": "payable",
      "type": "function"
    },
    {
      "inputs": [],
      "name": "name",
      "outputs": [
        {
          "internalType": "string",
          "name": "",
          "type": "string"
        }
      ],
      "stateMutability": "view",
      "type": "function"
    },
    {
      "inputs": [],
      "name": "owner",
      "outputs": [
        {
          "internalType": "address",
          "name": "",
          "type": "address"
        }
      ],
      "stateMutability": "view",
      "type": "function"
    },
    {
      "inputs": [
        {
          "internalType": "uint256",
          "name": "tokenId",
          "type": "uint256"
        }
      ],
      "name": "ownerOf",
      "outputs": [
        {
          "internalType": "address",
          "name": "",
          "type": "address"
        }
      ],
      "stateMutability": "view",
      "type": "function"
    },
    {
      "inputs": [],
      "name": "renounceOwnership",
      "outputs": [],
      "stateMutability": "nonpayable",
      "type": "function"
    },
    {
      "inputs": [
        {
          "internalType": "address",
          "name": "from",
          "type": "address"
        },
        {
          "internalType": "address",
          "name": "to",
          "type": "address"
        },
        {
          "internalType": "uint256",
          "name": "tokenId",
          "type": "uint256"
        }
      ],
      "name": "safeTransferFrom",
      "outputs": [],
      "stateMutability": "nonpayable",
      "type": "function"
    },
    {
      "inputs": [
        {
          "internalType": "address",
          "name": "from",
          "type": "address"
        },
        {
          "internalType": "address",
          "name": "to",
          "type": "address"
        },
        {
          "internalType": "uint256",
          "name": "tokenId",
          "type": "uint256"
        },
        {
          "internalType": "bytes",
          "name": "_data",
          "type": "bytes"
        }
      ],
      "name": "safeTransferFrom",
      "outputs": [],
      "stateMutability": "nonpayable",
      "type": "function"
    },
    {
      "inputs": [
        {
          "internalType": "address",
          "name": "operator",
          "type": "address"
        },
        {
          "internalType": "bool",
          "name": "approved",
          "type": "bool"
        }
      ],
      "name": "setApprovalForAll",
      "outputs": [],
      "stateMutability": "nonpayable",
      "type": "function"
    },
    {
      "inputs": [
        {
          "internalType": "string",
          "name": "_newBaseExtension",
          "type": "string"
        }
      ],
      "name": "setBaseExtension",
      "outputs": [],
      "stateMutability": "nonpayable",
      "type": "function"
    },
    {
      "inputs": [
        {
          "internalType": "string",
          "name": "_newBaseURI",
          "type": "string"
        }
      ],
      "name": "setBaseURI",
      "outputs": [],
      "stateMutability": "nonpayable",
      "type": "function"
    },
    {
      "inputs": [
        {
          "internalType": "uint256",
          "name": "_newCost",
          "type": "uint256"
        }
      ],
      "name": "setCost",
      "outputs": [],
      "stateMutability": "nonpayable",
      "type": "function"
    },
    {
      "inputs": [
        {
          "internalType": "uint256",
          "name": "_newmaxMintAmount",
          "type": "uint256"
        }
      ],
      "name": "setmaxMintAmount",
      "outputs": [],
      "stateMutability": "nonpayable",
      "type": "function"
    },
    {
      "inputs": [
        {
          "internalType": "bytes4",
          "name": "interfaceId",
          "type": "bytes4"
        }
      ],
      "name": "supportsInterface",
      "outputs": [
        {
          "internalType": "bool",
          "name": "",
          "type": "bool"
        }
      ],
      "stateMutability": "view",
      "type": "function"
    },
    {
      "inputs": [],
      "name": "symbol",
      "outputs": [
        {
          "internalType": "string",
          "name": "",
          "type": "string"
        }
      ],
      "stateMutability": "view",
      "type": "function"
    },
    {
      "inputs": [
        {
          "internalType": "uint256",
          "name": "index",
          "type": "uint256"
        }
      ],
      "name": "tokenByIndex",
      "outputs": [
        {
          "internalType": "uint256",
          "name": "",
          "type": "uint256"
        }
      ],
      "stateMutability": "view",
      "type": "function"
    },
    {
      "inputs": [
        {
          "internalType": "address",
          "name": "owner",
          "type": "address"
        },
        {
          "internalType": "uint256",
          "name": "index",
          "type": "uint256"
        }
      ],
      "name": "tokenOfOwnerByIndex",
      "outputs": [
        {
          "internalType": "uint256",
          "name": "",
          "type": "uint256"
        }
      ],
      "stateMutability": "view",
      "type": "function"
    },
    {
      "inputs": [
        {
          "internalType": "uint256",
          "name": "tokenId",
          "type": "uint256"
        }
      ],
      "name": "tokenURI",
      "outputs": [
        {
          "internalType": "string",
          "name": "",
          "type": "string"
        }
      ],
      "stateMutability": "view",
      "type": "function"
    },
    {
      "inputs": [],
      "name": "totalSupply",
      "outputs": [
        {
          "internalType": "uint256",
          "name": "",
          "type": "uint256"
        }
      ],
      "stateMutability": "view",
      "type": "function"
    },
    {
      "inputs": [
        {
          "internalType": "address",
          "name": "from",
          "type": "address"
        },
        {
          "internalType": "address",
          "name": "to",
          "type": "address"
        },
        {
          "internalType": "uint256",
          "name": "tokenId",
          "type": "uint256"
        }
      ],
      "name": "transferFrom",
      "outputs": [],
      "stateMutability": "nonpayable",
      "type": "function"
    },
    {
      "inputs": [
        {
          "internalType": "address",
          "name": "newOwner",
          "type": "address"
        }
      ],
      "name": "transferOwnership",
      "outputs": [],
      "stateMutability": "nonpayable",
      "type": "function"
    },
    {
      "inputs": [
        {
          "internalType": "address",
          "name": "_owner",
          "type": "address"
        }
      ],
      "name": "walletOfOwner",
      "outputs": [
        {
          "internalType": "uint256[]",
          "name": "",
          "type": "uint256[]"
        }
      ],
      "stateMutability": "view",
      "type": "function"
    }
  ],
  "bytecode": "0x60806040526040518060400160405280600581526020017f2e6a736f6e000000000000000000000000000000000000000000000000000000815250600c90805190602001906200005192919062000d21565b5066b1a2bc2ec50000600d55612710600e556014600f553480156200007557600080fd5b50604051620054273803806200542783398181016040528101906200009b919062000f6e565b82828160009080519060200190620000b592919062000d21565b508060019080519060200190620000ce92919062000d21565b505050620000f1620000e56200011e60201b60201c565b6200012660201b60201c565b6200010281620001ec60201b60201c565b620001153360016200029760201b60201c565b50505062001636565b600033905090565b6000600a60009054906101000a900473ffffffffffffffffffffffffffffffffffffffff16905081600a60006101000a81548173ffffffffffffffffffffffffffffffffffffffff021916908373ffffffffffffffffffffffffffffffffffffffff1602179055508173ffffffffffffffffffffffffffffffffffffffff168173ffffffffffffffffffffffffffffffffffffffff167f8be0079c531659141344cd1fd0a4f28419497f9722a3daafe3b4186f6b6457e060405160405180910390a35050565b620001fc6200011e60201b60201c565b73ffffffffffffffffffffffffffffffffffffffff16620002226200031260201b60201c565b73ffffffffffffffffffffffffffffffffffffffff16146200027b576040517f08c379a0000000000000000000000000000000000000000000000000000000008152600401620002729062001088565b60405180910390fd5b80600b90805190602001906200029392919062000d21565b5050565b6000620002a96200033c60201b60201c565b9050600e548282620002bc9190620010e3565b1115620002c857600080fd5b6000600190505b8281116200030c57620002f6848284620002ea9190620010e3565b6200034960201b60201c565b8080620003039062001140565b915050620002cf565b50505050565b6000600a60009054906101000a900473ffffffffffffffffffffffffffffffffffffffff16905090565b6000600880549050905090565b6200036b8282604051806020016040528060008152506200036f60201b60201c565b5050565b620003818383620003dd60201b60201c565b620003966000848484620005c360201b60201c565b620003d8576040517f08c379a0000000000000000000000000000000000000000000000000000000008152600401620003cf9062001204565b60405180910390fd5b505050565b600073ffffffffffffffffffffffffffffffffffffffff168273ffffffffffffffffffffffffffffffffffffffff16141562000450576040517f08c379a0000000000000000000000000000000000000000000000000000000008152600401620004479062001276565b60405180910390fd5b62000461816200076d60201b60201c565b15620004a4576040517f08c379a00000000000000000000000000000000000000000000000000000000081526004016200049b90620012e8565b60405180910390fd5b620004b860008383620007d960201b60201c565b6001600360008473ffffffffffffffffffffffffffffffffffffffff1673ffffffffffffffffffffffffffffffffffffffff16815260200190815260200160002060008282546200050a9190620010e3565b92505081905550816002600083815260200190815260200160002060006101000a81548173ffffffffffffffffffffffffffffffffffffffff021916908373ffffffffffffffffffffffffffffffffffffffff160217905550808273ffffffffffffffffffffffffffffffffffffffff16600073ffffffffffffffffffffffffffffffffffffffff167fddf252ad1be2c89b69c2b068fc378daa952ba7f163c4a11628f55a4df523b3ef60405160405180910390a45050565b6000620005f18473ffffffffffffffffffffffffffffffffffffffff166200092060201b620016d01760201c565b1562000760578373ffffffffffffffffffffffffffffffffffffffff1663150b7a02620006236200011e60201b60201c565b8786866040518563ffffffff1660e01b8152600401620006479493929190620013bd565b6020604051808303816000875af19250505080156200068657506040513d601f19601f820116820180604052508101906200068391906200146e565b60015b6200070f573d8060008114620006b9576040519150601f19603f3d011682016040523d82523d6000602084013e620006be565b606091505b5060008151141562000707576040517f08c379a0000000000000000000000000000000000000000000000000000000008152600401620006fe9062001204565b60405180910390fd5b805181602001fd5b63150b7a0260e01b7bffffffffffffffffffffffffffffffffffffffffffffffffffffffff1916817bffffffffffffffffffffffffffffffffffffffffffffffffffffffff19161491505062000765565b600190505b949350505050565b60008073ffffffffffffffffffffffffffffffffffffffff166002600084815260200190815260200160002060009054906101000a900473ffffffffffffffffffffffffffffffffffffffff1673ffffffffffffffffffffffffffffffffffffffff1614159050919050565b620007f18383836200093360201b620016e31760201c565b600073ffffffffffffffffffffffffffffffffffffffff168373ffffffffffffffffffffffffffffffffffffffff1614156200083e5762000838816200093860201b60201c565b62000886565b8173ffffffffffffffffffffffffffffffffffffffff168373ffffffffffffffffffffffffffffffffffffffff161462000885576200088483826200098160201b60201c565b5b5b600073ffffffffffffffffffffffffffffffffffffffff168273ffffffffffffffffffffffffffffffffffffffff161415620008d357620008cd8162000afe60201b60201c565b6200091b565b8273ffffffffffffffffffffffffffffffffffffffff168273ffffffffffffffffffffffffffffffffffffffff16146200091a5762000919828262000bda60201b60201c565b5b5b505050565b600080823b905060008111915050919050565b505050565b6008805490506009600083815260200190815260200160002081905550600881908060018154018082558091505060019003906000526020600020016000909190919091505550565b600060016200099b8462000c6660201b62000f0b1760201c565b620009a79190620014a0565b905060006007600084815260200190815260200160002054905081811462000a8d576000600660008673ffffffffffffffffffffffffffffffffffffffff1673ffffffffffffffffffffffffffffffffffffffff168152602001908152602001600020600084815260200190815260200160002054905080600660008773ffffffffffffffffffffffffffffffffffffffff1673ffffffffffffffffffffffffffffffffffffffff168152602001908152602001600020600084815260200190815260200160002081905550816007600083815260200190815260200160002081905550505b6007600084815260200190815260200160002060009055600660008573ffffffffffffffffffffffffffffffffffffffff1673ffffffffffffffffffffffffffffffffffffffff16815260200190815260200160002060008381526020019081526020016000206000905550505050565b6000600160088054905062000b149190620014a0565b905060006009600084815260200190815260200160002054905060006008838154811062000b475762000b46620014db565b5b90600052602060002001549050806008838154811062000b6c5762000b6b620014db565b5b90600052602060002001819055508160096000838152602001908152602001600020819055506009600085815260200190815260200160002060009055600880548062000bbe5762000bbd6200150a565b5b6001900381819060005260206000200160009055905550505050565b600062000bf28362000c6660201b62000f0b1760201c565b905081600660008573ffffffffffffffffffffffffffffffffffffffff1673ffffffffffffffffffffffffffffffffffffffff168152602001908152602001600020600083815260200190815260200160002081905550806007600084815260200190815260200160002081905550505050565b60008073ffffffffffffffffffffffffffffffffffffffff168273ffffffffffffffffffffffffffffffffffffffff16141562000cda576040517f08c379a000000000000000000000000000000000000000000000000000000000815260040162000cd190620015af565b60405180910390fd5b600360008373ffffffffffffffffffffffffffffffffffffffff1673ffffffffffffffffffffffffffffffffffffffff168152602001908152602001600020549050919050565b82805462000d2f9062001600565b90600052602060002090601f01602090048101928262000d53576000855562000d9f565b82601f1062000d6e57805160ff191683800117855562000d9f565b8280016001018555821562000d9f579182015b8281111562000d9e57825182559160200191906001019062000d81565b5b50905062000dae919062000db2565b5090565b5b8082111562000dcd57600081600090555060010162000db3565b5090565b6000604051905090565b600080fd5b600080fd5b600080fd5b600080fd5b6000601f19601f8301169050919050565b7f4e487b7100000000000000000000000000000000000000000000000000000000600052604160045260246000fd5b62000e3a8262000def565b810181811067ffffffffffffffff8211171562000e5c5762000e5b62000e00565b5b80604052505050565b600062000e7162000dd1565b905062000e7f828262000e2f565b919050565b600067ffffffffffffffff82111562000ea25762000ea162000e00565b5b62000ead8262000def565b9050602081019050919050565b60005b8381101562000eda57808201518184015260208101905062000ebd565b8381111562000eea576000848401525b50505050565b600062000f0762000f018462000e84565b62000e65565b90508281526020810184848401111562000f265762000f2562000dea565b5b62000f3384828562000eba565b509392505050565b600082601f83011262000f535762000f5262000de5565b5b815162000f6584826020860162000ef0565b91505092915050565b60008060006060848603121562000f8a5762000f8962000ddb565b5b600084015167ffffffffffffffff81111562000fab5762000faa62000de0565b5b62000fb98682870162000f3b565b935050602084015167ffffffffffffffff81111562000fdd5762000fdc62000de0565b5b62000feb8682870162000f3b565b925050604084015167ffffffffffffffff8111156200100f576200100e62000de0565b5b6200101d8682870162000f3b565b9150509250925092565b600082825260208201905092915050565b7f4f776e61626c653a2063616c6c6572206973206e6f7420746865206f776e6572600082015250565b60006200107060208362001027565b91506200107d8262001038565b602082019050919050565b60006020820190508181036000830152620010a38162001061565b9050919050565b6000819050919050565b7f4e487b7100000000000000000000000000000000000000000000000000000000600052601160045260246000fd5b6000620010f082620010aa565b9150620010fd83620010aa565b9250827fffffffffffffffffffffffffffffffffffffffffffffffffffffffffffffffff03821115620011355762001134620010b4565b5b828201905092915050565b60006200114d82620010aa565b91507fffffffffffffffffffffffffffffffffffffffffffffffffffffffffffffffff821415620011835762001182620010b4565b5b600182019050919050565b7f4552433732313a207472616e7366657220746f206e6f6e20455243373231526560008201527f63656976657220696d706c656d656e7465720000000000000000000000000000602082015250565b6000620011ec60328362001027565b9150620011f9826200118e565b604082019050919050565b600060208201905081810360008301526200121f81620011dd565b9050919050565b7f4552433732313a206d696e7420746f20746865207a65726f2061646472657373600082015250565b60006200125e60208362001027565b91506200126b8262001226565b602082019050919050565b6000602082019050818103600083015262001291816200124f565b9050919050565b7f4552433732313a20746f6b656e20616c7265616479206d696e74656400000000600082015250565b6000620012d0601c8362001027565b9150620012dd8262001298565b602082019050919050565b600060208201905081810360008301526200130381620012c1565b9050919050565b600073ffffffffffffffffffffffffffffffffffffffff82169050919050565b600062001337826200130a565b9050919050565b62001349816200132a565b82525050565b6200135a81620010aa565b82525050565b600081519050919050565b600082825260208201905092915050565b6000620013898262001360565b6200139581856200136b565b9350620013a781856020860162000eba565b620013b28162000def565b840191505092915050565b6000608082019050620013d460008301876200133e565b620013e360208301866200133e565b620013f260408301856200134f565b81810360608301526200140681846200137c565b905095945050505050565b60007fffffffff0000000000000000000000000000000000000000000000000000000082169050919050565b620014488162001411565b81146200145457600080fd5b50565b60008151905062001468816200143d565b92915050565b60006020828403121562001487576200148662000ddb565b5b6000620014978482850162001457565b91505092915050565b6000620014ad82620010aa565b9150620014ba83620010aa565b925082821015620014d057620014cf620010b4565b5b828203905092915050565b7f4e487b7100000000000000000000000000000000000000000000000000000000600052603260045260246000fd5b7f4e487b7100000000000000000000000000000000000000000000000000000000600052603160045260246000fd5b7f4552433732313a2062616c616e636520717565727920666f7220746865207a6560008201527f726f206164647265737300000000000000000000000000000000000000000000602082015250565b600062001597602a8362001027565b9150620015a48262001539565b604082019050919050565b60006020820190508181036000830152620015ca8162001588565b9050919050565b7f4e487b7100000000000000000000000000000000000000000000000000000000600052602260045260246000fd5b600060028204905060018216806200161957607f821691505b6020821081141562001630576200162f620015d1565b5b50919050565b613de180620016466000396000f3fe6080604052600436106101cd5760003560e01c80636352211e116100f7578063a22cb46511610095578063d5abeb0111610064578063d5abeb011461068d578063da3ef23f146106b8578063e985e9c5146106e1578063f2fde38b1461071e576101cd565b8063a22cb465146105d3578063b88d4fde146105fc578063c668286214610625578063c87b56dd14610650576101cd565b8063715018a6116100d1578063715018a61461053d5780637f00c7a6146105545780638da5cb5b1461057d57806395d89b41146105a8576101cd565b80636352211e146104985780636c0360eb146104d557806370a0823114610500576101cd565b806323b872dd1161016f578063438b63001161013e578063438b6300146103cc57806344a0d68a146104095780634f6ccce71461043257806355f804b31461046f576101cd565b806323b872dd146103215780632f745c591461034a57806340c10f191461038757806342842e0e146103a3576101cd565b8063095ea7b3116101ab578063095ea7b31461027757806313faede6146102a057806318160ddd146102cb578063239c70ae146102f6576101cd565b806301ffc9a7146101d257806306fdde031461020f578063081812fc1461023a575b600080fd5b3480156101de57600080fd5b506101f960048036038101906101f491906128a8565b610747565b60405161020691906128f0565b60405180910390f35b34801561021b57600080fd5b506102246107c1565b60405161023191906129a4565b60405180910390f35b34801561024657600080fd5b50610261600480360381019061025c91906129fc565b610853565b60405161026e9190612a6a565b60405180910390f35b34801561028357600080fd5b5061029e60048036038101906102999190612ab1565b6108d8565b005b3480156102ac57600080fd5b506102b56109f0565b6040516102c29190612b00565b60405180910390f35b3480156102d757600080fd5b506102e06109f6565b6040516102ed9190612b00565b60405180910390f35b34801561030257600080fd5b5061030b610a03565b6040516103189190612b00565b60405180910390f35b34801561032d57600080fd5b5061034860048036038101906103439190612b1b565b610a09565b005b34801561035657600080fd5b50610371600480360381019061036c9190612ab1565b610a69565b60405161037e9190612b00565b60405180910390f35b6103a1600480360381019061039c9190612ab1565b610b0e565b005b3480156103af57600080fd5b506103ca60048036038101906103c59190612b1b565b610b70565b005b3480156103d857600080fd5b506103f360048036038101906103ee9190612b6e565b610b90565b6040516104009190612c59565b60405180910390f35b34801561041557600080fd5b50610430600480360381019061042b91906129fc565b610c3e565b005b34801561043e57600080fd5b50610459600480360381019061045491906129fc565b610cc4565b6040516104669190612b00565b60405180910390f35b34801561047b57600080fd5b5061049660048036038101906104919190612db0565b610d35565b005b3480156104a457600080fd5b506104bf60048036038101906104ba91906129fc565b610dcb565b6040516104cc9190612a6a565b60405180910390f35b3480156104e157600080fd5b506104ea610e7d565b6040516104f791906129a4565b60405180910390f35b34801561050c57600080fd5b5061052760048036038101906105229190612b6e565b610f0b565b6040516105349190612b00565b60405180910390f35b34801561054957600080fd5b50610552610fc3565b005b34801561056057600080fd5b5061057b600480360381019061057691906129fc565b61104b565b005b34801561058957600080fd5b506105926110d1565b60405161059f9190612a6a565b60405180910390f35b3480156105b457600080fd5b506105bd6110fb565b6040516105ca91906129a4565b60405180910390f35b3480156105df57600080fd5b506105fa60048036038101906105f59190612e25565b61118d565b005b34801561060857600080fd5b50610623600480360381019061061e9190612f06565b61130e565b005b34801561063157600080fd5b5061063a611370565b60405161064791906129a4565b60405180910390f35b34801561065c57600080fd5b50610677600480360381019061067291906129fc565b6113fe565b60405161068491906129a4565b60405180910390f35b34801561069957600080fd5b506106a26114a8565b6040516106af9190612b00565b60405180910390f35b3480156106c457600080fd5b506106df60048036038101906106da9190612db0565b6114ae565b005b3480156106ed57600080fd5b5061070860048036038101906107039190612f89565b611544565b60405161071591906128f0565b60405180910390f35b34801561072a57600080fd5b5061074560048036038101906107409190612b6e565b6115d8565b005b60007f780e9d63000000000000000000000000000000000000000000000000000000007bffffffffffffffffffffffffffffffffffffffffffffffffffffffff1916827bffffffffffffffffffffffffffffffffffffffffffffffffffffffff191614806107ba57506107b9826116e8565b5b9050919050565b6060600080546107d090612ff8565b80601f01602080910402602001604051908101604052809291908181526020018280546107fc90612ff8565b80156108495780601f1061081e57610100808354040283529160200191610849565b820191906000526020600020905b81548152906001019060200180831161082c57829003601f168201915b5050505050905090565b600061085e826117ca565b61089d576040517f08c379a00000000000000000000000000000000000000000000000000000000081526004016108949061309c565b60405180910390fd5b6004600083815260200190815260200160002060009054906101000a900473ffffffffffffffffffffffffffffffffffffffff169050919050565b60006108e382610dcb565b90508073ffffffffffffffffffffffffffffffffffffffff168373ffffffffffffffffffffffffffffffffffffffff161415610954576040517f08c379a000000000000000000000000000000000000000000000000000000000815260040161094b9061312e565b60405180910390fd5b8073ffffffffffffffffffffffffffffffffffffffff16610973611836565b73ffffffffffffffffffffffffffffffffffffffff1614806109a257506109a18161099c611836565b611544565b5b6109e1576040517f08c379a00000000000000000000000000000000000000000000000000000000081526004016109d8906131c0565b60405180910390fd5b6109eb838361183e565b505050565b600d5481565b6000600880549050905090565b600f5481565b610a1a610a14611836565b826118f7565b610a59576040517f08c379a0000000000000000000000000000000000000000000000000000000008152600401610a5090613252565b60405180910390fd5b610a648383836119d5565b505050565b6000610a7483610f0b565b8210610ab5576040517f08c379a0000000000000000000000000000000000000000000000000000000008152600401610aac906132e4565b60405180910390fd5b600660008473ffffffffffffffffffffffffffffffffffffffff1673ffffffffffffffffffffffffffffffffffffffff168152602001908152602001600020600083815260200190815260200160002054905092915050565b6000610b186109f6565b9050600e548282610b299190613333565b1115610b3457600080fd5b6000600190505b828111610b6a57610b57848284610b529190613333565b611c31565b8080610b6290613389565b915050610b3b565b50505050565b610b8b8383836040518060200160405280600081525061130e565b505050565b60606000610b9d83610f0b565b905060008167ffffffffffffffff811115610bbb57610bba612c85565b5b604051908082528060200260200182016040528015610be95781602001602082028036833780820191505090505b50905060005b82811015610c3357610c018582610a69565b828281518110610c1457610c136133d2565b5b6020026020010181815250508080610c2b90613389565b915050610bef565b508092505050919050565b610c46611836565b73ffffffffffffffffffffffffffffffffffffffff16610c646110d1565b73ffffffffffffffffffffffffffffffffffffffff1614610cba576040517f08c379a0000000000000000000000000000000000000000000000000000000008152600401610cb19061344d565b60405180910390fd5b80600d8190555050565b6000610cce6109f6565b8210610d0f576040517f08c379a0000000000000000000000000000000000000000000000000000000008152600401610d06906134df565b60405180910390fd5b60088281548110610d2357610d226133d2565b5b90600052602060002001549050919050565b610d3d611836565b73ffffffffffffffffffffffffffffffffffffffff16610d5b6110d1565b73ffffffffffffffffffffffffffffffffffffffff1614610db1576040517f08c379a0000000000000000000000000000000000000000000000000000000008152600401610da89061344d565b60405180910390fd5b80600b9080519060200190610dc7929190612799565b5050565b6000806002600084815260200190815260200160002060009054906101000a900473ffffffffffffffffffffffffffffffffffffffff169050600073ffffffffffffffffffffffffffffffffffffffff168173ffffffffffffffffffffffffffffffffffffffff161415610e74576040517f08c379a0000000000000000000000000000000000000000000000000000000008152600401610e6b90613571565b60405180910390fd5b80915050919050565b600b8054610e8a90612ff8565b80601f0160208091040260200160405190810160405280929190818152602001828054610eb690612ff8565b8015610f035780601f10610ed857610100808354040283529160200191610f03565b820191906000526020600020905b815481529060010190602001808311610ee657829003601f168201915b505050505081565b60008073ffffffffffffffffffffffffffffffffffffffff168273ffffffffffffffffffffffffffffffffffffffff161415610f7c576040517f08c379a0000000000000000000000000000000000000000000000000000000008152600401610f7390613603565b60405180910390fd5b600360008373ffffffffffffffffffffffffffffffffffffffff1673ffffffffffffffffffffffffffffffffffffffff168152602001908152602001600020549050919050565b610fcb611836565b73ffffffffffffffffffffffffffffffffffffffff16610fe96110d1565b73ffffffffffffffffffffffffffffffffffffffff161461103f576040517f08c379a00000000000000000000000000000000000000000000000000000000081526004016110369061344d565b60405180910390fd5b6110496000611c4f565b565b611053611836565b73ffffffffffffffffffffffffffffffffffffffff166110716110d1565b73ffffffffffffffffffffffffffffffffffffffff16146110c7576040517f08c379a00000000000000000000000000000000000000000000000000000000081526004016110be9061344d565b60405180910390fd5b80600f8190555050565b6000600a60009054906101000a900473ffffffffffffffffffffffffffffffffffffffff16905090565b60606001805461110a90612ff8565b80601f016020809104026020016040519081016040528092919081815260200182805461113690612ff8565b80156111835780601f1061115857610100808354040283529160200191611183565b820191906000526020600020905b81548152906001019060200180831161116657829003601f168201915b5050505050905090565b611195611836565b73ffffffffffffffffffffffffffffffffffffffff168273ffffffffffffffffffffffffffffffffffffffff161415611203576040517f08c379a00000000000000000000000000000000000000000000000000000000081526004016111fa9061366f565b60405180910390fd5b8060056000611210611836565b73ffffffffffffffffffffffffffffffffffffffff1673ffffffffffffffffffffffffffffffffffffffff16815260200190815260200160002060008473ffffffffffffffffffffffffffffffffffffffff1673ffffffffffffffffffffffffffffffffffffffff16815260200190815260200160002060006101000a81548160ff0219169083151502179055508173ffffffffffffffffffffffffffffffffffffffff166112bd611836565b73ffffffffffffffffffffffffffffffffffffffff167f17307eab39ab6107e8899845ad3d59bd9653f200f220920489ca2b5937696c318360405161130291906128f0565b60405180910390a35050565b61131f611319611836565b836118f7565b61135e576040517f08c379a000000000000000000000000000000000000000000000000000000000815260040161135590613252565b60405180910390fd5b61136a84848484611d15565b50505050565b600c805461137d90612ff8565b80601f01602080910402602001604051908101604052809291908181526020018280546113a990612ff8565b80156113f65780601f106113cb576101008083540402835291602001916113f6565b820191906000526020600020905b8154815290600101906020018083116113d957829003601f168201915b505050505081565b6060611409826117ca565b611448576040517f08c379a000000000000000000000000000000000000000000000000000000000815260040161143f90613701565b60405180910390fd5b6000611452611d71565b9050600081511161147257604051806020016040528060008152506114a0565b8061147c84611e03565b600c604051602001611490939291906137f1565b6040516020818303038152906040525b915050919050565b600e5481565b6114b6611836565b73ffffffffffffffffffffffffffffffffffffffff166114d46110d1565b73ffffffffffffffffffffffffffffffffffffffff161461152a576040517f08c379a00000000000000000000000000000000000000000000000000000000081526004016115219061344d565b60405180910390fd5b80600c9080519060200190611540929190612799565b5050565b6000600560008473ffffffffffffffffffffffffffffffffffffffff1673ffffffffffffffffffffffffffffffffffffffff16815260200190815260200160002060008373ffffffffffffffffffffffffffffffffffffffff1673ffffffffffffffffffffffffffffffffffffffff16815260200190815260200160002060009054906101000a900460ff16905092915050565b6115e0611836565b73ffffffffffffffffffffffffffffffffffffffff166115fe6110d1565b73ffffffffffffffffffffffffffffffffffffffff1614611654576040517f08c379a000000000000000000000000000000000000000000000000000000000815260040161164b9061344d565b60405180910390fd5b600073ffffffffffffffffffffffffffffffffffffffff168173ffffffffffffffffffffffffffffffffffffffff1614156116c4576040517f08c379a00000000000000000000000000000000000000000000000000000000081526004016116bb90613894565b60405180910390fd5b6116cd81611c4f565b50565b600080823b905060008111915050919050565b505050565b60007f80ac58cd000000000000000000000000000000000000000000000000000000007bffffffffffffffffffffffffffffffffffffffffffffffffffffffff1916827bffffffffffffffffffffffffffffffffffffffffffffffffffffffff191614806117b357507f5b5e139f000000000000000000000000000000000000000000000000000000007bffffffffffffffffffffffffffffffffffffffffffffffffffffffff1916827bffffffffffffffffffffffffffffffffffffffffffffffffffffffff1916145b806117c357506117c282611f64565b5b9050919050565b60008073ffffffffffffffffffffffffffffffffffffffff166002600084815260200190815260200160002060009054906101000a900473ffffffffffffffffffffffffffffffffffffffff1673ffffffffffffffffffffffffffffffffffffffff1614159050919050565b600033905090565b816004600083815260200190815260200160002060006101000a81548173ffffffffffffffffffffffffffffffffffffffff021916908373ffffffffffffffffffffffffffffffffffffffff160217905550808273ffffffffffffffffffffffffffffffffffffffff166118b183610dcb565b73ffffffffffffffffffffffffffffffffffffffff167f8c5be1e5ebec7d5bd14f71427d1e84f3dd0314c0f7b2291e5b200ac8c7c3b92560405160405180910390a45050565b6000611902826117ca565b611941576040517f08c379a000000000000000000000000000000000000000000000000000000000815260040161193890613926565b60405180910390fd5b600061194c83610dcb565b90508073ffffffffffffffffffffffffffffffffffffffff168473ffffffffffffffffffffffffffffffffffffffff1614806119bb57508373ffffffffffffffffffffffffffffffffffffffff166119a384610853565b73ffffffffffffffffffffffffffffffffffffffff16145b806119cc57506119cb8185611544565b5b91505092915050565b8273ffffffffffffffffffffffffffffffffffffffff166119f582610dcb565b73ffffffffffffffffffffffffffffffffffffffff1614611a4b576040517f08c379a0000000000000000000000000000000000000000000000000000000008152600401611a42906139b8565b60405180910390fd5b600073ffffffffffffffffffffffffffffffffffffffff168273ffffffffffffffffffffffffffffffffffffffff161415611abb576040517f08c379a0000000000000000000000000000000000000000000000000000000008152600401611ab290613a4a565b60405180910390fd5b611ac6838383611fce565b611ad160008261183e565b6001600360008573ffffffffffffffffffffffffffffffffffffffff1673ffffffffffffffffffffffffffffffffffffffff1681526020019081526020016000206000828254611b219190613a6a565b925050819055506001600360008473ffffffffffffffffffffffffffffffffffffffff1673ffffffffffffffffffffffffffffffffffffffff1681526020019081526020016000206000828254611b789190613333565b92505081905550816002600083815260200190815260200160002060006101000a81548173ffffffffffffffffffffffffffffffffffffffff021916908373ffffffffffffffffffffffffffffffffffffffff160217905550808273ffffffffffffffffffffffffffffffffffffffff168473ffffffffffffffffffffffffffffffffffffffff167fddf252ad1be2c89b69c2b068fc378daa952ba7f163c4a11628f55a4df523b3ef60405160405180910390a4505050565b611c4b8282604051806020016040528060008152506120e2565b5050565b6000600a60009054906101000a900473ffffffffffffffffffffffffffffffffffffffff16905081600a60006101000a81548173ffffffffffffffffffffffffffffffffffffffff021916908373ffffffffffffffffffffffffffffffffffffffff1602179055508173ffffffffffffffffffffffffffffffffffffffff168173ffffffffffffffffffffffffffffffffffffffff167f8be0079c531659141344cd1fd0a4f28419497f9722a3daafe3b4186f6b6457e060405160405180910390a35050565b611d208484846119d5565b611d2c8484848461213d565b611d6b576040517f08c379a0000000000000000000000000000000000000000000000000000000008152600401611d6290613b10565b60405180910390fd5b50505050565b6060600b8054611d8090612ff8565b80601f0160208091040260200160405190810160405280929190818152602001828054611dac90612ff8565b8015611df95780601f10611dce57610100808354040283529160200191611df9565b820191906000526020600020905b815481529060010190602001808311611ddc57829003601f168201915b5050505050905090565b60606000821415611e4b576040518060400160405280600181526020017f30000000000000000000000000000000000000000000000000000000000000008152509050611f5f565b600082905060005b60008214611e7d578080611e6690613389565b915050600a82611e769190613b5f565b9150611e53565b60008167ffffffffffffffff811115611e9957611e98612c85565b5b6040519080825280601f01601f191660200182016040528015611ecb5781602001600182028036833780820191505090505b5090505b60008514611f5857600182611ee49190613a6a565b9150600a85611ef39190613b90565b6030611eff9190613333565b60f81b818381518110611f1557611f146133d2565b5b60200101907effffffffffffffffffffffffffffffffffffffffffffffffffffffffffffff1916908160001a905350600a85611f519190613b5f565b9450611ecf565b8093505050505b919050565b60007f01ffc9a7000000000000000000000000000000000000000000000000000000007bffffffffffffffffffffffffffffffffffffffffffffffffffffffff1916827bffffffffffffffffffffffffffffffffffffffffffffffffffffffff1916149050919050565b611fd98383836116e3565b600073ffffffffffffffffffffffffffffffffffffffff168373ffffffffffffffffffffffffffffffffffffffff16141561201c57612017816122c5565b61205b565b8173ffffffffffffffffffffffffffffffffffffffff168373ffffffffffffffffffffffffffffffffffffffff161461205a57612059838261230e565b5b5b600073ffffffffffffffffffffffffffffffffffffffff168273ffffffffffffffffffffffffffffffffffffffff16141561209e576120998161247b565b6120dd565b8273ffffffffffffffffffffffffffffffffffffffff168273ffffffffffffffffffffffffffffffffffffffff16146120dc576120db828261254c565b5b5b505050565b6120ec83836125cb565b6120f9600084848461213d565b612138576040517f08c379a000000000000000000000000000000000000000000000000000000000815260040161212f90613b10565b60405180910390fd5b505050565b600061215e8473ffffffffffffffffffffffffffffffffffffffff166116d0565b156122b8578373ffffffffffffffffffffffffffffffffffffffff1663150b7a02612187611836565b8786866040518563ffffffff1660e01b81526004016121a99493929190613c16565b6020604051808303816000875af19250505080156121e557506040513d601f19601f820116820180604052508101906121e29190613c77565b60015b612268573d8060008114612215576040519150601f19603f3d011682016040523d82523d6000602084013e61221a565b606091505b50600081511415612260576040517f08c379a000000000000000000000000000000000000000000000000000000000815260040161225790613b10565b60405180910390fd5b805181602001fd5b63150b7a0260e01b7bffffffffffffffffffffffffffffffffffffffffffffffffffffffff1916817bffffffffffffffffffffffffffffffffffffffffffffffffffffffff1916149150506122bd565b600190505b949350505050565b6008805490506009600083815260200190815260200160002081905550600881908060018154018082558091505060019003906000526020600020016000909190919091505550565b6000600161231b84610f0b565b6123259190613a6a565b905060006007600084815260200190815260200160002054905081811461240a576000600660008673ffffffffffffffffffffffffffffffffffffffff1673ffffffffffffffffffffffffffffffffffffffff168152602001908152602001600020600084815260200190815260200160002054905080600660008773ffffffffffffffffffffffffffffffffffffffff1673ffffffffffffffffffffffffffffffffffffffff168152602001908152602001600020600084815260200190815260200160002081905550816007600083815260200190815260200160002081905550505b6007600084815260200190815260200160002060009055600660008573ffffffffffffffffffffffffffffffffffffffff1673ffffffffffffffffffffffffffffffffffffffff16815260200190815260200160002060008381526020019081526020016000206000905550505050565b6000600160088054905061248f9190613a6a565b90506000600960008481526020019081526020016000205490506000600883815481106124bf576124be6133d2565b5b9060005260206000200154905080600883815481106124e1576124e06133d2565b5b9060005260206000200181905550816009600083815260200190815260200160002081905550600960008581526020019081526020016000206000905560088054806125305761252f613ca4565b5b6001900381819060005260206000200160009055905550505050565b600061255783610f0b565b905081600660008573ffffffffffffffffffffffffffffffffffffffff1673ffffffffffffffffffffffffffffffffffffffff168152602001908152602001600020600083815260200190815260200160002081905550806007600084815260200190815260200160002081905550505050565b600073ffffffffffffffffffffffffffffffffffffffff168273ffffffffffffffffffffffffffffffffffffffff16141561263b576040517f08c379a000000000000000000000000000000000000000000000000000000000815260040161263290613d1f565b60405180910390fd5b612644816117ca565b15612684576040517f08c379a000000000000000000000000000000000000000000000000000000000815260040161267b90613d8b565b60405180910390fd5b61269060008383611fce565b6001600360008473ffffffffffffffffffffffffffffffffffffffff1673ffffffffffffffffffffffffffffffffffffffff16815260200190815260200160002060008282546126e09190613333565b92505081905550816002600083815260200190815260200160002060006101000a81548173ffffffffffffffffffffffffffffffffffffffff021916908373ffffffffffffffffffffffffffffffffffffffff160217905550808273ffffffffffffffffffffffffffffffffffffffff16600073ffffffffffffffffffffffffffffffffffffffff167fddf252ad1be2c89b69c2b068fc378daa952ba7f163c4a11628f55a4df523b3ef60405160405180910390a45050565b8280546127a590612ff8565b90600052602060002090601f0160209004810192826127c7576000855561280e565b82601f106127e057805160ff191683800117855561280e565b8280016001018555821561280e579182015b8281111561280d5782518255916020019190600101906127f2565b5b50905061281b919061281f565b5090565b5b80821115612838576000816000905550600101612820565b5090565b6000604051905090565b600080fd5b600080fd5b60007fffffffff0000000000000000000000000000000000000000000000000000000082169050919050565b61288581612850565b811461289057600080fd5b50565b6000813590506128a28161287c565b92915050565b6000602082840312156128be576128bd612846565b5b60006128cc84828501612893565b91505092915050565b60008115159050919050565b6128ea816128d5565b82525050565b600060208201905061290560008301846128e1565b92915050565b600081519050919050565b600082825260208201905092915050565b60005b8381101561294557808201518184015260208101905061292a565b83811115612954576000848401525b50505050565b6000601f19601f8301169050919050565b60006129768261290b565b6129808185612916565b9350612990818560208601612927565b6129998161295a565b840191505092915050565b600060208201905081810360008301526129be818461296b565b905092915050565b6000819050919050565b6129d9816129c6565b81146129e457600080fd5b50565b6000813590506129f6816129d0565b92915050565b600060208284031215612a1257612a11612846565b5b6000612a20848285016129e7565b91505092915050565b600073ffffffffffffffffffffffffffffffffffffffff82169050919050565b6000612a5482612a29565b9050919050565b612a6481612a49565b82525050565b6000602082019050612a7f6000830184612a5b565b92915050565b612a8e81612a49565b8114612a9957600080fd5b50565b600081359050612aab81612a85565b92915050565b60008060408385031215612ac857612ac7612846565b5b6000612ad685828601612a9c565b9250506020612ae7858286016129e7565b9150509250929050565b612afa816129c6565b82525050565b6000602082019050612b156000830184612af1565b92915050565b600080600060608486031215612b3457612b33612846565b5b6000612b4286828701612a9c565b9350506020612b5386828701612a9c565b9250506040612b64868287016129e7565b9150509250925092565b600060208284031215612b8457612b83612846565b5b6000612b9284828501612a9c565b91505092915050565b600081519050919050565b600082825260208201905092915050565b6000819050602082019050919050565b612bd0816129c6565b82525050565b6000612be28383612bc7565b60208301905092915050565b6000602082019050919050565b6000612c0682612b9b565b612c108185612ba6565b9350612c1b83612bb7565b8060005b83811015612c4c578151612c338882612bd6565b9750612c3e83612bee565b925050600181019050612c1f565b5085935050505092915050565b60006020820190508181036000830152612c738184612bfb565b905092915050565b600080fd5b600080fd5b7f4e487b7100000000000000000000000000000000000000000000000000000000600052604160045260246000fd5b612cbd8261295a565b810181811067ffffffffffffffff82111715612cdc57612cdb612c85565b5b80604052505050565b6000612cef61283c565b9050612cfb8282612cb4565b919050565b600067ffffffffffffffff821115612d1b57612d1a612c85565b5b612d248261295a565b9050602081019050919050565b82818337600083830152505050565b6000612d53612d4e84612d00565b612ce5565b905082815260208101848484011115612d6f57612d6e612c80565b5b612d7a848285612d31565b509392505050565b600082601f830112612d9757612d96612c7b565b5b8135612da7848260208601612d40565b91505092915050565b600060208284031215612dc657612dc5612846565b5b600082013567ffffffffffffffff811115612de457612de361284b565b5b612df084828501612d82565b91505092915050565b612e02816128d5565b8114612e0d57600080fd5b50565b600081359050612e1f81612df9565b92915050565b60008060408385031215612e3c57612e3b612846565b5b6000612e4a85828601612a9c565b9250506020612e5b85828601612e10565b9150509250929050565b600067ffffffffffffffff821115612e8057612e7f612c85565b5b612e898261295a565b9050602081019050919050565b6000612ea9612ea484612e65565b612ce5565b905082815260208101848484011115612ec557612ec4612c80565b5b612ed0848285612d31565b509392505050565b600082601f830112612eed57612eec612c7b565b5b8135612efd848260208601612e96565b91505092915050565b60008060008060808587031215612f2057612f1f612846565b5b6000612f2e87828801612a9c565b9450506020612f3f87828801612a9c565b9350506040612f50878288016129e7565b925050606085013567ffffffffffffffff811115612f7157612f7061284b565b5b612f7d87828801612ed8565b91505092959194509250565b60008060408385031215612fa057612f9f612846565b5b6000612fae85828601612a9c565b9250506020612fbf85828601612a9c565b9150509250929050565b7f4e487b7100000000000000000000000000000000000000000000000000000000600052602260045260246000fd5b6000600282049050600182168061301057607f821691505b6020821081141561302457613023612fc9565b5b50919050565b7f4552433732313a20617070726f76656420717565727920666f72206e6f6e657860008201527f697374656e7420746f6b656e0000000000000000000000000000000000000000602082015250565b6000613086602c83612916565b91506130918261302a565b604082019050919050565b600060208201905081810360008301526130b581613079565b9050919050565b7f4552433732313a20617070726f76616c20746f2063757272656e74206f776e6560008201527f7200000000000000000000000000000000000000000000000000000000000000602082015250565b6000613118602183612916565b9150613123826130bc565b604082019050919050565b600060208201905081810360008301526131478161310b565b9050919050565b7f4552433732313a20617070726f76652063616c6c6572206973206e6f74206f7760008201527f6e6572206e6f7220617070726f76656420666f7220616c6c0000000000000000602082015250565b60006131aa603883612916565b91506131b58261314e565b604082019050919050565b600060208201905081810360008301526131d98161319d565b9050919050565b7f4552433732313a207472616e736665722063616c6c6572206973206e6f74206f60008201527f776e6572206e6f7220617070726f766564000000000000000000000000000000602082015250565b600061323c603183612916565b9150613247826131e0565b604082019050919050565b6000602082019050818103600083015261326b8161322f565b9050919050565b7f455243373231456e756d657261626c653a206f776e657220696e646578206f7560008201527f74206f6620626f756e6473000000000000000000000000000000000000000000602082015250565b60006132ce602b83612916565b91506132d982613272565b604082019050919050565b600060208201905081810360008301526132fd816132c1565b9050919050565b7f4e487b7100000000000000000000000000000000000000000000000000000000600052601160045260246000fd5b600061333e826129c6565b9150613349836129c6565b9250827fffffffffffffffffffffffffffffffffffffffffffffffffffffffffffffffff0382111561337e5761337d613304565b5b828201905092915050565b6000613394826129c6565b91507fffffffffffffffffffffffffffffffffffffffffffffffffffffffffffffffff8214156133c7576133c6613304565b5b600182019050919050565b7f4e487b7100000000000000000000000000000000000000000000000000000000600052603260045260246000fd5b7f4f776e61626c653a2063616c6c6572206973206e6f7420746865206f776e6572600082015250565b6000613437602083612916565b915061344282613401565b602082019050919050565b600060208201905081810360008301526134668161342a565b9050919050565b7f455243373231456e756d657261626c653a20676c6f62616c20696e646578206f60008201527f7574206f6620626f756e64730000000000000000000000000000000000000000602082015250565b60006134c9602c83612916565b91506134d48261346d565b604082019050919050565b600060208201905081810360008301526134f8816134bc565b9050919050565b7f4552433732313a206f776e657220717565727920666f72206e6f6e657869737460008201527f656e7420746f6b656e0000000000000000000000000000000000000000000000602082015250565b600061355b602983612916565b9150613566826134ff565b604082019050919050565b6000602082019050818103600083015261358a8161354e565b9050919050565b7f4552433732313a2062616c616e636520717565727920666f7220746865207a6560008201527f726f206164647265737300000000000000000000000000000000000000000000602082015250565b60006135ed602a83612916565b91506135f882613591565b604082019050919050565b6000602082019050818103600083015261361c816135e0565b9050919050565b7f4552433732313a20617070726f766520746f2063616c6c657200000000000000600082015250565b6000613659601983612916565b915061366482613623565b602082019050919050565b600060208201905081810360008301526136888161364c565b9050919050565b7f4552433732314d657461646174613a2055524920717565727920666f72206e6f60008201527f6e6578697374656e7420746f6b656e0000000000000000000000000000000000602082015250565b60006136eb602f83612916565b91506136f68261368f565b604082019050919050565b6000602082019050818103600083015261371a816136de565b9050919050565b600081905092915050565b60006137378261290b565b6137418185613721565b9350613751818560208601612927565b80840191505092915050565b60008190508160005260206000209050919050565b6000815461377f81612ff8565b6137898186613721565b945060018216600081146137a457600181146137b5576137e8565b60ff198316865281860193506137e8565b6137be8561375d565b60005b838110156137e0578154818901526001820191506020810190506137c1565b838801955050505b50505092915050565b60006137fd828661372c565b9150613809828561372c565b91506138158284613772565b9150819050949350505050565b7f4f776e61626c653a206e6577206f776e657220697320746865207a65726f206160008201527f6464726573730000000000000000000000000000000000000000000000000000602082015250565b600061387e602683612916565b915061388982613822565b604082019050919050565b600060208201905081810360008301526138ad81613871565b9050919050565b7f4552433732313a206f70657261746f7220717565727920666f72206e6f6e657860008201527f697374656e7420746f6b656e0000000000000000000000000000000000000000602082015250565b6000613910602c83612916565b915061391b826138b4565b604082019050919050565b6000602082019050818103600083015261393f81613903565b9050919050565b7f4552433732313a207472616e73666572206f6620746f6b656e2074686174206960008201527f73206e6f74206f776e0000000000000000000000000000000000000000000000602082015250565b60006139a2602983612916565b91506139ad82613946565b604082019050919050565b600060208201905081810360008301526139d181613995565b9050919050565b7f4552433732313a207472616e7366657220746f20746865207a65726f2061646460008201527f7265737300000000000000000000000000000000000000000000000000000000602082015250565b6000613a34602483612916565b9150613a3f826139d8565b604082019050919050565b60006020820190508181036000830152613a6381613a27565b9050919050565b6000613a75826129c6565b9150613a80836129c6565b925082821015613a9357613a92613304565b5b828203905092915050565b7f4552433732313a207472616e7366657220746f206e6f6e20455243373231526560008201527f63656976657220696d706c656d656e7465720000000000000000000000000000602082015250565b6000613afa603283612916565b9150613b0582613a9e565b604082019050919050565b60006020820190508181036000830152613b2981613aed565b9050919050565b7f4e487b7100000000000000000000000000000000000000000000000000000000600052601260045260246000fd5b6000613b6a826129c6565b9150613b75836129c6565b925082613b8557613b84613b30565b5b828204905092915050565b6000613b9b826129c6565b9150613ba6836129c6565b925082613bb657613bb5613b30565b5b828206905092915050565b600081519050919050565b600082825260208201905092915050565b6000613be882613bc1565b613bf28185613bcc565b9350613c02818560208601612927565b613c0b8161295a565b840191505092915050565b6000608082019050613c2b6000830187612a5b565b613c386020830186612a5b565b613c456040830185612af1565b8181036060830152613c578184613bdd565b905095945050505050565b600081519050613c718161287c565b92915050565b600060208284031215613c8d57613c8c612846565b5b6000613c9b84828501613c62565b91505092915050565b7f4e487b7100000000000000000000000000000000000000000000000000000000600052603160045260246000fd5b7f4552433732313a206d696e7420746f20746865207a65726f2061646472657373600082015250565b6000613d09602083612916565b9150613d1482613cd3565b602082019050919050565b60006020820190508181036000830152613d3881613cfc565b9050919050565b7f4552433732313a20746f6b656e20616c7265616479206d696e74656400000000600082015250565b6000613d75601c83612916565b9150613d8082613d3f565b602082019050919050565b60006020820190508181036000830152613da481613d68565b905091905056fea264697066735822122020208db16249329f724f474cb9a84bdeb865cb73bd5ba407f19ca223c962758a64736f6c634300080a0033",
  "linkReferences": {},
  "deployedLinkReferences": {}
}