{
  "_format": "hh-sol-artifact-1",
  "contractName": "SampleERC721",
  "sourceName": "contracts/SampleERC721.sol",
  "abi": [
    {
      "inputs": [
        {
          "internalType": "string",
          "name": "_name",
          "type": "string"
        },
        {
          "internalType": "string",
          "name": "_symbol",
          "type": "string"
        }
      ],
      "stateMutability": "nonpayable",
      "type": "constructor"
    },
    {
      "anonymous": false,
      "inputs": [
        {
          "indexed": true,
          "internalType": "address",
          "name": "owner",
          "type": "address"
        },
        {
          "indexed": true,
          "internalType": "address",
          "name": "approved",
          "type": "address"
        },
        {
          "indexed": true,
          "internalType": "uint256",
          "name": "tokenId",
          "type": "uint256"
        }
      ],
      "name": "Approval",
      "type": "event"
    },
    {
      "anonymous": false,
      "inputs": [
        {
          "indexed": true,
          "internalType": "address",
          "name": "owner",
          "type": "address"
        },
        {
          "indexed": true,
          "internalType": "address",
          "name": "operator",
          "type": "address"
        },
        {
          "indexed": false,
          "internalType": "bool",
          "name": "approved",
          "type": "bool"
        }
      ],
      "name": "ApprovalForAll",
      "type": "event"
    },
    {
      "anonymous": false,
      "inputs": [
        {
          "indexed": true,
          "internalType": "address",
          "name": "from",
          "type": "address"
        },
        {
          "indexed": true,
          "internalType": "address",
          "name": "to",
          "type": "address"
        },
        {
          "indexed": true,
          "internalType": "uint256",
          "name": "tokenId",
          "type": "uint256"
        }
      ],
      "name": "Transfer",
      "type": "event"
    },
    {
      "inputs": [
        {
          "internalType": "address",
          "name": "to",
          "type": "address"
        },
        {
          "internalType": "uint256",
          "name": "tokenId",
          "type": "uint256"
        }
      ],
      "name": "approve",
      "outputs": [],
      "stateMutability": "nonpayable",
      "type": "function"
    },
    {
      "inputs": [
        {
          "internalType": "address",
          "name": "owner",
          "type": "address"
        }
      ],
      "name": "balanceOf",
      "outputs": [
        {
          "internalType": "uint256",
          "name": "",
          "type": "uint256"
        }
      ],
      "stateMutability": "view",
      "type": "function"
    },
    {
      "inputs": [
        {
          "internalType": "uint256",
          "name": "tokenId",
          "type": "uint256"
        }
      ],
      "name": "getApproved",
      "outputs": [
        {
          "internalType": "address",
          "name": "",
          "type": "address"
        }
      ],
      "stateMutability": "view",
      "type": "function"
    },
    {
      "inputs": [
        {
          "internalType": "address",
          "name": "owner",
          "type": "address"
        },
        {
          "internalType": "address",
          "name": "operator",
          "type": "address"
        }
      ],
      "name": "isApprovedForAll",
      "outputs": [
        {
          "internalType": "bool",
          "name": "",
          "type": "bool"
        }
      ],
      "stateMutability": "view",
      "type": "function"
    },
    {
      "inputs": [
        {
          "internalType": "address",
          "name": "_to",
          "type": "address"
        },
        {
          "internalType": "uint256",
          "name": "_tokenId",
          "type": "uint256"
        }
      ],
      "name": "mintToken",
      "outputs": [],
      "stateMutability": "nonpayable",
      "type": "function"
    },
    {
      "inputs": [],
      "name": "name",
      "outputs": [
        {
          "internalType": "string",
          "name": "",
          "type": "string"
        }
      ],
      "stateMutability": "view",
      "type": "function"
    },
    {
      "inputs": [
        {
          "internalType": "uint256",
          "name": "tokenId",
          "type": "uint256"
        }
      ],
      "name": "ownerOf",
      "outputs": [
        {
          "internalType": "address",
          "name": "",
          "type": "address"
        }
      ],
      "stateMutability": "view",
      "type": "function"
    },
    {
      "inputs": [
        {
          "internalType": "address",
          "name": "from",
          "type": "address"
        },
        {
          "internalType": "address",
          "name": "to",
          "type": "address"
        },
        {
          "internalType": "uint256",
          "name": "tokenId",
          "type": "uint256"
        }
      ],
      "name": "safeTransferFrom",
      "outputs": [],
      "stateMutability": "nonpayable",
      "type": "function"
    },
    {
      "inputs": [
        {
          "internalType": "address",
          "name": "from",
          "type": "address"
        },
        {
          "internalType": "address",
          "name": "to",
          "type": "address"
        },
        {
          "internalType": "uint256",
          "name": "tokenId",
          "type": "uint256"
        },
        {
          "internalType": "bytes",
          "name": "_data",
          "type": "bytes"
        }
      ],
      "name": "safeTransferFrom",
      "outputs": [],
      "stateMutability": "nonpayable",
      "type": "function"
    },
    {
      "inputs": [
        {
          "internalType": "address",
          "name": "operator",
          "type": "address"
        },
        {
          "internalType": "bool",
          "name": "approved",
          "type": "bool"
        }
      ],
      "name": "setApprovalForAll",
      "outputs": [],
      "stateMutability": "nonpayable",
      "type": "function"
    },
    {
      "inputs": [
        {
          "internalType": "bytes4",
          "name": "interfaceId",
          "type": "bytes4"
        }
      ],
      "name": "supportsInterface",
      "outputs": [
        {
          "internalType": "bool",
          "name": "",
          "type": "bool"
        }
      ],
      "stateMutability": "view",
      "type": "function"
    },
    {
      "inputs": [],
      "name": "symbol",
      "outputs": [
        {
          "internalType": "string",
          "name": "",
          "type": "string"
        }
      ],
      "stateMutability": "view",
      "type": "function"
    },
    {
      "inputs": [
        {
          "internalType": "uint256",
          "name": "tokenId",
          "type": "uint256"
        }
      ],
      "name": "tokenURI",
      "outputs": [
        {
          "internalType": "string",
          "name": "",
          "type": "string"
        }
      ],
      "stateMutability": "view",
      "type": "function"
    },
    {
      "inputs": [
        {
          "internalType": "address",
          "name": "from",
          "type": "address"
        },
        {
          "internalType": "address",
          "name": "to",
          "type": "address"
        },
        {
          "internalType": "uint256",
          "name": "tokenId",
          "type": "uint256"
        }
      ],
      "name": "transferFrom",
      "outputs": [],
      "stateMutability": "nonpayable",
      "type": "function"
    }
  ],
  "bytecode": "0x60806040523480156200001157600080fd5b5060405162002aef38038062002aef8339818101604052810190620000379190620002c2565b818181600090805190602001906200005192919062000075565b5080600190805190602001906200006a92919062000075565b5050505050620003ac565b828054620000839062000376565b90600052602060002090601f016020900481019282620000a75760008555620000f3565b82601f10620000c257805160ff1916838001178555620000f3565b82800160010185558215620000f3579182015b82811115620000f2578251825591602001919060010190620000d5565b5b50905062000102919062000106565b5090565b5b808211156200012157600081600090555060010162000107565b5090565b6000604051905090565b600080fd5b600080fd5b600080fd5b600080fd5b6000601f19601f8301169050919050565b7f4e487b7100000000000000000000000000000000000000000000000000000000600052604160045260246000fd5b6200018e8262000143565b810181811067ffffffffffffffff82111715620001b057620001af62000154565b5b80604052505050565b6000620001c562000125565b9050620001d3828262000183565b919050565b600067ffffffffffffffff821115620001f657620001f562000154565b5b620002018262000143565b9050602081019050919050565b60005b838110156200022e57808201518184015260208101905062000211565b838111156200023e576000848401525b50505050565b60006200025b6200025584620001d8565b620001b9565b9050828152602081018484840111156200027a57620002796200013e565b5b620002878482856200020e565b509392505050565b600082601f830112620002a757620002a662000139565b5b8151620002b984826020860162000244565b91505092915050565b60008060408385031215620002dc57620002db6200012f565b5b600083015167ffffffffffffffff811115620002fd57620002fc62000134565b5b6200030b858286016200028f565b925050602083015167ffffffffffffffff8111156200032f576200032e62000134565b5b6200033d858286016200028f565b9150509250929050565b7f4e487b7100000000000000000000000000000000000000000000000000000000600052602260045260246000fd5b600060028204905060018216806200038f57607f821691505b60208210811415620003a657620003a562000347565b5b50919050565b61273380620003bc6000396000f3fe608060405234801561001057600080fd5b50600436106100ea5760003560e01c806370a082311161008c578063a22cb46511610066578063a22cb4651461025b578063b88d4fde14610277578063c87b56dd14610293578063e985e9c5146102c3576100ea565b806370a08231146101f157806379c650681461022157806395d89b411461023d576100ea565b8063095ea7b3116100c8578063095ea7b31461016d57806323b872dd1461018957806342842e0e146101a55780636352211e146101c1576100ea565b806301ffc9a7146100ef57806306fdde031461011f578063081812fc1461013d575b600080fd5b610109600480360381019061010491906116b6565b6102f3565b60405161011691906116fe565b60405180910390f35b6101276103d5565b60405161013491906117b2565b60405180910390f35b6101576004803603810190610152919061180a565b610467565b6040516101649190611878565b60405180910390f35b610187600480360381019061018291906118bf565b6104ec565b005b6101a3600480360381019061019e91906118ff565b610604565b005b6101bf60048036038101906101ba91906118ff565b610664565b005b6101db60048036038101906101d6919061180a565b610684565b6040516101e89190611878565b60405180910390f35b61020b60048036038101906102069190611952565b610736565b604051610218919061198e565b60405180910390f35b61023b600480360381019061023691906118bf565b6107ee565b005b61024561080e565b60405161025291906117b2565b60405180910390f35b610275600480360381019061027091906119d5565b6108a0565b005b610291600480360381019061028c9190611b4a565b610a21565b005b6102ad60048036038101906102a8919061180a565b610a83565b6040516102ba91906117b2565b60405180910390f35b6102dd60048036038101906102d89190611bcd565b610b2a565b6040516102ea91906116fe565b60405180910390f35b60007f80ac58cd000000000000000000000000000000000000000000000000000000007bffffffffffffffffffffffffffffffffffffffffffffffffffffffff1916827bffffffffffffffffffffffffffffffffffffffffffffffffffffffff191614806103be57507f5b5e139f000000000000000000000000000000000000000000000000000000007bffffffffffffffffffffffffffffffffffffffffffffffffffffffff1916827bffffffffffffffffffffffffffffffffffffffffffffffffffffffff1916145b806103ce57506103cd82610bbe565b5b9050919050565b6060600080546103e490611c3c565b80601f016020809104026020016040519081016040528092919081815260200182805461041090611c3c565b801561045d5780601f106104325761010080835404028352916020019161045d565b820191906000526020600020905b81548152906001019060200180831161044057829003601f168201915b5050505050905090565b600061047282610c28565b6104b1576040517f08c379a00000000000000000000000000000000000000000000000000000000081526004016104a890611ce0565b60405180910390fd5b6004600083815260200190815260200160002060009054906101000a900473ffffffffffffffffffffffffffffffffffffffff169050919050565b60006104f782610684565b90508073ffffffffffffffffffffffffffffffffffffffff168373ffffffffffffffffffffffffffffffffffffffff161415610568576040517f08c379a000000000000000000000000000000000000000000000000000000000815260040161055f90611d72565b60405180910390fd5b8073ffffffffffffffffffffffffffffffffffffffff16610587610c94565b73ffffffffffffffffffffffffffffffffffffffff1614806105b657506105b5816105b0610c94565b610b2a565b5b6105f5576040517f08c379a00000000000000000000000000000000000000000000000000000000081526004016105ec90611e04565b60405180910390fd5b6105ff8383610c9c565b505050565b61061561060f610c94565b82610d55565b610654576040517f08c379a000000000000000000000000000000000000000000000000000000000815260040161064b90611e96565b60405180910390fd5b61065f838383610e33565b505050565b61067f83838360405180602001604052806000815250610a21565b505050565b6000806002600084815260200190815260200160002060009054906101000a900473ffffffffffffffffffffffffffffffffffffffff169050600073ffffffffffffffffffffffffffffffffffffffff168173ffffffffffffffffffffffffffffffffffffffff16141561072d576040517f08c379a000000000000000000000000000000000000000000000000000000000815260040161072490611f28565b60405180910390fd5b80915050919050565b60008073ffffffffffffffffffffffffffffffffffffffff168273ffffffffffffffffffffffffffffffffffffffff1614156107a7576040517f08c379a000000000000000000000000000000000000000000000000000000000815260040161079e90611fba565b60405180910390fd5b600360008373ffffffffffffffffffffffffffffffffffffffff1673ffffffffffffffffffffffffffffffffffffffff168152602001908152602001600020549050919050565b6107f8828261108f565b61080181610c28565b61080a57600080fd5b5050565b60606001805461081d90611c3c565b80601f016020809104026020016040519081016040528092919081815260200182805461084990611c3c565b80156108965780601f1061086b57610100808354040283529160200191610896565b820191906000526020600020905b81548152906001019060200180831161087957829003601f168201915b5050505050905090565b6108a8610c94565b73ffffffffffffffffffffffffffffffffffffffff168273ffffffffffffffffffffffffffffffffffffffff161415610916576040517f08c379a000000000000000000000000000000000000000000000000000000000815260040161090d90612026565b60405180910390fd5b8060056000610923610c94565b73ffffffffffffffffffffffffffffffffffffffff1673ffffffffffffffffffffffffffffffffffffffff16815260200190815260200160002060008473ffffffffffffffffffffffffffffffffffffffff1673ffffffffffffffffffffffffffffffffffffffff16815260200190815260200160002060006101000a81548160ff0219169083151502179055508173ffffffffffffffffffffffffffffffffffffffff166109d0610c94565b73ffffffffffffffffffffffffffffffffffffffff167f17307eab39ab6107e8899845ad3d59bd9653f200f220920489ca2b5937696c3183604051610a1591906116fe565b60405180910390a35050565b610a32610a2c610c94565b83610d55565b610a71576040517f08c379a0000000000000000000000000000000000000000000000000000000008152600401610a6890611e96565b60405180910390fd5b610a7d848484846110ad565b50505050565b6060610a8e82610c28565b610acd576040517f08c379a0000000000000000000000000000000000000000000000000000000008152600401610ac4906120b8565b60405180910390fd5b6000610ad7611109565b90506000815111610af75760405180602001604052806000815250610b22565b80610b0184611120565b604051602001610b12929190612114565b6040516020818303038152906040525b915050919050565b6000600560008473ffffffffffffffffffffffffffffffffffffffff1673ffffffffffffffffffffffffffffffffffffffff16815260200190815260200160002060008373ffffffffffffffffffffffffffffffffffffffff1673ffffffffffffffffffffffffffffffffffffffff16815260200190815260200160002060009054906101000a900460ff16905092915050565b60007f01ffc9a7000000000000000000000000000000000000000000000000000000007bffffffffffffffffffffffffffffffffffffffffffffffffffffffff1916827bffffffffffffffffffffffffffffffffffffffffffffffffffffffff1916149050919050565b60008073ffffffffffffffffffffffffffffffffffffffff166002600084815260200190815260200160002060009054906101000a900473ffffffffffffffffffffffffffffffffffffffff1673ffffffffffffffffffffffffffffffffffffffff1614159050919050565b600033905090565b816004600083815260200190815260200160002060006101000a81548173ffffffffffffffffffffffffffffffffffffffff021916908373ffffffffffffffffffffffffffffffffffffffff160217905550808273ffffffffffffffffffffffffffffffffffffffff16610d0f83610684565b73ffffffffffffffffffffffffffffffffffffffff167f8c5be1e5ebec7d5bd14f71427d1e84f3dd0314c0f7b2291e5b200ac8c7c3b92560405160405180910390a45050565b6000610d6082610c28565b610d9f576040517f08c379a0000000000000000000000000000000000000000000000000000000008152600401610d96906121aa565b60405180910390fd5b6000610daa83610684565b90508073ffffffffffffffffffffffffffffffffffffffff168473ffffffffffffffffffffffffffffffffffffffff161480610e1957508373ffffffffffffffffffffffffffffffffffffffff16610e0184610467565b73ffffffffffffffffffffffffffffffffffffffff16145b80610e2a5750610e298185610b2a565b5b91505092915050565b8273ffffffffffffffffffffffffffffffffffffffff16610e5382610684565b73ffffffffffffffffffffffffffffffffffffffff1614610ea9576040517f08c379a0000000000000000000000000000000000000000000000000000000008152600401610ea09061223c565b60405180910390fd5b600073ffffffffffffffffffffffffffffffffffffffff168273ffffffffffffffffffffffffffffffffffffffff161415610f19576040517f08c379a0000000000000000000000000000000000000000000000000000000008152600401610f10906122ce565b60405180910390fd5b610f24838383611281565b610f2f600082610c9c565b6001600360008573ffffffffffffffffffffffffffffffffffffffff1673ffffffffffffffffffffffffffffffffffffffff1681526020019081526020016000206000828254610f7f919061231d565b925050819055506001600360008473ffffffffffffffffffffffffffffffffffffffff1673ffffffffffffffffffffffffffffffffffffffff1681526020019081526020016000206000828254610fd69190612351565b92505081905550816002600083815260200190815260200160002060006101000a81548173ffffffffffffffffffffffffffffffffffffffff021916908373ffffffffffffffffffffffffffffffffffffffff160217905550808273ffffffffffffffffffffffffffffffffffffffff168473ffffffffffffffffffffffffffffffffffffffff167fddf252ad1be2c89b69c2b068fc378daa952ba7f163c4a11628f55a4df523b3ef60405160405180910390a4505050565b6110a9828260405180602001604052806000815250611286565b5050565b6110b8848484610e33565b6110c4848484846112e1565b611103576040517f08c379a00000000000000000000000000000000000000000000000000000000081526004016110fa90612419565b60405180910390fd5b50505050565b606060405180602001604052806000815250905090565b60606000821415611168576040518060400160405280600181526020017f3000000000000000000000000000000000000000000000000000000000000000815250905061127c565b600082905060005b6000821461119a57808061118390612439565b915050600a8261119391906124b1565b9150611170565b60008167ffffffffffffffff8111156111b6576111b5611a1f565b5b6040519080825280601f01601f1916602001820160405280156111e85781602001600182028036833780820191505090505b5090505b6000851461127557600182611201919061231d565b9150600a8561121091906124e2565b603061121c9190612351565b60f81b81838151811061123257611231612513565b5b60200101907effffffffffffffffffffffffffffffffffffffffffffffffffffffffffffff1916908160001a905350600a8561126e91906124b1565b94506111ec565b8093505050505b919050565b505050565b6112908383611469565b61129d60008484846112e1565b6112dc576040517f08c379a00000000000000000000000000000000000000000000000000000000081526004016112d390612419565b60405180910390fd5b505050565b60006113028473ffffffffffffffffffffffffffffffffffffffff16611637565b1561145c578373ffffffffffffffffffffffffffffffffffffffff1663150b7a0261132b610c94565b8786866040518563ffffffff1660e01b815260040161134d9493929190612597565b6020604051808303816000875af192505050801561138957506040513d601f19601f8201168201806040525081019061138691906125f8565b60015b61140c573d80600081146113b9576040519150601f19603f3d011682016040523d82523d6000602084013e6113be565b606091505b50600081511415611404576040517f08c379a00000000000000000000000000000000000000000000000000000000081526004016113fb90612419565b60405180910390fd5b805181602001fd5b63150b7a0260e01b7bffffffffffffffffffffffffffffffffffffffffffffffffffffffff1916817bffffffffffffffffffffffffffffffffffffffffffffffffffffffff191614915050611461565b600190505b949350505050565b600073ffffffffffffffffffffffffffffffffffffffff168273ffffffffffffffffffffffffffffffffffffffff1614156114d9576040517f08c379a00000000000000000000000000000000000000000000000000000000081526004016114d090612671565b60405180910390fd5b6114e281610c28565b15611522576040517f08c379a0000000000000000000000000000000000000000000000000000000008152600401611519906126dd565b60405180910390fd5b61152e60008383611281565b6001600360008473ffffffffffffffffffffffffffffffffffffffff1673ffffffffffffffffffffffffffffffffffffffff168152602001908152602001600020600082825461157e9190612351565b92505081905550816002600083815260200190815260200160002060006101000a81548173ffffffffffffffffffffffffffffffffffffffff021916908373ffffffffffffffffffffffffffffffffffffffff160217905550808273ffffffffffffffffffffffffffffffffffffffff16600073ffffffffffffffffffffffffffffffffffffffff167fddf252ad1be2c89b69c2b068fc378daa952ba7f163c4a11628f55a4df523b3ef60405160405180910390a45050565b600080823b905060008111915050919050565b6000604051905090565b600080fd5b600080fd5b60007fffffffff0000000000000000000000000000000000000000000000000000000082169050919050565b6116938161165e565b811461169e57600080fd5b50565b6000813590506116b08161168a565b92915050565b6000602082840312156116cc576116cb611654565b5b60006116da848285016116a1565b91505092915050565b60008115159050919050565b6116f8816116e3565b82525050565b600060208201905061171360008301846116ef565b92915050565b600081519050919050565b600082825260208201905092915050565b60005b83811015611753578082015181840152602081019050611738565b83811115611762576000848401525b50505050565b6000601f19601f8301169050919050565b600061178482611719565b61178e8185611724565b935061179e818560208601611735565b6117a781611768565b840191505092915050565b600060208201905081810360008301526117cc8184611779565b905092915050565b6000819050919050565b6117e7816117d4565b81146117f257600080fd5b50565b600081359050611804816117de565b92915050565b6000602082840312156118205761181f611654565b5b600061182e848285016117f5565b91505092915050565b600073ffffffffffffffffffffffffffffffffffffffff82169050919050565b600061186282611837565b9050919050565b61187281611857565b82525050565b600060208201905061188d6000830184611869565b92915050565b61189c81611857565b81146118a757600080fd5b50565b6000813590506118b981611893565b92915050565b600080604083850312156118d6576118d5611654565b5b60006118e4858286016118aa565b92505060206118f5858286016117f5565b9150509250929050565b60008060006060848603121561191857611917611654565b5b6000611926868287016118aa565b9350506020611937868287016118aa565b9250506040611948868287016117f5565b9150509250925092565b60006020828403121561196857611967611654565b5b6000611976848285016118aa565b91505092915050565b611988816117d4565b82525050565b60006020820190506119a3600083018461197f565b92915050565b6119b2816116e3565b81146119bd57600080fd5b50565b6000813590506119cf816119a9565b92915050565b600080604083850312156119ec576119eb611654565b5b60006119fa858286016118aa565b9250506020611a0b858286016119c0565b9150509250929050565b600080fd5b600080fd5b7f4e487b7100000000000000000000000000000000000000000000000000000000600052604160045260246000fd5b611a5782611768565b810181811067ffffffffffffffff82111715611a7657611a75611a1f565b5b80604052505050565b6000611a8961164a565b9050611a958282611a4e565b919050565b600067ffffffffffffffff821115611ab557611ab4611a1f565b5b611abe82611768565b9050602081019050919050565b82818337600083830152505050565b6000611aed611ae884611a9a565b611a7f565b905082815260208101848484011115611b0957611b08611a1a565b5b611b14848285611acb565b509392505050565b600082601f830112611b3157611b30611a15565b5b8135611b41848260208601611ada565b91505092915050565b60008060008060808587031215611b6457611b63611654565b5b6000611b72878288016118aa565b9450506020611b83878288016118aa565b9350506040611b94878288016117f5565b925050606085013567ffffffffffffffff811115611bb557611bb4611659565b5b611bc187828801611b1c565b91505092959194509250565b60008060408385031215611be457611be3611654565b5b6000611bf2858286016118aa565b9250506020611c03858286016118aa565b9150509250929050565b7f4e487b7100000000000000000000000000000000000000000000000000000000600052602260045260246000fd5b60006002820490506001821680611c5457607f821691505b60208210811415611c6857611c67611c0d565b5b50919050565b7f4552433732313a20617070726f76656420717565727920666f72206e6f6e657860008201527f697374656e7420746f6b656e0000000000000000000000000000000000000000602082015250565b6000611cca602c83611724565b9150611cd582611c6e565b604082019050919050565b60006020820190508181036000830152611cf981611cbd565b9050919050565b7f4552433732313a20617070726f76616c20746f2063757272656e74206f776e6560008201527f7200000000000000000000000000000000000000000000000000000000000000602082015250565b6000611d5c602183611724565b9150611d6782611d00565b604082019050919050565b60006020820190508181036000830152611d8b81611d4f565b9050919050565b7f4552433732313a20617070726f76652063616c6c6572206973206e6f74206f7760008201527f6e6572206e6f7220617070726f76656420666f7220616c6c0000000000000000602082015250565b6000611dee603883611724565b9150611df982611d92565b604082019050919050565b60006020820190508181036000830152611e1d81611de1565b9050919050565b7f4552433732313a207472616e736665722063616c6c6572206973206e6f74206f60008201527f776e6572206e6f7220617070726f766564000000000000000000000000000000602082015250565b6000611e80603183611724565b9150611e8b82611e24565b604082019050919050565b60006020820190508181036000830152611eaf81611e73565b9050919050565b7f4552433732313a206f776e657220717565727920666f72206e6f6e657869737460008201527f656e7420746f6b656e0000000000000000000000000000000000000000000000602082015250565b6000611f12602983611724565b9150611f1d82611eb6565b604082019050919050565b60006020820190508181036000830152611f4181611f05565b9050919050565b7f4552433732313a2062616c616e636520717565727920666f7220746865207a6560008201527f726f206164647265737300000000000000000000000000000000000000000000602082015250565b6000611fa4602a83611724565b9150611faf82611f48565b604082019050919050565b60006020820190508181036000830152611fd381611f97565b9050919050565b7f4552433732313a20617070726f766520746f2063616c6c657200000000000000600082015250565b6000612010601983611724565b915061201b82611fda565b602082019050919050565b6000602082019050818103600083015261203f81612003565b9050919050565b7f4552433732314d657461646174613a2055524920717565727920666f72206e6f60008201527f6e6578697374656e7420746f6b656e0000000000000000000000000000000000602082015250565b60006120a2602f83611724565b91506120ad82612046565b604082019050919050565b600060208201905081810360008301526120d181612095565b9050919050565b600081905092915050565b60006120ee82611719565b6120f881856120d8565b9350612108818560208601611735565b80840191505092915050565b600061212082856120e3565b915061212c82846120e3565b91508190509392505050565b7f4552433732313a206f70657261746f7220717565727920666f72206e6f6e657860008201527f697374656e7420746f6b656e0000000000000000000000000000000000000000602082015250565b6000612194602c83611724565b915061219f82612138565b604082019050919050565b600060208201905081810360008301526121c381612187565b9050919050565b7f4552433732313a207472616e73666572206f6620746f6b656e2074686174206960008201527f73206e6f74206f776e0000000000000000000000000000000000000000000000602082015250565b6000612226602983611724565b9150612231826121ca565b604082019050919050565b6000602082019050818103600083015261225581612219565b9050919050565b7f4552433732313a207472616e7366657220746f20746865207a65726f2061646460008201527f7265737300000000000000000000000000000000000000000000000000000000602082015250565b60006122b8602483611724565b91506122c38261225c565b604082019050919050565b600060208201905081810360008301526122e7816122ab565b9050919050565b7f4e487b7100000000000000000000000000000000000000000000000000000000600052601160045260246000fd5b6000612328826117d4565b9150612333836117d4565b925082821015612346576123456122ee565b5b828203905092915050565b600061235c826117d4565b9150612367836117d4565b9250827fffffffffffffffffffffffffffffffffffffffffffffffffffffffffffffffff0382111561239c5761239b6122ee565b5b828201905092915050565b7f4552433732313a207472616e7366657220746f206e6f6e20455243373231526560008201527f63656976657220696d706c656d656e7465720000000000000000000000000000602082015250565b6000612403603283611724565b915061240e826123a7565b604082019050919050565b60006020820190508181036000830152612432816123f6565b9050919050565b6000612444826117d4565b91507fffffffffffffffffffffffffffffffffffffffffffffffffffffffffffffffff821415612477576124766122ee565b5b600182019050919050565b7f4e487b7100000000000000000000000000000000000000000000000000000000600052601260045260246000fd5b60006124bc826117d4565b91506124c7836117d4565b9250826124d7576124d6612482565b5b828204905092915050565b60006124ed826117d4565b91506124f8836117d4565b92508261250857612507612482565b5b828206905092915050565b7f4e487b7100000000000000000000000000000000000000000000000000000000600052603260045260246000fd5b600081519050919050565b600082825260208201905092915050565b600061256982612542565b612573818561254d565b9350612583818560208601611735565b61258c81611768565b840191505092915050565b60006080820190506125ac6000830187611869565b6125b96020830186611869565b6125c6604083018561197f565b81810360608301526125d8818461255e565b905095945050505050565b6000815190506125f28161168a565b92915050565b60006020828403121561260e5761260d611654565b5b600061261c848285016125e3565b91505092915050565b7f4552433732313a206d696e7420746f20746865207a65726f2061646472657373600082015250565b600061265b602083611724565b915061266682612625565b602082019050919050565b6000602082019050818103600083015261268a8161264e565b9050919050565b7f4552433732313a20746f6b656e20616c7265616479206d696e74656400000000600082015250565b60006126c7601c83611724565b91506126d282612691565b602082019050919050565b600060208201905081810360008301526126f6816126ba565b905091905056fea2646970667358221220e462732db4385d2cdc66e82924f271710fc3efeb0485aac6d9040e592616933a64736f6c634300080a0033",
  "linkReferences": {},
  "deployedLinkReferences": {}
}