{
  "_format": "hh-sol-artifact-1",
  "contractName": "Marketplace",
  "sourceName": "contracts/Marketplace.sol",
  "abi": [
    {
      "inputs": [
        {
          "internalType": "uint256",
          "name": "_curationFee",
          "type": "uint256"
        },
        {
          "internalType": "address",
          "name": "_erc1155Address",
          "type": "address"
        },
        {
          "internalType": "address",
          "name": "_linkToken",
          "type": "address"
        },
        {
          "internalType": "address",
          "name": "_oracle",
          "type": "address"
        }
      ],
      "stateMutability": "nonpayable",
      "type": "constructor"
    },
    {
      "anonymous": false,
      "inputs": [
        {
          "indexed": true,
          "internalType": "bytes32",
          "name": "id",
          "type": "bytes32"
        }
      ],
      "name": "ChainlinkCancelled",
      "type": "event"
    },
    {
      "anonymous": false,
      "inputs": [
        {
          "indexed": true,
          "internalType": "bytes32",
          "name": "id",
          "type": "bytes32"
        }
      ],
      "name": "ChainlinkFulfilled",
      "type": "event"
    },
    {
      "anonymous": false,
      "inputs": [
        {
          "indexed": true,
          "internalType": "bytes32",
          "name": "id",
          "type": "bytes32"
        }
      ],
      "name": "ChainlinkRequested",
      "type": "event"
    },
    {
      "anonymous": false,
      "inputs": [
        {
          "indexed": false,
          "internalType": "uint256",
          "name": "_reward",
          "type": "uint256"
        },
        {
          "indexed": false,
          "internalType": "address",
          "name": "_user",
          "type": "address"
        }
      ],
      "name": "ClaimedReward",
      "type": "event"
    },
    {
      "anonymous": false,
      "inputs": [
        {
          "indexed": true,
          "internalType": "uint256",
          "name": "_marketItemId",
          "type": "uint256"
        },
        {
          "indexed": true,
          "internalType": "uint256",
          "name": "_tokenId",
          "type": "uint256"
        },
        {
          "indexed": false,
          "internalType": "uint256",
          "name": "_amount",
          "type": "uint256"
        },
        {
          "indexed": false,
          "internalType": "uint256",
          "name": "_timestamp",
          "type": "uint256"
        },
        {
          "indexed": false,
          "internalType": "address",
          "name": "_erc20Address",
          "type": "address"
        },
        {
          "indexed": false,
          "internalType": "bool",
          "name": "_isBond",
          "type": "bool"
        },
        {
          "indexed": false,
          "internalType": "address",
          "name": "_user",
          "type": "address"
        },
        {
          "indexed": false,
          "internalType": "bytes32",
          "name": "_requestId",
          "type": "bytes32"
        },
        {
          "indexed": false,
          "internalType": "uint256",
          "name": "_iconId",
          "type": "uint256"
        }
      ],
      "name": "NFTBond",
      "type": "event"
    },
    {
      "anonymous": false,
      "inputs": [
        {
          "indexed": true,
          "internalType": "uint256",
          "name": "_marketItemId",
          "type": "uint256"
        },
        {
          "indexed": true,
          "internalType": "address",
          "name": "_contractAddress",
          "type": "address"
        },
        {
          "indexed": true,
          "internalType": "uint256",
          "name": "_tokenId",
          "type": "uint256"
        },
        {
          "indexed": false,
          "internalType": "address",
          "name": "_seller",
          "type": "address"
        },
        {
          "indexed": false,
          "internalType": "address",
          "name": "_newOwner",
          "type": "address"
        },
        {
          "indexed": false,
          "internalType": "uint256",
          "name": "_price",
          "type": "uint256"
        }
      ],
      "name": "NFTBought",
      "type": "event"
    },
    {
      "anonymous": false,
      "inputs": [
        {
          "indexed": true,
          "internalType": "uint256",
          "name": "_marketItemId",
          "type": "uint256"
        },
        {
          "indexed": true,
          "internalType": "address",
          "name": "_contractAddress",
          "type": "address"
        },
        {
          "indexed": true,
          "internalType": "uint256",
          "name": "_tokenId",
          "type": "uint256"
        },
        {
          "indexed": false,
          "internalType": "address",
          "name": "_seller",
          "type": "address"
        },
        {
          "indexed": false,
          "internalType": "address",
          "name": "_newOwner",
          "type": "address"
        },
        {
          "indexed": false,
          "internalType": "uint256",
          "name": "_price",
          "type": "uint256"
        },
        {
          "indexed": false,
          "internalType": "uint256",
          "name": "_timestampNFT",
          "type": "uint256"
        }
      ],
      "name": "NFTListed",
      "type": "event"
    },
    {
      "anonymous": false,
      "inputs": [
        {
          "indexed": true,
          "internalType": "uint256",
          "name": "_marketItemId",
          "type": "uint256"
        },
        {
          "indexed": true,
          "internalType": "uint256",
          "name": "_tokenId",
          "type": "uint256"
        },
        {
          "indexed": false,
          "internalType": "uint256",
          "name": "_amount",
          "type": "uint256"
        },
        {
          "indexed": false,
          "internalType": "uint256",
          "name": "_timestamp",
          "type": "uint256"
        },
        {
          "indexed": false,
          "internalType": "address",
          "name": "_erc20Address",
          "type": "address"
        },
        {
          "indexed": false,
          "internalType": "bool",
          "name": "_isBond",
          "type": "bool"
        },
        {
          "indexed": false,
          "internalType": "address",
          "name": "_user",
          "type": "address"
        }
      ],
      "name": "NFTUnbond",
      "type": "event"
    },
    {
      "anonymous": false,
      "inputs": [
        {
          "indexed": true,
          "internalType": "address",
          "name": "previousOwner",
          "type": "address"
        },
        {
          "indexed": true,
          "internalType": "address",
          "name": "newOwner",
          "type": "address"
        }
      ],
      "name": "OwnershipTransferred",
      "type": "event"
    },
    {
      "anonymous": false,
      "inputs": [
        {
          "indexed": false,
          "internalType": "uint256",
          "name": "_votingPower",
          "type": "uint256"
        }
      ],
      "name": "VotingPower",
      "type": "event"
    },
    {
      "inputs": [
        {
          "internalType": "uint256",
          "name": "marketItemId",
          "type": "uint256"
        },
        {
          "internalType": "uint256",
          "name": "amount",
          "type": "uint256"
        },
        {
          "internalType": "address",
          "name": "erc20Address",
          "type": "address"
        },
        {
          "internalType": "uint256",
          "name": "iconId",
          "type": "uint256"
        }
      ],
      "name": "bondNFT",
      "outputs": [],
      "stateMutability": "nonpayable",
      "type": "function"
    },
    {
      "inputs": [
        {
          "internalType": "uint256",
          "name": "marketItemId",
          "type": "uint256"
        }
      ],
      "name": "buyNFT",
      "outputs": [],
      "stateMutability": "payable",
      "type": "function"
    },
    {
      "inputs": [
        {
          "internalType": "uint256",
          "name": "marketItemId",
          "type": "uint256"
        }
      ],
      "name": "claimReward",
      "outputs": [],
      "stateMutability": "nonpayable",
      "type": "function"
    },
    {
      "inputs": [
        {
          "internalType": "uint256",
          "name": "_amount",
          "type": "uint256"
        }
      ],
      "name": "eighthRoot",
      "outputs": [
        {
          "internalType": "bytes32",
          "name": "requestId",
          "type": "bytes32"
        }
      ],
      "stateMutability": "nonpayable",
      "type": "function"
    },
    {
      "inputs": [],
      "name": "erc1155Address",
      "outputs": [
        {
          "internalType": "address",
          "name": "",
          "type": "address"
        }
      ],
      "stateMutability": "view",
      "type": "function"
    },
    {
      "inputs": [],
      "name": "fetchMyNFTs",
      "outputs": [
        {
          "components": [
            {
              "internalType": "uint256",
              "name": "id",
              "type": "uint256"
            },
            {
              "internalType": "address",
              "name": "contractAddress",
              "type": "address"
            },
            {
              "internalType": "uint256",
              "name": "tokenId",
              "type": "uint256"
            },
            {
              "internalType": "string",
              "name": "metadataUri",
              "type": "string"
            },
            {
              "internalType": "address payable",
              "name": "seller",
              "type": "address"
            },
            {
              "internalType": "address payable",
              "name": "owner",
              "type": "address"
            },
            {
              "internalType": "uint256",
              "name": "price",
              "type": "uint256"
            },
            {
              "internalType": "uint256",
              "name": "timestampNFT",
              "type": "uint256"
            },
            {
              "internalType": "uint256",
              "name": "totalVotingPower",
              "type": "uint256"
            },
            {
              "internalType": "uint256",
              "name": "tokenValue",
              "type": "uint256"
            },
            {
              "internalType": "uint256",
              "name": "numberOfBonders",
              "type": "uint256"
            },
            {
              "internalType": "address[]",
              "name": "Bonders",
              "type": "address[]"
            }
          ],
          "internalType": "struct Marketplace.listedNFT[]",
          "name": "",
          "type": "tuple[]"
        }
      ],
      "stateMutability": "view",
      "type": "function"
    },
    {
      "inputs": [
        {
          "internalType": "bytes32",
          "name": "_requestId",
          "type": "bytes32"
        },
        {
          "internalType": "uint256",
          "name": "_volume",
          "type": "uint256"
        }
      ],
      "name": "fulfill",
      "outputs": [],
      "stateMutability": "nonpayable",
      "type": "function"
    },
    {
      "inputs": [],
      "name": "getCurationFee",
      "outputs": [
        {
          "internalType": "uint256",
          "name": "",
          "type": "uint256"
        }
      ],
      "stateMutability": "view",
      "type": "function"
    },
    {
      "inputs": [
        {
          "internalType": "uint256",
          "name": "_marketItemId",
          "type": "uint256"
        }
      ],
      "name": "getMarketItem",
      "outputs": [
        {
          "components": [
            {
              "internalType": "uint256",
              "name": "id",
              "type": "uint256"
            },
            {
              "internalType": "address",
              "name": "contractAddress",
              "type": "address"
            },
            {
              "internalType": "uint256",
              "name": "tokenId",
              "type": "uint256"
            },
            {
              "internalType": "string",
              "name": "metadataUri",
              "type": "string"
            },
            {
              "internalType": "address payable",
              "name": "seller",
              "type": "address"
            },
            {
              "internalType": "address payable",
              "name": "owner",
              "type": "address"
            },
            {
              "internalType": "uint256",
              "name": "price",
              "type": "uint256"
            },
            {
              "internalType": "uint256",
              "name": "timestampNFT",
              "type": "uint256"
            },
            {
              "internalType": "uint256",
              "name": "totalVotingPower",
              "type": "uint256"
            },
            {
              "internalType": "uint256",
              "name": "tokenValue",
              "type": "uint256"
            },
            {
              "internalType": "uint256",
              "name": "numberOfBonders",
              "type": "uint256"
            },
            {
              "internalType": "address[]",
              "name": "Bonders",
              "type": "address[]"
            }
          ],
          "internalType": "struct Marketplace.listedNFT",
          "name": "",
          "type": "tuple"
        }
      ],
      "stateMutability": "view",
      "type": "function"
    },
    {
      "inputs": [],
      "name": "getMyUnclaimedNFTs",
      "outputs": [
        {
          "internalType": "uint256[]",
          "name": "",
          "type": "uint256[]"
        }
      ],
      "stateMutability": "view",
      "type": "function"
    },
    {
      "inputs": [
        {
          "internalType": "uint256",
          "name": "_marketItemId",
          "type": "uint256"
        }
      ],
      "name": "getNFTBond",
      "outputs": [
        {
          "components": [
            {
              "internalType": "uint256",
              "name": "tokenId",
              "type": "uint256"
            },
            {
              "internalType": "uint256",
              "name": "amount",
              "type": "uint256"
            },
            {
              "internalType": "address",
              "name": "user",
              "type": "address"
            },
            {
              "internalType": "bool",
              "name": "isBond",
              "type": "bool"
            },
            {
              "internalType": "uint256",
              "name": "timeStamp",
              "type": "uint256"
            },
            {
              "internalType": "address",
              "name": "erc20Address",
              "type": "address"
            },
            {
              "internalType": "uint256",
              "name": "votingPower",
              "type": "uint256"
            },
            {
              "internalType": "uint256",
              "name": "iconId",
              "type": "uint256"
            }
          ],
          "internalType": "struct Marketplace.bondedNFT[]",
          "name": "",
          "type": "tuple[]"
        }
      ],
      "stateMutability": "view",
      "type": "function"
    },
    {
      "inputs": [
        {
          "internalType": "uint256",
          "name": "_marketItemId",
          "type": "uint256"
        }
      ],
      "name": "getNFTOwner",
      "outputs": [
        {
          "internalType": "address",
          "name": "",
          "type": "address"
        }
      ],
      "stateMutability": "view",
      "type": "function"
    },
    {
      "inputs": [],
      "name": "getUnsoldNFTsOnMarket",
      "outputs": [
        {
          "components": [
            {
              "internalType": "uint256",
              "name": "id",
              "type": "uint256"
            },
            {
              "internalType": "address",
              "name": "contractAddress",
              "type": "address"
            },
            {
              "internalType": "uint256",
              "name": "tokenId",
              "type": "uint256"
            },
            {
              "internalType": "string",
              "name": "metadataUri",
              "type": "string"
            },
            {
              "internalType": "address payable",
              "name": "seller",
              "type": "address"
            },
            {
              "internalType": "address payable",
              "name": "owner",
              "type": "address"
            },
            {
              "internalType": "uint256",
              "name": "price",
              "type": "uint256"
            },
            {
              "internalType": "uint256",
              "name": "timestampNFT",
              "type": "uint256"
            },
            {
              "internalType": "uint256",
              "name": "totalVotingPower",
              "type": "uint256"
            },
            {
              "internalType": "uint256",
              "name": "tokenValue",
              "type": "uint256"
            },
            {
              "internalType": "uint256",
              "name": "numberOfBonders",
              "type": "uint256"
            },
            {
              "internalType": "address[]",
              "name": "Bonders",
              "type": "address[]"
            }
          ],
          "internalType": "struct Marketplace.listedNFT[]",
          "name": "items",
          "type": "tuple[]"
        }
      ],
      "stateMutability": "view",
      "type": "function"
    },
    {
      "inputs": [
        {
          "internalType": "address",
          "name": "_contractAddress",
          "type": "address"
        },
        {
          "internalType": "uint256",
          "name": "_tokenId",
          "type": "uint256"
        },
        {
          "internalType": "string",
          "name": "_metadataUri",
          "type": "string"
        },
        {
          "internalType": "uint256",
          "name": "_price",
          "type": "uint256"
        }
      ],
      "name": "listNFT",
      "outputs": [],
      "stateMutability": "nonpayable",
      "type": "function"
    },
    {
      "inputs": [
        {
          "internalType": "uint256",
          "name": "_a",
          "type": "uint256"
        },
        {
          "internalType": "uint256",
          "name": "_n",
          "type": "uint256"
        },
        {
          "internalType": "uint256",
          "name": "_dp",
          "type": "uint256"
        },
        {
          "internalType": "uint256",
          "name": "_maxIts",
          "type": "uint256"
        }
      ],
      "name": "nthRoot",
      "outputs": [
        {
          "internalType": "uint256",
          "name": "",
          "type": "uint256"
        }
      ],
      "stateMutability": "pure",
      "type": "function"
    },
    {
      "inputs": [],
      "name": "owner",
      "outputs": [
        {
          "internalType": "address",
          "name": "",
          "type": "address"
        }
      ],
      "stateMutability": "view",
      "type": "function"
    },
    {
      "inputs": [],
      "name": "renounceOwnership",
      "outputs": [],
      "stateMutability": "nonpayable",
      "type": "function"
    },
    {
      "inputs": [
        {
          "internalType": "address",
          "name": "newOwner",
          "type": "address"
        }
      ],
      "name": "transferOwnership",
      "outputs": [],
      "stateMutability": "nonpayable",
      "type": "function"
    }
  ],
  "bytecode": "0x608060405260016005553480156200001657600080fd5b50604051620066f7380380620066f783398181016040528101906200003c919062000535565b6200005c620000506200020160201b60201c565b6200020960201b60201c565b6200008c6040518060600160405280602a8152602001620066cd602a913985620002cd60201b620032901760201c565b8360098190555082600a60006101000a81548173ffffffffffffffffffffffffffffffffffffffff021916908373ffffffffffffffffffffffffffffffffffffffff160217905550620000e5826200037360201b60201c565b80600b60006101000a81548173ffffffffffffffffffffffffffffffffffffffff021916908373ffffffffffffffffffffffffffffffffffffffff1602179055507f6262663062616461643239643439646338383735303462616366626239303562600c81905550662386f26fc10000600d819055506040518060400160405280602081526020017f68747470733a2f2f6170692e6d6174686a732e6f72672f76342f3f657870723d815250600e9080519060200190620001a8929190620003e0565b506040518060400160405280600681526020017f5e28312f38290000000000000000000000000000000000000000000000000000815250600f9080519060200190620001f6929190620003e0565b5050505050620006f5565b600033905090565b60008060009054906101000a900473ffffffffffffffffffffffffffffffffffffffff169050816000806101000a81548173ffffffffffffffffffffffffffffffffffffffff021916908373ffffffffffffffffffffffffffffffffffffffff1602179055508173ffffffffffffffffffffffffffffffffffffffff168173ffffffffffffffffffffffffffffffffffffffff167f8be0079c531659141344cd1fd0a4f28419497f9722a3daafe3b4186f6b6457e060405160405180910390a35050565b6200036f8282604051602401620002e69291906200065c565b6040516020818303038152906040527f9710a9d0000000000000000000000000000000000000000000000000000000007bffffffffffffffffffffffffffffffffffffffffffffffffffffffff19166020820180517bffffffffffffffffffffffffffffffffffffffffffffffffffffffff8381831617835250505050620003b760201b60201c565b5050565b80600360006101000a81548173ffffffffffffffffffffffffffffffffffffffff021916908373ffffffffffffffffffffffffffffffffffffffff16021790555050565b60008151905060006a636f6e736f6c652e6c6f679050602083016000808483855afa5050505050565b828054620003ee90620006bf565b90600052602060002090601f0160209004810192826200041257600085556200045e565b82601f106200042d57805160ff19168380011785556200045e565b828001600101855582156200045e579182015b828111156200045d57825182559160200191906001019062000440565b5b5090506200046d919062000471565b5090565b5b808211156200048c57600081600090555060010162000472565b5090565b600080fd5b6000819050919050565b620004aa8162000495565b8114620004b657600080fd5b50565b600081519050620004ca816200049f565b92915050565b600073ffffffffffffffffffffffffffffffffffffffff82169050919050565b6000620004fd82620004d0565b9050919050565b6200050f81620004f0565b81146200051b57600080fd5b50565b6000815190506200052f8162000504565b92915050565b6000806000806080858703121562000552576200055162000490565b5b60006200056287828801620004b9565b945050602062000575878288016200051e565b935050604062000588878288016200051e565b92505060606200059b878288016200051e565b91505092959194509250565b600081519050919050565b600082825260208201905092915050565b60005b83811015620005e3578082015181840152602081019050620005c6565b83811115620005f3576000848401525b50505050565b6000601f19601f8301169050919050565b60006200061782620005a7565b620006238185620005b2565b935062000635818560208601620005c3565b6200064081620005f9565b840191505092915050565b620006568162000495565b82525050565b600060408201905081810360008301526200067881856200060a565b90506200068960208301846200064b565b9392505050565b7f4e487b7100000000000000000000000000000000000000000000000000000000600052602260045260246000fd5b60006002820490506001821680620006d857607f821691505b60208210811415620006ef57620006ee62000690565b5b50919050565b615fc880620007056000396000f3fe6080604052600436106101095760003560e01c80636469cfac116100955780638da5cb5b116100645780638da5cb5b1461034a578063ae169a5014610375578063c7be7a491461039e578063deaea2e3146103db578063f2fde38b1461041857610109565b80636469cfac146102a4578063682575e4146102e1578063715018a61461030a57806386b100d41461032157610109565b80634505ea00116100dc5780634505ea00146101b85780634ce8eef4146101f557806351ed82881461022057806355b92a9e1461023c5780636228f7c31461027957610109565b806301b1c0011461010e5780630514200214610139578063202e3740146101645780634357855e1461018f575b600080fd5b34801561011a57600080fd5b50610123610441565b6040516101309190614277565b60405180910390f35b34801561014557600080fd5b5061014e610731565b60405161015b91906142da565b60405180910390f35b34801561017057600080fd5b50610179610757565b604051610186919061463a565b60405180910390f35b34801561019b57600080fd5b506101b660048036038101906101b191906146d2565b610bd3565b005b3480156101c457600080fd5b506101df60048036038101906101da9190614712565b611013565b6040516101ec919061474e565b60405180910390f35b34801561020157600080fd5b5061020a611138565b604051610217919061463a565b60405180910390f35b61023a60048036038101906102359190614712565b611538565b005b34801561024857600080fd5b50610263600480360381019061025e9190614712565b61181c565b60405161027091906148d6565b60405180910390f35b34801561028557600080fd5b5061028e611b44565b60405161029b9190614907565b60405180910390f35b3480156102b057600080fd5b506102cb60048036038101906102c69190614922565b611b4e565b6040516102d89190614907565b60405180910390f35b3480156102ed57600080fd5b5061030860048036038101906103039190614aea565b611c8b565b005b34801561031657600080fd5b5061031f612010565b005b34801561032d57600080fd5b5061034860048036038101906103439190614b6d565b612098565b005b34801561035657600080fd5b5061035f61291a565b60405161036c91906142da565b60405180910390f35b34801561038157600080fd5b5061039c60048036038101906103979190614712565b612943565b005b3480156103aa57600080fd5b506103c560048036038101906103c09190614712565b612e22565b6040516103d29190614cdf565b60405180910390f35b3480156103e757600080fd5b5061040260048036038101906103fd9190614712565b6130be565b60405161040f91906142da565b60405180910390f35b34801561042457600080fd5b5061043f600480360381019061043a9190614d01565b613198565b005b6060600061044f600761332c565b905060008060005b8381101561057557600073ffffffffffffffffffffffffffffffffffffffff16601060006001846104889190614d5d565b815260200190815260200160002060050160009054906101000a900473ffffffffffffffffffffffffffffffffffffffff1673ffffffffffffffffffffffffffffffffffffffff161415801561054e575060011515601160006001846104ee9190614d5d565b815260200190815260200160002060003373ffffffffffffffffffffffffffffffffffffffff1673ffffffffffffffffffffffffffffffffffffffff16815260200190815260200160002060020160149054906101000a900460ff161515145b1561056257828061055e90614db3565b9350505b808061056d90614db3565b915050610457565b5060008267ffffffffffffffff811115610592576105916149bf565b5b6040519080825280602002602001820160405280156105c05781602001602082028036833780820191505090505b50905060005b8481101561072657600073ffffffffffffffffffffffffffffffffffffffff16601060006001846105f79190614d5d565b815260200190815260200160002060050160009054906101000a900473ffffffffffffffffffffffffffffffffffffffff1673ffffffffffffffffffffffffffffffffffffffff16141580156106bd5750600115156011600060018461065d9190614d5d565b815260200190815260200160002060003373ffffffffffffffffffffffffffffffffffffffff1673ffffffffffffffffffffffffffffffffffffffff16815260200190815260200160002060020160149054906101000a900460ff161515145b1561071357601060006001836106d39190614d5d565b8152602001908152602001600020600001548284815181106106f8576106f7614dfc565b5b602002602001018181525050828061070f90614db3565b9350505b808061071e90614db3565b9150506105c6565b508094505050505090565b600a60009054906101000a900473ffffffffffffffffffffffffffffffffffffffff1681565b60606000610765600761332c565b905060008060005b8381101561080e573373ffffffffffffffffffffffffffffffffffffffff166010600060018461079d9190614d5d565b815260200190815260200160002060050160009054906101000a900473ffffffffffffffffffffffffffffffffffffffff1673ffffffffffffffffffffffffffffffffffffffff1614156107fb576001836107f89190614d5d565b92505b808061080690614db3565b91505061076d565b5060008267ffffffffffffffff81111561082b5761082a6149bf565b5b60405190808252806020026020018201604052801561086457816020015b610851613f6f565b8152602001906001900390816108495790505b50905060005b84811015610bc8573373ffffffffffffffffffffffffffffffffffffffff166010600060018461089a9190614d5d565b815260200190815260200160002060050160009054906101000a900473ffffffffffffffffffffffffffffffffffffffff1673ffffffffffffffffffffffffffffffffffffffff161415610bb55760006001826108f79190614d5d565b905060006010600083815260200190815260200160002090508060405180610180016040529081600082015481526020016001820160009054906101000a900473ffffffffffffffffffffffffffffffffffffffff1673ffffffffffffffffffffffffffffffffffffffff1673ffffffffffffffffffffffffffffffffffffffff1681526020016002820154815260200160038201805461099790614e5a565b80601f01602080910402602001604051908101604052809291908181526020018280546109c390614e5a565b8015610a105780601f106109e557610100808354040283529160200191610a10565b820191906000526020600020905b8154815290600101906020018083116109f357829003601f168201915b505050505081526020016004820160009054906101000a900473ffffffffffffffffffffffffffffffffffffffff1673ffffffffffffffffffffffffffffffffffffffff1673ffffffffffffffffffffffffffffffffffffffff1681526020016005820160009054906101000a900473ffffffffffffffffffffffffffffffffffffffff1673ffffffffffffffffffffffffffffffffffffffff1673ffffffffffffffffffffffffffffffffffffffff16815260200160068201548152602001600782015481526020016008820154815260200160098201548152602001600a8201548152602001600b8201805480602002602001604051908101604052809291908181526020018280548015610b7c57602002820191906000526020600020905b8160009054906101000a900473ffffffffffffffffffffffffffffffffffffffff1673ffffffffffffffffffffffffffffffffffffffff1681526020019060010190808311610b32575b505050505081525050848681518110610b9857610b97614dfc565b5b6020026020010181905250600185610bb09190614d5d565b945050505b8080610bc090614db3565b91505061086a565b508094505050505090565b816006600082815260200190815260200160002060009054906101000a900473ffffffffffffffffffffffffffffffffffffffff1673ffffffffffffffffffffffffffffffffffffffff163373ffffffffffffffffffffffffffffffffffffffff1614610c75576040517f08c379a0000000000000000000000000000000000000000000000000000000008152600401610c6c90614f0f565b60405180910390fd5b6006600082815260200190815260200160002060006101000a81549073ffffffffffffffffffffffffffffffffffffffff0219169055807f7cc135e0cebb02c3480ae5d74d377283180a2601f8f644edf7987b009316c63a60405160405180910390a260006012600085815260200190815260200160002060000160009054906101000a900473ffffffffffffffffffffffffffffffffffffffff1690506000601260008681526020019081526020016000206001015490506000606485610d3d9190614f5e565b610d9f6011600085815260200190815260200160002060008673ffffffffffffffffffffffffffffffffffffffff1673ffffffffffffffffffffffffffffffffffffffff16815260200190815260200160002060010154600260126014611b4e565b610da99190614f5e565b9050806011600084815260200190815260200160002060008573ffffffffffffffffffffffffffffffffffffffff1673ffffffffffffffffffffffffffffffffffffffff16815260200190815260200160002060050181905550600a60009054906101000a900473ffffffffffffffffffffffffffffffffffffffff1673ffffffffffffffffffffffffffffffffffffffff1663731133e984846011600087815260200190815260200160002060008873ffffffffffffffffffffffffffffffffffffffff1673ffffffffffffffffffffffffffffffffffffffff168152602001908152602001600020600501546040518463ffffffff1660e01b8152600401610eb593929190614fec565b600060405180830381600087803b158015610ecf57600080fd5b505af1158015610ee3573d6000803e3d6000fd5b505050506011600083815260200190815260200160002060008473ffffffffffffffffffffffffffffffffffffffff1673ffffffffffffffffffffffffffffffffffffffff168152602001908152602001600020600501546010600084815260200190815260200160002060080154610f5c9190614d5d565b6010600084815260200190815260200160002060080181905550601060008381526020019081526020016000206008015460646010600085815260200190815260200160002060060154610fb09190614f5e565b610fba9190614f5e565b60106000848152602001908152602001600020600901819055507f9e0bb4afdbf87f067e4109b80b01934bfaf1e7e9560dcb90f23f17d320fb88f7816040516110039190614907565b60405180910390a1505050505050565b60008061101f8361333a565b90506000611037600c5430634357855e60e01b6134c3565b90506110a86040518060400160405280600381526020017f6765740000000000000000000000000000000000000000000000000000000000815250600e84600f60405160200161108993929190615106565b604051602081830303815290604052836134f49092919063ffffffff16565b6000670de0b6b3a764000090506110ff6040518060400160405280600581526020017f74696d657300000000000000000000000000000000000000000000000000000081525082846135279092919063ffffffff16565b61112e600b60009054906101000a900473ffffffffffffffffffffffffffffffffffffffff1683600d5461355a565b9350505050919050565b60606000611146600761332c565b90506000611154600861332c565b8261115f9190615137565b905060008167ffffffffffffffff81111561117d5761117c6149bf565b5b6040519080825280602002602001820160405280156111b657816020015b6111a3613f6f565b81526020019060019003908161119b5790505b50935060005b8381101561153157600073ffffffffffffffffffffffffffffffffffffffff16601060006001846111ed9190614d5d565b815260200190815260200160002060050160009054906101000a900473ffffffffffffffffffffffffffffffffffffffff1673ffffffffffffffffffffffffffffffffffffffff16141561151e5760006010600060018461124e9190614d5d565b815260200190815260200160002060000154905060006010600083815260200190815260200160002090508060405180610180016040529081600082015481526020016001820160009054906101000a900473ffffffffffffffffffffffffffffffffffffffff1673ffffffffffffffffffffffffffffffffffffffff1673ffffffffffffffffffffffffffffffffffffffff1681526020016002820154815260200160038201805461130090614e5a565b80601f016020809104026020016040519081016040528092919081815260200182805461132c90614e5a565b80156113795780601f1061134e57610100808354040283529160200191611379565b820191906000526020600020905b81548152906001019060200180831161135c57829003601f168201915b505050505081526020016004820160009054906101000a900473ffffffffffffffffffffffffffffffffffffffff1673ffffffffffffffffffffffffffffffffffffffff1673ffffffffffffffffffffffffffffffffffffffff1681526020016005820160009054906101000a900473ffffffffffffffffffffffffffffffffffffffff1673ffffffffffffffffffffffffffffffffffffffff1673ffffffffffffffffffffffffffffffffffffffff16815260200160068201548152602001600782015481526020016008820154815260200160098201548152602001600a8201548152602001600b82018054806020026020016040519081016040528092919081815260200182805480156114e557602002820191906000526020600020905b8160009054906101000a900473ffffffffffffffffffffffffffffffffffffffff1673ffffffffffffffffffffffffffffffffffffffff168152602001906001019080831161149b575b50505050508152505087858151811061150157611500614dfc565b5b60200260200101819052506001846115199190614d5d565b935050505b808061152990614db3565b9150506111bc565b5050505090565b6010600082815260200190815260200160002060040160009054906101000a900473ffffffffffffffffffffffffffffffffffffffff1673ffffffffffffffffffffffffffffffffffffffff163373ffffffffffffffffffffffffffffffffffffffff1614156115a757600080fd5b60006010600083815260200190815260200160002060060154905060006010600084815260200190815260200160002060020154905060006010600085815260200190815260200160002060040160009054906101000a900473ffffffffffffffffffffffffffffffffffffffff16905060006010600086815260200190815260200160002060010160009054906101000a900473ffffffffffffffffffffffffffffffffffffffff169050833414611695576040517f08c379a000000000000000000000000000000000000000000000000000000000815260040161168c906151b7565b60405180910390fd5b336010600087815260200190815260200160002060050160006101000a81548173ffffffffffffffffffffffffffffffffffffffff021916908373ffffffffffffffffffffffffffffffffffffffff1602179055508073ffffffffffffffffffffffffffffffffffffffff166323b872dd8333866040518463ffffffff1660e01b815260040161172793929190615236565b600060405180830381600087803b15801561174157600080fd5b505af1158015611755573d6000803e3d6000fd5b505050508173ffffffffffffffffffffffffffffffffffffffff166108fc6064866117809190614f5e565b8661178b9190615137565b9081150290604051600060405180830381858888f193505050501580156117b6573d6000803e3d6000fd5b506117c1600861357a565b828173ffffffffffffffffffffffffffffffffffffffff16867fd149f58da1dff89c18946d3ebf3588c7e52cb96cdbb10ca1baf80c14178f524b85338960405161180d93929190615236565b60405180910390a45050505050565b6060600060106000848152602001908152602001600020600a0154905060008167ffffffffffffffff811115611855576118546149bf565b5b60405190808252806020026020018201604052801561188e57816020015b61187b614012565b8152602001906001900390816118735790505b50905060005b82811015611b39576000151560116000878152602001908152602001600020600060106000898152602001908152602001600020600b0184815481106118dd576118dc614dfc565b5b9060005260206000200160009054906101000a900473ffffffffffffffffffffffffffffffffffffffff1673ffffffffffffffffffffffffffffffffffffffff1673ffffffffffffffffffffffffffffffffffffffff16815260200190815260200160002060020160149054906101000a900460ff16151514611b2657600060116000878152602001908152602001600020600060106000898152602001908152602001600020600b01848154811061199957611998614dfc565b5b9060005260206000200160009054906101000a900473ffffffffffffffffffffffffffffffffffffffff1673ffffffffffffffffffffffffffffffffffffffff1673ffffffffffffffffffffffffffffffffffffffff1681526020019081526020016000209050806040518061010001604052908160008201548152602001600182015481526020016002820160009054906101000a900473ffffffffffffffffffffffffffffffffffffffff1673ffffffffffffffffffffffffffffffffffffffff1673ffffffffffffffffffffffffffffffffffffffff1681526020016002820160149054906101000a900460ff16151515158152602001600382015481526020016004820160009054906101000a900473ffffffffffffffffffffffffffffffffffffffff1673ffffffffffffffffffffffffffffffffffffffff1673ffffffffffffffffffffffffffffffffffffffff16815260200160058201548152602001600682015481525050838381518110611b1957611b18614dfc565b5b6020026020010181905250505b8080611b3190614db3565b915050611894565b508092505050919050565b6000600954905090565b600060018411611b6157611b6061526d565b5b6000836001611b709190614d5d565b600a611b7c91906153cf565b90506000868683611b8d91906153cf565b611b97919061541a565b9050600082905060006001905060005b818314158015611bb657508681105b15611c6357829150600060018a611bcd9190615137565b83611bd891906153cf565b9050848184611be7919061541a565b1115611c2157898186611bfa9190614f5e565b84611c059190615137565b611c0f9190614f5e565b83611c1a9190615137565b9350611c51565b89838287611c2f9190614f5e565b611c399190615137565b611c439190614f5e565b83611c4e9190614d5d565b93505b81611c5b90614db3565b915050611ba7565b600a600584611c729190614d5d565b611c7c9190614f5e565b95505050505050949350505050565b60008111611cce576040517f08c379a0000000000000000000000000000000000000000000000000000000008152600401611cc5906154c0565b60405180910390fd5b3373ffffffffffffffffffffffffffffffffffffffff168473ffffffffffffffffffffffffffffffffffffffff16636352211e856040518263ffffffff1660e01b8152600401611d1e9190614907565b602060405180830381865afa158015611d3b573d6000803e3d6000fd5b505050506040513d601f19601f82011682018060405250810190611d5f91906154f5565b73ffffffffffffffffffffffffffffffffffffffff1614611db5576040517f08c379a0000000000000000000000000000000000000000000000000000000008152600401611dac9061556e565b60405180910390fd5b611dbf600761357a565b6000611dcb600761332c565b9050806010600083815260200190815260200160002060000181905550846010600083815260200190815260200160002060010160006101000a81548173ffffffffffffffffffffffffffffffffffffffff021916908373ffffffffffffffffffffffffffffffffffffffff160217905550836010600083815260200190815260200160002060020181905550336010600083815260200190815260200160002060040160006101000a81548173ffffffffffffffffffffffffffffffffffffffff021916908373ffffffffffffffffffffffffffffffffffffffff16021790555060006010600083815260200190815260200160002060050160006101000a81548173ffffffffffffffffffffffffffffffffffffffff021916908373ffffffffffffffffffffffffffffffffffffffff16021790555081601060008381526020019081526020016000206006018190555082601060008381526020019081526020016000206003019080519060200190611f48929190614085565b5042601060008381526020019081526020016000206007018190555060016010600083815260200190815260200160002060080181905550600060106000838152602001908152602001600020600a0181905550838573ffffffffffffffffffffffffffffffffffffffff16827f7cbfcf258cc3aeee8e717152f695ef2ba70d99d7fa0ecc2147944cbdf6181b75336000876010600089815260200190815260200160002060070154604051612001949392919061558e565b60405180910390a45050505050565b612018613590565b73ffffffffffffffffffffffffffffffffffffffff1661203661291a565b73ffffffffffffffffffffffffffffffffffffffff161461208c576040517f08c379a00000000000000000000000000000000000000000000000000000000081526004016120839061561f565b60405180910390fd5b6120966000613598565b565b600083116120db576040517f08c379a00000000000000000000000000000000000000000000000000000000081526004016120d29061568b565b60405180910390fd5b828273ffffffffffffffffffffffffffffffffffffffff166370a08231336040518263ffffffff1660e01b815260040161211591906142da565b602060405180830381865afa158015612132573d6000803e3d6000fd5b505050506040513d601f19601f8201168201806040525081019061215691906156c0565b1015612197576040517f08c379a000000000000000000000000000000000000000000000000000000000815260040161218e9061575f565b60405180910390fd5b600015156011600086815260200190815260200160002060003373ffffffffffffffffffffffffffffffffffffffff1673ffffffffffffffffffffffffffffffffffffffff16815260200190815260200160002060020160149054906101000a900460ff1615151461223e576040517f08c379a0000000000000000000000000000000000000000000000000000000008152600401612235906157cb565b60405180910390fd5b600073ffffffffffffffffffffffffffffffffffffffff166010600086815260200190815260200160002060050160009054906101000a900473ffffffffffffffffffffffffffffffffffffffff1673ffffffffffffffffffffffffffffffffffffffff16146122e3576040517f08c379a00000000000000000000000000000000000000000000000000000000081526004016122da90615837565b60405180910390fd5b60048110612326576040517f08c379a000000000000000000000000000000000000000000000000000000000815260040161231d906158a3565b60405180910390fd5b8173ffffffffffffffffffffffffffffffffffffffff166323b872dd3330866040518463ffffffff1660e01b8152600401612363939291906158c3565b6020604051808303816000875af1158015612382573d6000803e3d6000fd5b505050506040513d601f19601f820116820180604052508101906123a69190615926565b50826011600086815260200190815260200160002060003373ffffffffffffffffffffffffffffffffffffffff1673ffffffffffffffffffffffffffffffffffffffff16815260200190815260200160002060010181905550336011600086815260200190815260200160002060003373ffffffffffffffffffffffffffffffffffffffff1673ffffffffffffffffffffffffffffffffffffffff16815260200190815260200160002060020160006101000a81548173ffffffffffffffffffffffffffffffffffffffff021916908373ffffffffffffffffffffffffffffffffffffffff16021790555060016011600086815260200190815260200160002060003373ffffffffffffffffffffffffffffffffffffffff1673ffffffffffffffffffffffffffffffffffffffff16815260200190815260200160002060020160146101000a81548160ff02191690831515021790555060106000858152602001908152602001600020600201546011600086815260200190815260200160002060003373ffffffffffffffffffffffffffffffffffffffff1673ffffffffffffffffffffffffffffffffffffffff16815260200190815260200160002060000181905550816011600086815260200190815260200160002060003373ffffffffffffffffffffffffffffffffffffffff1673ffffffffffffffffffffffffffffffffffffffff16815260200190815260200160002060040160006101000a81548173ffffffffffffffffffffffffffffffffffffffff021916908373ffffffffffffffffffffffffffffffffffffffff160217905550426011600086815260200190815260200160002060003373ffffffffffffffffffffffffffffffffffffffff1673ffffffffffffffffffffffffffffffffffffffff16815260200190815260200160002060030181905550806011600086815260200190815260200160002060003373ffffffffffffffffffffffffffffffffffffffff1673ffffffffffffffffffffffffffffffffffffffff16815260200190815260200160002060060181905550600060106000868152602001908152602001600020600701546011600087815260200190815260200160002060003373ffffffffffffffffffffffffffffffffffffffff1673ffffffffffffffffffffffffffffffffffffffff168152602001908152602001600020600301546127249190615137565b9050600160106000878152602001908152602001600020600a01546127499190614d5d565b60106000878152602001908152602001600020600a018190555060106000868152602001908152602001600020600b01339080600181540180825580915050600190039060005260206000200160009091909190916101000a81548173ffffffffffffffffffffffffffffffffffffffff021916908373ffffffffffffffffffffffffffffffffffffffff16021790555060006127e582611013565b9050336012600083815260200190815260200160002060000160006101000a81548173ffffffffffffffffffffffffffffffffffffffff021916908373ffffffffffffffffffffffffffffffffffffffff1602179055508560126000838152602001908152602001600020600101819055506010600087815260200190815260200160002060020154867fbbc8c1f22f5a5ebca191715f8652bc63db7ff2bf982d6d329b24250d7aa236b8874288601160008d815260200190815260200160002060003373ffffffffffffffffffffffffffffffffffffffff1673ffffffffffffffffffffffffffffffffffffffff16815260200190815260200160002060020160149054906101000a900460ff1633888b60405161290a9796959493929190615962565b60405180910390a3505050505050565b60008060009054906101000a900473ffffffffffffffffffffffffffffffffffffffff16905090565b600115156011600083815260200190815260200160002060003373ffffffffffffffffffffffffffffffffffffffff1673ffffffffffffffffffffffffffffffffffffffff16815260200190815260200160002060020160149054906101000a900460ff161515146129ea576040517f08c379a00000000000000000000000000000000000000000000000000000000081526004016129e190615a1d565b60405180910390fd5b600073ffffffffffffffffffffffffffffffffffffffff166010600083815260200190815260200160002060050160009054906101000a900473ffffffffffffffffffffffffffffffffffffffff1673ffffffffffffffffffffffffffffffffffffffff161415612a90576040517f08c379a0000000000000000000000000000000000000000000000000000000008152600401612a8790615a89565b60405180910390fd5b600060106000838152602001908152602001600020600901546011600084815260200190815260200160002060003373ffffffffffffffffffffffffffffffffffffffff1673ffffffffffffffffffffffffffffffffffffffff16815260200190815260200160002060050154612b07919061541a565b90506000339050600a60009054906101000a900473ffffffffffffffffffffffffffffffffffffffff1673ffffffffffffffffffffffffffffffffffffffff1663f5298aca33856011600088815260200190815260200160002060003373ffffffffffffffffffffffffffffffffffffffff1673ffffffffffffffffffffffffffffffffffffffff168152602001908152602001600020600501546040518463ffffffff1660e01b8152600401612bc093929190615aa9565b600060405180830381600087803b158015612bda57600080fd5b505af1158015612bee573d6000803e3d6000fd5b505050506011600084815260200190815260200160002060003373ffffffffffffffffffffffffffffffffffffffff1673ffffffffffffffffffffffffffffffffffffffff16815260200190815260200160002060040160009054906101000a900473ffffffffffffffffffffffffffffffffffffffff1673ffffffffffffffffffffffffffffffffffffffff166323b872dd30336011600088815260200190815260200160002060003373ffffffffffffffffffffffffffffffffffffffff1673ffffffffffffffffffffffffffffffffffffffff168152602001908152602001600020600101546040518463ffffffff1660e01b8152600401612cf5939291906158c3565b6020604051808303816000875af1158015612d14573d6000803e3d6000fd5b505050506040513d601f19601f82011682018060405250810190612d389190615926565b508073ffffffffffffffffffffffffffffffffffffffff166108fc839081150290604051600060405180830381858888f19350505050158015612d7f573d6000803e3d6000fd5b50600015156011600085815260200190815260200160002060003373ffffffffffffffffffffffffffffffffffffffff1673ffffffffffffffffffffffffffffffffffffffff16815260200190815260200160002060020160149054906101000a905050507f94f7e1faf1ea1155312a8cbf4d6de9661c699da906fe30e0685aebcc309fd8bb8233604051612e15929190615ae0565b60405180910390a1505050565b612e2a613f6f565b60006010600084815260200190815260200160002090508060405180610180016040529081600082015481526020016001820160009054906101000a900473ffffffffffffffffffffffffffffffffffffffff1673ffffffffffffffffffffffffffffffffffffffff1673ffffffffffffffffffffffffffffffffffffffff16815260200160028201548152602001600382018054612ec890614e5a565b80601f0160208091040260200160405190810160405280929190818152602001828054612ef490614e5a565b8015612f415780601f10612f1657610100808354040283529160200191612f41565b820191906000526020600020905b815481529060010190602001808311612f2457829003601f168201915b505050505081526020016004820160009054906101000a900473ffffffffffffffffffffffffffffffffffffffff1673ffffffffffffffffffffffffffffffffffffffff1673ffffffffffffffffffffffffffffffffffffffff1681526020016005820160009054906101000a900473ffffffffffffffffffffffffffffffffffffffff1673ffffffffffffffffffffffffffffffffffffffff1673ffffffffffffffffffffffffffffffffffffffff16815260200160068201548152602001600782015481526020016008820154815260200160098201548152602001600a8201548152602001600b82018054806020026020016040519081016040528092919081815260200182805480156130ad57602002820191906000526020600020905b8160009054906101000a900473ffffffffffffffffffffffffffffffffffffffff1673ffffffffffffffffffffffffffffffffffffffff1681526020019060010190808311613063575b505050505081525050915050919050565b6000806010600084815260200190815260200160002060010160009054906101000a900473ffffffffffffffffffffffffffffffffffffffff1690506000601060008581526020019081526020016000206002015490508173ffffffffffffffffffffffffffffffffffffffff16636352211e826040518263ffffffff1660e01b815260040161314e9190614907565b602060405180830381865afa15801561316b573d6000803e3d6000fd5b505050506040513d601f19601f8201168201806040525081019061318f91906154f5565b92505050919050565b6131a0613590565b73ffffffffffffffffffffffffffffffffffffffff166131be61291a565b73ffffffffffffffffffffffffffffffffffffffff1614613214576040517f08c379a000000000000000000000000000000000000000000000000000000000815260040161320b9061561f565b60405180910390fd5b600073ffffffffffffffffffffffffffffffffffffffff168173ffffffffffffffffffffffffffffffffffffffff161415613284576040517f08c379a000000000000000000000000000000000000000000000000000000000815260040161327b90615b7b565b60405180910390fd5b61328d81613598565b50565b61332882826040516024016132a6929190615bd4565b6040516020818303038152906040527f9710a9d0000000000000000000000000000000000000000000000000000000007bffffffffffffffffffffffffffffffffffffffffffffffffffffffff19166020820180517bffffffffffffffffffffffffffffffffffffffffffffffffffffffff838183161783525050505061365c565b5050565b600081600001549050919050565b60606000821415613382576040518060400160405280600181526020017f300000000000000000000000000000000000000000000000000000000000000081525090506134be565b600082905060005b600082146133b457808061339d90614db3565b915050600a826133ad9190614f5e565b915061338a565b60008167ffffffffffffffff8111156133d0576133cf6149bf565b5b6040519080825280601f01601f1916602001820160405280156134025781602001600182028036833780820191505090505b50905060008290505b600086146134b6576001816134209190615137565b90506000600a80886134329190614f5e565b61343c919061541a565b876134479190615137565b60306134539190615c11565b905060008160f81b90508084848151811061347157613470614dfc565b5b60200101907effffffffffffffffffffffffffffffffffffffffffffffffffffffffffffff1916908160001a905350600a886134ad9190614f5e565b9750505061340b565b819450505050505b919050565b6134cb61410b565b6134d361410b565b6134ea85858584613685909392919063ffffffff16565b9150509392505050565b61350b82846080015161373590919063ffffffff16565b61352281846080015161373590919063ffffffff16565b505050565b61353e82846080015161373590919063ffffffff16565b61355581846080015161375a90919063ffffffff16565b505050565b60006135718484846001634042994660e01b613807565b90509392505050565b6001816000016000828254019250508190555050565b600033905090565b60008060009054906101000a900473ffffffffffffffffffffffffffffffffffffffff169050816000806101000a81548173ffffffffffffffffffffffffffffffffffffffff021916908373ffffffffffffffffffffffffffffffffffffffff1602179055508173ffffffffffffffffffffffffffffffffffffffff168173ffffffffffffffffffffffffffffffffffffffff167f8be0079c531659141344cd1fd0a4f28419497f9722a3daafe3b4186f6b6457e060405160405180910390a35050565b60008151905060006a636f6e736f6c652e6c6f679050602083016000808483855afa5050505050565b61368d61410b565b61369d8560800151610100613a60565b508385600001818152505082856020019073ffffffffffffffffffffffffffffffffffffffff16908173ffffffffffffffffffffffffffffffffffffffff16815250508185604001907bffffffffffffffffffffffffffffffffffffffffffffffffffffffff191690817bffffffffffffffffffffffffffffffffffffffffffffffffffffffff191681525050849050949350505050565b6137428260038351613aca565b6137558183613c0f90919063ffffffff16565b505050565b7fffffffffffffffffffffffffffffffffffffffffffffffff00000000000000008112156137915761378c8282613c31565b613803565b67ffffffffffffffff8113156137b0576137ab8282613ca8565b613802565b600081126137c9576137c482600083613aca565b613801565b613800826001837fffffffffffffffffffffffffffffffffffffffffffffffffffffffffffffffff6137fb9190615c52565b613aca565b5b5b5b5050565b60003060055460405160200161381e929190615d61565b604051602081830303815290604052805190602001209050600554856060018181525050856006600083815260200190815260200160002060006101000a81548173ffffffffffffffffffffffffffffffffffffffff021916908373ffffffffffffffffffffffffffffffffffffffff160217905550807fb5e6e01e79f91267dc17b4e6314d5d4d03593d2ceee0fbb452b750bd70ea5af960405160405180910390a2600082600080886000015189602001518a604001518b606001518a8d60800151600001516040516024016138fc989796959493929190615e0c565b604051602081830303815290604052907bffffffffffffffffffffffffffffffffffffffffffffffffffffffff19166020820180517bffffffffffffffffffffffffffffffffffffffffffffffffffffffff83818316178352505050509050600360009054906101000a900473ffffffffffffffffffffffffffffffffffffffff1673ffffffffffffffffffffffffffffffffffffffff16634000aea08887846040518463ffffffff1660e01b81526004016139ba93929190615e91565b6020604051808303816000875af11580156139d9573d6000803e3d6000fd5b505050506040513d601f19601f820116820180604052508101906139fd9190615926565b613a3c576040517f08c379a0000000000000000000000000000000000000000000000000000000008152600401613a3390615f41565b60405180910390fd5b600160056000828254613a4f9190614d5d565b925050819055505095945050505050565b613a68614178565b6000602083613a779190615f61565b14613aa357602082613a899190615f61565b6020613a959190615137565b82613aa09190614d5d565b91505b81836020018181525050604051808452600081528281016020016040525082905092915050565b60178111613af757613af18160058460ff16901b60ff161784613cf490919063ffffffff16565b50613c0a565b60ff8111613b3957613b1c601860058460ff16901b1784613cf490919063ffffffff16565b50613b3381600185613d149092919063ffffffff16565b50613c09565b61ffff8111613b7c57613b5f601960058460ff16901b1784613cf490919063ffffffff16565b50613b7681600285613d149092919063ffffffff16565b50613c08565b63ffffffff8111613bc157613ba4601a60058460ff16901b1784613cf490919063ffffffff16565b50613bbb81600485613d149092919063ffffffff16565b50613c07565b67ffffffffffffffff8111613c0657613bed601b60058460ff16901b1784613cf490919063ffffffff16565b50613c0481600885613d149092919063ffffffff16565b505b5b5b5b5b505050565b613c17614178565b613c2983846000015151848551613d36565b905092915050565b613c4f60036005600660ff16901b1783613cf490919063ffffffff16565b50613ca482827fffffffffffffffffffffffffffffffffffffffffffffffffffffffffffffffff613c809190615c52565b604051602001613c909190614907565b604051602081830303815290604052613e25565b5050565b613cc660026005600660ff16901b1783613cf490919063ffffffff16565b50613cf08282604051602001613cdc9190614907565b604051602081830303815290604052613e25565b5050565b613cfc614178565b613d0c8384600001515184613e4a565b905092915050565b613d1c614178565b613d2d848560000151518585613ea1565b90509392505050565b613d3e614178565b8251821115613d4c57600080fd5b84602001518285613d5d9190614d5d565b1115613d9257613d91856002613d8288602001518887613d7d9190614d5d565b613f2f565b613d8c919061541a565b613f4b565b5b600080865180518760208301019350808887011115613db15787860182525b60208701925050505b60208410613df85780518252602082613dd39190614d5d565b9150602081613de29190614d5d565b9050602084613df19190615137565b9350613dba565b60006001856020036101000a03905080198251168184511681811785525050508692505050949350505050565b613e328260028351613aca565b613e458183613c0f90919063ffffffff16565b505050565b613e52614178565b83602001518310613e7857613e778460028660200151613e72919061541a565b613f4b565b5b8351805160208583010184815381861415613e94576001820183525b5050508390509392505050565b613ea9614178565b84602001518483613eba9190614d5d565b1115613ee257613ee18560028685613ed29190614d5d565b613edc919061541a565b613f4b565b5b6000600183610100613ef491906153cf565b613efe9190615137565b90508551838682010185831982511617815281518588011115613f215784870182525b505085915050949350505050565b600081831115613f4157829050613f45565b8190505b92915050565b600082600001519050613f5e8383613a60565b50613f698382613c0f565b50505050565b60405180610180016040528060008152602001600073ffffffffffffffffffffffffffffffffffffffff1681526020016000815260200160608152602001600073ffffffffffffffffffffffffffffffffffffffff168152602001600073ffffffffffffffffffffffffffffffffffffffff1681526020016000815260200160008152602001600081526020016000815260200160008152602001606081525090565b6040518061010001604052806000815260200160008152602001600073ffffffffffffffffffffffffffffffffffffffff16815260200160001515815260200160008152602001600073ffffffffffffffffffffffffffffffffffffffff16815260200160008152602001600081525090565b82805461409190614e5a565b90600052602060002090601f0160209004810192826140b357600085556140fa565b82601f106140cc57805160ff19168380011785556140fa565b828001600101855582156140fa579182015b828111156140f95782518255916020019190600101906140de565b5b5090506141079190614192565b5090565b6040518060a0016040528060008019168152602001600073ffffffffffffffffffffffffffffffffffffffff16815260200160007bffffffffffffffffffffffffffffffffffffffffffffffffffffffff1916815260200160008152602001614172614178565b81525090565b604051806040016040528060608152602001600081525090565b5b808211156141ab576000816000905550600101614193565b5090565b600081519050919050565b600082825260208201905092915050565b6000819050602082019050919050565b6000819050919050565b6141ee816141db565b82525050565b600061420083836141e5565b60208301905092915050565b6000602082019050919050565b6000614224826141af565b61422e81856141ba565b9350614239836141cb565b8060005b8381101561426a57815161425188826141f4565b975061425c8361420c565b92505060018101905061423d565b5085935050505092915050565b600060208201905081810360008301526142918184614219565b905092915050565b600073ffffffffffffffffffffffffffffffffffffffff82169050919050565b60006142c482614299565b9050919050565b6142d4816142b9565b82525050565b60006020820190506142ef60008301846142cb565b92915050565b600081519050919050565b600082825260208201905092915050565b6000819050602082019050919050565b61432a816142b9565b82525050565b600081519050919050565b600082825260208201905092915050565b60005b8381101561436a57808201518184015260208101905061434f565b83811115614379576000848401525b50505050565b6000601f19601f8301169050919050565b600061439b82614330565b6143a5818561433b565b93506143b581856020860161434c565b6143be8161437f565b840191505092915050565b60006143d482614299565b9050919050565b6143e4816143c9565b82525050565b600081519050919050565b600082825260208201905092915050565b6000819050602082019050919050565b60006144228383614321565b60208301905092915050565b6000602082019050919050565b6000614446826143ea565b61445081856143f5565b935061445b83614406565b8060005b8381101561448c5781516144738882614416565b975061447e8361442e565b92505060018101905061445f565b5085935050505092915050565b6000610180830160008301516144b260008601826141e5565b5060208301516144c56020860182614321565b5060408301516144d860408601826141e5565b50606083015184820360608601526144f08282614390565b915050608083015161450560808601826143db565b5060a083015161451860a08601826143db565b5060c083015161452b60c08601826141e5565b5060e083015161453e60e08601826141e5565b506101008301516145536101008601826141e5565b506101208301516145686101208601826141e5565b5061014083015161457d6101408601826141e5565b50610160830151848203610160860152614597828261443b565b9150508091505092915050565b60006145b08383614499565b905092915050565b6000602082019050919050565b60006145d0826142f5565b6145da8185614300565b9350836020820285016145ec85614311565b8060005b85811015614628578484038952815161460985826145a4565b9450614614836145b8565b925060208a019950506001810190506145f0565b50829750879550505050505092915050565b6000602082019050818103600083015261465481846145c5565b905092915050565b6000604051905090565b600080fd5b600080fd5b6000819050919050565b61468381614670565b811461468e57600080fd5b50565b6000813590506146a08161467a565b92915050565b6146af816141db565b81146146ba57600080fd5b50565b6000813590506146cc816146a6565b92915050565b600080604083850312156146e9576146e8614666565b5b60006146f785828601614691565b9250506020614708858286016146bd565b9150509250929050565b60006020828403121561472857614727614666565b5b6000614736848285016146bd565b91505092915050565b61474881614670565b82525050565b6000602082019050614763600083018461473f565b92915050565b600081519050919050565b600082825260208201905092915050565b6000819050602082019050919050565b60008115159050919050565b6147aa81614795565b82525050565b610100820160008201516147c760008501826141e5565b5060208201516147da60208501826141e5565b5060408201516147ed6040850182614321565b50606082015161480060608501826147a1565b50608082015161481360808501826141e5565b5060a082015161482660a0850182614321565b5060c082015161483960c08501826141e5565b5060e082015161484c60e08501826141e5565b50505050565b600061485e83836147b0565b6101008301905092915050565b6000602082019050919050565b600061488382614769565b61488d8185614774565b935061489883614785565b8060005b838110156148c95781516148b08882614852565b97506148bb8361486b565b92505060018101905061489c565b5085935050505092915050565b600060208201905081810360008301526148f08184614878565b905092915050565b614901816141db565b82525050565b600060208201905061491c60008301846148f8565b92915050565b6000806000806080858703121561493c5761493b614666565b5b600061494a878288016146bd565b945050602061495b878288016146bd565b935050604061496c878288016146bd565b925050606061497d878288016146bd565b91505092959194509250565b614992816142b9565b811461499d57600080fd5b50565b6000813590506149af81614989565b92915050565b600080fd5b600080fd5b7f4e487b7100000000000000000000000000000000000000000000000000000000600052604160045260246000fd5b6149f78261437f565b810181811067ffffffffffffffff82111715614a1657614a156149bf565b5b80604052505050565b6000614a2961465c565b9050614a3582826149ee565b919050565b600067ffffffffffffffff821115614a5557614a546149bf565b5b614a5e8261437f565b9050602081019050919050565b82818337600083830152505050565b6000614a8d614a8884614a3a565b614a1f565b905082815260208101848484011115614aa957614aa86149ba565b5b614ab4848285614a6b565b509392505050565b600082601f830112614ad157614ad06149b5565b5b8135614ae1848260208601614a7a565b91505092915050565b60008060008060808587031215614b0457614b03614666565b5b6000614b12878288016149a0565b9450506020614b23878288016146bd565b935050604085013567ffffffffffffffff811115614b4457614b4361466b565b5b614b5087828801614abc565b9250506060614b61878288016146bd565b91505092959194509250565b60008060008060808587031215614b8757614b86614666565b5b6000614b95878288016146bd565b9450506020614ba6878288016146bd565b9350506040614bb7878288016149a0565b9250506060614bc8878288016146bd565b91505092959194509250565b600061018083016000830151614bed60008601826141e5565b506020830151614c006020860182614321565b506040830151614c1360408601826141e5565b5060608301518482036060860152614c2b8282614390565b9150506080830151614c4060808601826143db565b5060a0830151614c5360a08601826143db565b5060c0830151614c6660c08601826141e5565b5060e0830151614c7960e08601826141e5565b50610100830151614c8e6101008601826141e5565b50610120830151614ca36101208601826141e5565b50610140830151614cb86101408601826141e5565b50610160830151848203610160860152614cd2828261443b565b9150508091505092915050565b60006020820190508181036000830152614cf98184614bd4565b905092915050565b600060208284031215614d1757614d16614666565b5b6000614d25848285016149a0565b91505092915050565b7f4e487b7100000000000000000000000000000000000000000000000000000000600052601160045260246000fd5b6000614d68826141db565b9150614d73836141db565b9250827fffffffffffffffffffffffffffffffffffffffffffffffffffffffffffffffff03821115614da857614da7614d2e565b5b828201905092915050565b6000614dbe826141db565b91507fffffffffffffffffffffffffffffffffffffffffffffffffffffffffffffffff821415614df157614df0614d2e565b5b600182019050919050565b7f4e487b7100000000000000000000000000000000000000000000000000000000600052603260045260246000fd5b7f4e487b7100000000000000000000000000000000000000000000000000000000600052602260045260246000fd5b60006002820490506001821680614e7257607f821691505b60208210811415614e8657614e85614e2b565b5b50919050565b600082825260208201905092915050565b7f536f75726365206d75737420626520746865206f7261636c65206f662074686560008201527f2072657175657374000000000000000000000000000000000000000000000000602082015250565b6000614ef9602883614e8c565b9150614f0482614e9d565b604082019050919050565b60006020820190508181036000830152614f2881614eec565b9050919050565b7f4e487b7100000000000000000000000000000000000000000000000000000000600052601260045260246000fd5b6000614f69826141db565b9150614f74836141db565b925082614f8457614f83614f2f565b5b828204905092915050565b600082825260208201905092915050565b7f3078303000000000000000000000000000000000000000000000000000000000600082015250565b6000614fd6600483614f8f565b9150614fe182614fa0565b602082019050919050565b600060808201905061500160008301866142cb565b61500e60208301856148f8565b61501b60408301846148f8565b818103606083015261502c81614fc9565b9050949350505050565b600081905092915050565b60008190508160005260206000209050919050565b6000815461506381614e5a565b61506d8186615036565b945060018216600081146150885760018114615099576150cc565b60ff198316865281860193506150cc565b6150a285615041565b60005b838110156150c4578154818901526001820191506020810190506150a5565b838801955050505b50505092915050565b60006150e082614330565b6150ea8185615036565b93506150fa81856020860161434c565b80840191505092915050565b60006151128286615056565b915061511e82856150d5565b915061512a8284615056565b9150819050949350505050565b6000615142826141db565b915061514d836141db565b9250828210156151605761515f614d2e565b5b828203905092915050565b7f56616c7565206d757374206d6174636820746865207072696365000000000000600082015250565b60006151a1601a83614e8c565b91506151ac8261516b565b602082019050919050565b600060208201905081810360008301526151d081615194565b9050919050565b6000819050919050565b60006151fc6151f76151f284614299565b6151d7565b614299565b9050919050565b600061520e826151e1565b9050919050565b600061522082615203565b9050919050565b61523081615215565b82525050565b600060608201905061524b6000830186615227565b61525860208301856142cb565b61526560408301846148f8565b949350505050565b7f4e487b7100000000000000000000000000000000000000000000000000000000600052600160045260246000fd5b60008160011c9050919050565b6000808291508390505b60018511156152f3578086048111156152cf576152ce614d2e565b5b60018516156152de5780820291505b80810290506152ec8561529c565b94506152b3565b94509492505050565b60008261530c57600190506153c8565b8161531a57600090506153c8565b8160018114615330576002811461533a57615369565b60019150506153c8565b60ff84111561534c5761534b614d2e565b5b8360020a91508482111561536357615362614d2e565b5b506153c8565b5060208310610133831016604e8410600b841016171561539e5782820a90508381111561539957615398614d2e565b5b6153c8565b6153ab84848460016152a9565b925090508184048111156153c2576153c1614d2e565b5b81810290505b9392505050565b60006153da826141db565b91506153e5836141db565b92506154127fffffffffffffffffffffffffffffffffffffffffffffffffffffffffffffffff84846152fc565b905092915050565b6000615425826141db565b9150615430836141db565b9250817fffffffffffffffffffffffffffffffffffffffffffffffffffffffffffffffff048311821515161561546957615468614d2e565b5b828202905092915050565b7f5072696365206d75737420626520686967686572207468616e20300000000000600082015250565b60006154aa601b83614e8c565b91506154b582615474565b602082019050919050565b600060208201905081810360008301526154d98161549d565b9050919050565b6000815190506154ef81614989565b92915050565b60006020828403121561550b5761550a614666565b5b6000615519848285016154e0565b91505092915050565b7f4f6e6c7920746865206f776e65722063616e206c69737420746865204e465400600082015250565b6000615558601f83614e8c565b915061556382615522565b602082019050919050565b600060208201905081810360008301526155878161554b565b9050919050565b60006080820190506155a360008301876142cb565b6155b060208301866142cb565b6155bd60408301856148f8565b6155ca60608301846148f8565b95945050505050565b7f4f776e61626c653a2063616c6c6572206973206e6f7420746865206f776e6572600082015250565b6000615609602083614e8c565b9150615614826155d3565b602082019050919050565b60006020820190508181036000830152615638816155fc565b9050919050565b7f416d6f756e74206d75737420626520686967686572207468616e203000000000600082015250565b6000615675601c83614e8c565b91506156808261563f565b602082019050919050565b600060208201905081810360008301526156a481615668565b9050919050565b6000815190506156ba816146a6565b92915050565b6000602082840312156156d6576156d5614666565b5b60006156e4848285016156ab565b91505092915050565b7f42616c616e6365206d757374206265206174206c6561737420657175616c207460008201527f6f2074686520616d6f756e740000000000000000000000000000000000000000602082015250565b6000615749602c83614e8c565b9150615754826156ed565b604082019050919050565b600060208201905081810360008301526157788161573c565b9050919050565b7f5573657220697320616c726561647920626f6e64656400000000000000000000600082015250565b60006157b5601683614e8c565b91506157c08261577f565b602082019050919050565b600060208201905081810360008301526157e4816157a8565b9050919050565b7f546865204e465420686173206265656e20616c726561647920626f7567687400600082015250565b6000615821601f83614e8c565b915061582c826157eb565b602082019050919050565b6000602082019050818103600083015261585081615814565b9050919050565b7f49636f6e4964206d757374206265206c657373207468616e2034000000000000600082015250565b600061588d601a83614e8c565b915061589882615857565b602082019050919050565b600060208201905081810360008301526158bc81615880565b9050919050565b60006060820190506158d860008301866142cb565b6158e560208301856142cb565b6158f260408301846148f8565b949350505050565b61590381614795565b811461590e57600080fd5b50565b600081519050615920816158fa565b92915050565b60006020828403121561593c5761593b614666565b5b600061594a84828501615911565b91505092915050565b61595c81614795565b82525050565b600060e082019050615977600083018a6148f8565b61598460208301896148f8565b61599160408301886142cb565b61599e6060830187615953565b6159ab60808301866142cb565b6159b860a083018561473f565b6159c560c08301846148f8565b98975050505050505050565b7f55736572206973206e6f7420626f6e6400000000000000000000000000000000600082015250565b6000615a07601083614e8c565b9150615a12826159d1565b602082019050919050565b60006020820190508181036000830152615a36816159fa565b9050919050565b7f546865204e465420686173206e6f74206265656e20736f6c6420796574000000600082015250565b6000615a73601d83614e8c565b9150615a7e82615a3d565b602082019050919050565b60006020820190508181036000830152615aa281615a66565b9050919050565b6000606082019050615abe60008301866142cb565b615acb60208301856148f8565b615ad860408301846148f8565b949350505050565b6000604082019050615af560008301856148f8565b615b0260208301846142cb565b9392505050565b7f4f776e61626c653a206e6577206f776e657220697320746865207a65726f206160008201527f6464726573730000000000000000000000000000000000000000000000000000602082015250565b6000615b65602683614e8c565b9150615b7082615b09565b604082019050919050565b60006020820190508181036000830152615b9481615b58565b9050919050565b6000615ba682614330565b615bb08185614e8c565b9350615bc081856020860161434c565b615bc98161437f565b840191505092915050565b60006040820190508181036000830152615bee8185615b9b565b9050615bfd60208301846148f8565b9392505050565b600060ff82169050919050565b6000615c1c82615c04565b9150615c2783615c04565b92508260ff03821115615c3d57615c3c614d2e565b5b828201905092915050565b6000819050919050565b6000615c5d82615c48565b9150615c6883615c48565b9250827f800000000000000000000000000000000000000000000000000000000000000001821260008412151615615ca357615ca2614d2e565b5b827f7fffffffffffffffffffffffffffffffffffffffffffffffffffffffffffffff018213600084121615615cdb57615cda614d2e565b5b828203905092915050565b6000615cf182615203565b9050919050565b60008160601b9050919050565b6000615d1082615cf8565b9050919050565b6000615d2282615d05565b9050919050565b615d3a615d3582615ce6565b615d17565b82525050565b6000819050919050565b615d5b615d56826141db565b615d40565b82525050565b6000615d6d8285615d29565b601482019150615d7d8284615d4a565b6020820191508190509392505050565b60007fffffffff0000000000000000000000000000000000000000000000000000000082169050919050565b615dc281615d8d565b82525050565b600081519050919050565b6000615dde82615dc8565b615de88185614f8f565b9350615df881856020860161434c565b615e018161437f565b840191505092915050565b600061010082019050615e22600083018b6142cb565b615e2f602083018a6148f8565b615e3c604083018961473f565b615e4960608301886142cb565b615e566080830187615db9565b615e6360a08301866148f8565b615e7060c08301856148f8565b81810360e0830152615e828184615dd3565b90509998505050505050505050565b6000606082019050615ea660008301866142cb565b615eb360208301856148f8565b8181036040830152615ec58184615dd3565b9050949350505050565b7f756e61626c6520746f207472616e73666572416e6443616c6c20746f206f726160008201527f636c650000000000000000000000000000000000000000000000000000000000602082015250565b6000615f2b602383614e8c565b9150615f3682615ecf565b604082019050919050565b60006020820190508181036000830152615f5a81615f1e565b9050919050565b6000615f6c826141db565b9150615f77836141db565b925082615f8757615f86614f2f565b5b82820690509291505056fea264697066735822122014c4c0b882f6d1b15bb9cddde6f90111fc7a36c31b9d5beca17b42d277aa051d64736f6c634300080a00334465706c6f79696e672061204d61726b6574706c6163652077697468206375726174696f6e206665653a",
  "linkReferences": {},
  "deployedLinkReferences": {}
}