{
  "_format": "hh-sol-artifact-1",
  "contractName": "Utils",
  "sourceName": "contracts/interface/Utils.sol",
  "abi": [
    {
      "inputs": [
        {
          "internalType": "uint256",
          "name": "_a",
          "type": "uint256"
        },
        {
          "internalType": "uint256",
          "name": "_n",
          "type": "uint256"
        },
        {
          "internalType": "uint256",
          "name": "_dp",
          "type": "uint256"
        },
        {
          "internalType": "uint256",
          "name": "_maxIts",
          "type": "uint256"
        }
      ],
      "name": "nthRoot",
      "outputs": [
        {
          "internalType": "uint256",
          "name": "",
          "type": "uint256"
        }
      ],
      "stateMutability": "pure",
      "type": "function"
    }
  ],
  "bytecode": "0x608060405234801561001057600080fd5b50610608806100206000396000f3fe608060405234801561001057600080fd5b506004361061002b5760003560e01c80636469cfac14610030575b600080fd5b61004a600480360381019061004591906101d8565b610060565b604051610057919061024e565b60405180910390f35b60006001841161007357610072610269565b5b600083600161008291906102c7565b600a61008e9190610450565b9050600086868361009f9190610450565b6100a9919061049b565b9050600082905060006001905060005b8183141580156100c857508681105b1561017557829150600060018a6100df91906104f5565b836100ea9190610450565b90508481846100f9919061049b565b11156101335789818661010c9190610558565b8461011791906104f5565b6101219190610558565b8361012c91906104f5565b9350610163565b898382876101419190610558565b61014b91906104f5565b6101559190610558565b8361016091906102c7565b93505b8161016d90610589565b9150506100b9565b600a60058461018491906102c7565b61018e9190610558565b95505050505050949350505050565b600080fd5b6000819050919050565b6101b5816101a2565b81146101c057600080fd5b50565b6000813590506101d2816101ac565b92915050565b600080600080608085870312156101f2576101f161019d565b5b6000610200878288016101c3565b9450506020610211878288016101c3565b9350506040610222878288016101c3565b9250506060610233878288016101c3565b91505092959194509250565b610248816101a2565b82525050565b6000602082019050610263600083018461023f565b92915050565b7f4e487b7100000000000000000000000000000000000000000000000000000000600052600160045260246000fd5b7f4e487b7100000000000000000000000000000000000000000000000000000000600052601160045260246000fd5b60006102d2826101a2565b91506102dd836101a2565b9250827fffffffffffffffffffffffffffffffffffffffffffffffffffffffffffffffff0382111561031257610311610298565b5b828201905092915050565b60008160011c9050919050565b6000808291508390505b6001851115610374578086048111156103505761034f610298565b5b600185161561035f5780820291505b808102905061036d8561031d565b9450610334565b94509492505050565b60008261038d5760019050610449565b8161039b5760009050610449565b81600181146103b157600281146103bb576103ea565b6001915050610449565b60ff8411156103cd576103cc610298565b5b8360020a9150848211156103e4576103e3610298565b5b50610449565b5060208310610133831016604e8410600b841016171561041f5782820a90508381111561041a57610419610298565b5b610449565b61042c848484600161032a565b9250905081840481111561044357610442610298565b5b81810290505b9392505050565b600061045b826101a2565b9150610466836101a2565b92506104937fffffffffffffffffffffffffffffffffffffffffffffffffffffffffffffffff848461037d565b905092915050565b60006104a6826101a2565b91506104b1836101a2565b9250817fffffffffffffffffffffffffffffffffffffffffffffffffffffffffffffffff04831182151516156104ea576104e9610298565b5b828202905092915050565b6000610500826101a2565b915061050b836101a2565b92508282101561051e5761051d610298565b5b828203905092915050565b7f4e487b7100000000000000000000000000000000000000000000000000000000600052601260045260246000fd5b6000610563826101a2565b915061056e836101a2565b92508261057e5761057d610529565b5b828204905092915050565b6000610594826101a2565b91507fffffffffffffffffffffffffffffffffffffffffffffffffffffffffffffffff8214156105c7576105c6610298565b5b60018201905091905056fea2646970667358221220ad32019d45d660ccddc2e04c89c4a8598c9750b8d78689531c5c80c1e5e563b864736f6c634300080a0033",
  "linkReferences": {},
  "deployedLinkReferences": {}
}