{
  "_format": "hh-sol-artifact-1",
  "contractName": "RandomSVG",
  "sourceName": "contracts/RandomSVG.sol",
  "abi": [
    {
      "inputs": [
        {
          "internalType": "address",
          "name": "_VRFCoordinator",
          "type": "address"
        },
        {
          "internalType": "address",
          "name": "_linkToken",
          "type": "address"
        },
        {
          "internalType": "bytes32",
          "name": "_keyHash",
          "type": "bytes32"
        },
        {
          "internalType": "uint256",
          "name": "_fee",
          "type": "uint256"
        }
      ],
      "stateMutability": "nonpayable",
      "type": "constructor"
    },
    {
      "anonymous": false,
      "inputs": [
        {
          "indexed": true,
          "internalType": "address",
          "name": "owner",
          "type": "address"
        },
        {
          "indexed": true,
          "internalType": "address",
          "name": "approved",
          "type": "address"
        },
        {
          "indexed": true,
          "internalType": "uint256",
          "name": "tokenId",
          "type": "uint256"
        }
      ],
      "name": "Approval",
      "type": "event"
    },
    {
      "anonymous": false,
      "inputs": [
        {
          "indexed": true,
          "internalType": "address",
          "name": "owner",
          "type": "address"
        },
        {
          "indexed": true,
          "internalType": "address",
          "name": "operator",
          "type": "address"
        },
        {
          "indexed": false,
          "internalType": "bool",
          "name": "approved",
          "type": "bool"
        }
      ],
      "name": "ApprovalForAll",
      "type": "event"
    },
    {
      "anonymous": false,
      "inputs": [
        {
          "indexed": true,
          "internalType": "uint256",
          "name": "tokenId",
          "type": "uint256"
        },
        {
          "indexed": false,
          "internalType": "string",
          "name": "svg",
          "type": "string"
        }
      ],
      "name": "CreatedRandomSVG",
      "type": "event"
    },
    {
      "anonymous": false,
      "inputs": [
        {
          "indexed": true,
          "internalType": "uint256",
          "name": "tokenId",
          "type": "uint256"
        },
        {
          "indexed": false,
          "internalType": "uint256",
          "name": "randomNumber",
          "type": "uint256"
        }
      ],
      "name": "CreatedUnfinishedRandomSVG",
      "type": "event"
    },
    {
      "anonymous": false,
      "inputs": [
        {
          "indexed": true,
          "internalType": "bytes32",
          "name": "requestId",
          "type": "bytes32"
        },
        {
          "indexed": true,
          "internalType": "uint256",
          "name": "tokenId",
          "type": "uint256"
        }
      ],
      "name": "RequestedRandomSVG",
      "type": "event"
    },
    {
      "anonymous": false,
      "inputs": [
        {
          "indexed": true,
          "internalType": "address",
          "name": "from",
          "type": "address"
        },
        {
          "indexed": true,
          "internalType": "address",
          "name": "to",
          "type": "address"
        },
        {
          "indexed": true,
          "internalType": "uint256",
          "name": "tokenId",
          "type": "uint256"
        }
      ],
      "name": "Transfer",
      "type": "event"
    },
    {
      "inputs": [
        {
          "internalType": "address",
          "name": "to",
          "type": "address"
        },
        {
          "internalType": "uint256",
          "name": "tokenId",
          "type": "uint256"
        }
      ],
      "name": "approve",
      "outputs": [],
      "stateMutability": "nonpayable",
      "type": "function"
    },
    {
      "inputs": [
        {
          "internalType": "address",
          "name": "owner",
          "type": "address"
        }
      ],
      "name": "balanceOf",
      "outputs": [
        {
          "internalType": "uint256",
          "name": "",
          "type": "uint256"
        }
      ],
      "stateMutability": "view",
      "type": "function"
    },
    {
      "inputs": [
        {
          "internalType": "uint256",
          "name": "",
          "type": "uint256"
        }
      ],
      "name": "colors",
      "outputs": [
        {
          "internalType": "string",
          "name": "",
          "type": "string"
        }
      ],
      "stateMutability": "view",
      "type": "function"
    },
    {
      "inputs": [],
      "name": "create",
      "outputs": [
        {
          "internalType": "bytes32",
          "name": "requestId",
          "type": "bytes32"
        }
      ],
      "stateMutability": "payable",
      "type": "function"
    },
    {
      "inputs": [
        {
          "internalType": "uint256",
          "name": "_tokenId",
          "type": "uint256"
        }
      ],
      "name": "finishMint",
      "outputs": [],
      "stateMutability": "nonpayable",
      "type": "function"
    },
    {
      "inputs": [
        {
          "internalType": "string",
          "name": "_imageUri",
          "type": "string"
        }
      ],
      "name": "formatTokenURI",
      "outputs": [
        {
          "internalType": "string",
          "name": "",
          "type": "string"
        }
      ],
      "stateMutability": "pure",
      "type": "function"
    },
    {
      "inputs": [
        {
          "internalType": "uint256",
          "name": "_randomNumber",
          "type": "uint256"
        }
      ],
      "name": "generatePath",
      "outputs": [
        {
          "internalType": "string",
          "name": "pathSvg",
          "type": "string"
        }
      ],
      "stateMutability": "view",
      "type": "function"
    },
    {
      "inputs": [
        {
          "internalType": "uint256",
          "name": "_randomNumber",
          "type": "uint256"
        }
      ],
      "name": "generatePathCommand",
      "outputs": [
        {
          "internalType": "string",
          "name": "pathCommand",
          "type": "string"
        }
      ],
      "stateMutability": "view",
      "type": "function"
    },
    {
      "inputs": [
        {
          "internalType": "uint256",
          "name": "_randomNumber",
          "type": "uint256"
        }
      ],
      "name": "generateSVG",
      "outputs": [
        {
          "internalType": "string",
          "name": "finalSvg",
          "type": "string"
        }
      ],
      "stateMutability": "view",
      "type": "function"
    },
    {
      "inputs": [
        {
          "internalType": "uint256",
          "name": "tokenId",
          "type": "uint256"
        }
      ],
      "name": "getApproved",
      "outputs": [
        {
          "internalType": "address",
          "name": "",
          "type": "address"
        }
      ],
      "stateMutability": "view",
      "type": "function"
    },
    {
      "inputs": [
        {
          "internalType": "address",
          "name": "owner",
          "type": "address"
        },
        {
          "internalType": "address",
          "name": "operator",
          "type": "address"
        }
      ],
      "name": "isApprovedForAll",
      "outputs": [
        {
          "internalType": "bool",
          "name": "",
          "type": "bool"
        }
      ],
      "stateMutability": "view",
      "type": "function"
    },
    {
      "inputs": [],
      "name": "maxNumberOfPathCommands",
      "outputs": [
        {
          "internalType": "uint256",
          "name": "",
          "type": "uint256"
        }
      ],
      "stateMutability": "view",
      "type": "function"
    },
    {
      "inputs": [],
      "name": "maxNumberOfPaths",
      "outputs": [
        {
          "internalType": "uint256",
          "name": "",
          "type": "uint256"
        }
      ],
      "stateMutability": "view",
      "type": "function"
    },
    {
      "inputs": [],
      "name": "name",
      "outputs": [
        {
          "internalType": "string",
          "name": "",
          "type": "string"
        }
      ],
      "stateMutability": "view",
      "type": "function"
    },
    {
      "inputs": [],
      "name": "owner",
      "outputs": [
        {
          "internalType": "address payable",
          "name": "",
          "type": "address"
        }
      ],
      "stateMutability": "view",
      "type": "function"
    },
    {
      "inputs": [
        {
          "internalType": "uint256",
          "name": "tokenId",
          "type": "uint256"
        }
      ],
      "name": "ownerOf",
      "outputs": [
        {
          "internalType": "address",
          "name": "",
          "type": "address"
        }
      ],
      "stateMutability": "view",
      "type": "function"
    },
    {
      "inputs": [
        {
          "internalType": "uint256",
          "name": "",
          "type": "uint256"
        }
      ],
      "name": "pathCommands",
      "outputs": [
        {
          "internalType": "string",
          "name": "",
          "type": "string"
        }
      ],
      "stateMutability": "view",
      "type": "function"
    },
    {
      "inputs": [],
      "name": "price",
      "outputs": [
        {
          "internalType": "uint256",
          "name": "",
          "type": "uint256"
        }
      ],
      "stateMutability": "view",
      "type": "function"
    },
    {
      "inputs": [
        {
          "internalType": "bytes32",
          "name": "requestId",
          "type": "bytes32"
        },
        {
          "internalType": "uint256",
          "name": "randomness",
          "type": "uint256"
        }
      ],
      "name": "rawFulfillRandomness",
      "outputs": [],
      "stateMutability": "nonpayable",
      "type": "function"
    },
    {
      "inputs": [
        {
          "internalType": "bytes32",
          "name": "",
          "type": "bytes32"
        }
      ],
      "name": "requestIdToSender",
      "outputs": [
        {
          "internalType": "address",
          "name": "",
          "type": "address"
        }
      ],
      "stateMutability": "view",
      "type": "function"
    },
    {
      "inputs": [
        {
          "internalType": "bytes32",
          "name": "",
          "type": "bytes32"
        }
      ],
      "name": "requestIdToTokenId",
      "outputs": [
        {
          "internalType": "uint256",
          "name": "",
          "type": "uint256"
        }
      ],
      "stateMutability": "view",
      "type": "function"
    },
    {
      "inputs": [
        {
          "internalType": "address",
          "name": "from",
          "type": "address"
        },
        {
          "internalType": "address",
          "name": "to",
          "type": "address"
        },
        {
          "internalType": "uint256",
          "name": "tokenId",
          "type": "uint256"
        }
      ],
      "name": "safeTransferFrom",
      "outputs": [],
      "stateMutability": "nonpayable",
      "type": "function"
    },
    {
      "inputs": [
        {
          "internalType": "address",
          "name": "from",
          "type": "address"
        },
        {
          "internalType": "address",
          "name": "to",
          "type": "address"
        },
        {
          "internalType": "uint256",
          "name": "tokenId",
          "type": "uint256"
        },
        {
          "internalType": "bytes",
          "name": "_data",
          "type": "bytes"
        }
      ],
      "name": "safeTransferFrom",
      "outputs": [],
      "stateMutability": "nonpayable",
      "type": "function"
    },
    {
      "inputs": [
        {
          "internalType": "address",
          "name": "operator",
          "type": "address"
        },
        {
          "internalType": "bool",
          "name": "approved",
          "type": "bool"
        }
      ],
      "name": "setApprovalForAll",
      "outputs": [],
      "stateMutability": "nonpayable",
      "type": "function"
    },
    {
      "inputs": [],
      "name": "size",
      "outputs": [
        {
          "internalType": "uint256",
          "name": "",
          "type": "uint256"
        }
      ],
      "stateMutability": "view",
      "type": "function"
    },
    {
      "inputs": [
        {
          "internalType": "bytes4",
          "name": "interfaceId",
          "type": "bytes4"
        }
      ],
      "name": "supportsInterface",
      "outputs": [
        {
          "internalType": "bool",
          "name": "",
          "type": "bool"
        }
      ],
      "stateMutability": "view",
      "type": "function"
    },
    {
      "inputs": [
        {
          "internalType": "string",
          "name": "_svg",
          "type": "string"
        }
      ],
      "name": "svgToImageURI",
      "outputs": [
        {
          "internalType": "string",
          "name": "",
          "type": "string"
        }
      ],
      "stateMutability": "pure",
      "type": "function"
    },
    {
      "inputs": [],
      "name": "symbol",
      "outputs": [
        {
          "internalType": "string",
          "name": "",
          "type": "string"
        }
      ],
      "stateMutability": "view",
      "type": "function"
    },
    {
      "inputs": [
        {
          "internalType": "uint256",
          "name": "",
          "type": "uint256"
        }
      ],
      "name": "tokenIdToRandomNumber",
      "outputs": [
        {
          "internalType": "uint256",
          "name": "",
          "type": "uint256"
        }
      ],
      "stateMutability": "view",
      "type": "function"
    },
    {
      "inputs": [
        {
          "internalType": "uint256",
          "name": "tokenId",
          "type": "uint256"
        }
      ],
      "name": "tokenURI",
      "outputs": [
        {
          "internalType": "string",
          "name": "",
          "type": "string"
        }
      ],
      "stateMutability": "view",
      "type": "function"
    },
    {
      "inputs": [
        {
          "internalType": "address",
          "name": "from",
          "type": "address"
        },
        {
          "internalType": "address",
          "name": "to",
          "type": "address"
        },
        {
          "internalType": "uint256",
          "name": "tokenId",
          "type": "uint256"
        }
      ],
      "name": "transferFrom",
      "outputs": [],
      "stateMutability": "nonpayable",
      "type": "function"
    },
    {
      "inputs": [],
      "name": "withdraw",
      "outputs": [],
      "stateMutability": "payable",
      "type": "function"
    }
  ],
  "bytecode": "0x60c06040523480156200001157600080fd5b50604051620053f6380380620053f6833981810160405281019062000037919062000632565b83836040518060400160405280600a81526020017f52616e646f6d20535647000000000000000000000000000000000000000000008152506040518060400160405280600581526020017f72734e46540000000000000000000000000000000000000000000000000000008152508160009080519060200190620000bd92919062000366565b508060019080519060200190620000d692919062000366565b5050508173ffffffffffffffffffffffffffffffffffffffff1660a08173ffffffffffffffffffffffffffffffffffffffff16815250508073ffffffffffffffffffffffffffffffffffffffff1660808173ffffffffffffffffffffffffffffffffffffffff1681525050505081600881905550806009819055506000600a81905550600a600d819055506005600e819055506101f4600f8190555060405180604001604052806040518060400160405280600181526020017f4d0000000000000000000000000000000000000000000000000000000000000081525081526020016040518060400160405280600181526020017f4c00000000000000000000000000000000000000000000000000000000000000815250815250601090600262000203929190620003f7565b5060405180608001604052806040518060400160405280600381526020017f526564000000000000000000000000000000000000000000000000000000000081525081526020016040518060400160405280600481526020017f426c75650000000000000000000000000000000000000000000000000000000081525081526020016040518060400160405280600681526020017f59656c6c6f77000000000000000000000000000000000000000000000000000081525081526020016040518060400160405280600581526020017f426c61636b00000000000000000000000000000000000000000000000000000081525081525060119060046200030b9291906200045e565b5067016345785d8a0000600b8190555033600c60006101000a81548173ffffffffffffffffffffffffffffffffffffffff021916908373ffffffffffffffffffffffffffffffffffffffff1602179055505050505062000709565b8280546200037490620006d3565b90600052602060002090601f016020900481019282620003985760008555620003e4565b82601f10620003b357805160ff1916838001178555620003e4565b82800160010185558215620003e4579182015b82811115620003e3578251825591602001919060010190620003c6565b5b509050620003f39190620004c5565b5090565b8280548282559060005260206000209081019282156200044b579160200282015b828111156200044a5782518290805190602001906200043992919062000366565b509160200191906001019062000418565b5b5090506200045a9190620004e4565b5090565b828054828255906000526020600020908101928215620004b2579160200282015b82811115620004b1578251829080519060200190620004a092919062000366565b50916020019190600101906200047f565b5b509050620004c19190620004e4565b5090565b5b80821115620004e0576000816000905550600101620004c6565b5090565b5b80821115620005085760008181620004fe91906200050c565b50600101620004e5565b5090565b5080546200051a90620006d3565b6000825580601f106200052e57506200054f565b601f0160209004906000526020600020908101906200054e9190620004c5565b5b50565b600080fd5b600073ffffffffffffffffffffffffffffffffffffffff82169050919050565b6000620005848262000557565b9050919050565b620005968162000577565b8114620005a257600080fd5b50565b600081519050620005b6816200058b565b92915050565b6000819050919050565b620005d181620005bc565b8114620005dd57600080fd5b50565b600081519050620005f181620005c6565b92915050565b6000819050919050565b6200060c81620005f7565b81146200061857600080fd5b50565b6000815190506200062c8162000601565b92915050565b600080600080608085870312156200064f576200064e62000552565b5b60006200065f87828801620005a5565b94505060206200067287828801620005a5565b93505060406200068587828801620005e0565b925050606062000698878288016200061b565b91505092959194509250565b7f4e487b7100000000000000000000000000000000000000000000000000000000600052602260045260246000fd5b60006002820490506001821680620006ec57607f821691505b60208210811415620007035762000702620006a4565b5b50919050565b60805160a051614cc062000736600039600081816113db015261273f015260006127030152614cc06000f3fe6080604052600436106101e35760003560e01c806371aee19311610102578063a22cb46511610095578063c68b49d111610064578063c68b49d114610757578063c87b56dd14610794578063e985e9c5146107d1578063efc81a8c1461080e576101e3565b8063a22cb4651461069d578063b88d4fde146106c6578063bd11f69d146106ef578063c21bf36f1461072c576101e3565b8063955968d4116100d1578063955968d4146105cd57806395d89b411461060a5780639c1cd79514610635578063a035b1fe14610672576101e3565b806371aee193146105115780638da5cb5b1461054e57806394985ddd14610579578063949d225d146105a2576101e3565b806333af59891161017a578063624194c711610149578063624194c7146104315780636352211e1461045a5780636dcee4ca1461049757806370a08231146104d4576101e3565b806333af5989146103965780633ccfd60b146103d357806342842e0e146103dd57806348e896ab14610406576101e3565b8063219c0eee116101b6578063219c0eee146102b657806322881f88146102f357806323b872dd1461033057806330d871c614610359576101e3565b806301ffc9a7146101e857806306fdde0314610225578063081812fc14610250578063095ea7b31461028d575b600080fd5b3480156101f457600080fd5b5061020f600480360381019061020a9190612f18565b61082c565b60405161021c9190612f60565b60405180910390f35b34801561023157600080fd5b5061023a61090e565b6040516102479190613014565b60405180910390f35b34801561025c57600080fd5b506102776004803603810190610272919061306c565b6109a0565b60405161028491906130da565b60405180910390f35b34801561029957600080fd5b506102b460048036038101906102af9190613121565b610a25565b005b3480156102c257600080fd5b506102dd60048036038101906102d89190613197565b610b3d565b6040516102ea91906130da565b60405180910390f35b3480156102ff57600080fd5b5061031a60048036038101906103159190613197565b610b70565b60405161032791906131d3565b60405180910390f35b34801561033c57600080fd5b50610357600480360381019061035291906131ee565b610b88565b005b34801561036557600080fd5b50610380600480360381019061037b9190613376565b610be8565b60405161038d9190613014565b60405180910390f35b3480156103a257600080fd5b506103bd60048036038101906103b8919061306c565b610c81565b6040516103ca9190613014565b60405180910390f35b6103db610e2a565b005b3480156103e957600080fd5b5061040460048036038101906103ff91906131ee565b610f25565b005b34801561041257600080fd5b5061041b610f45565b60405161042891906131d3565b60405180910390f35b34801561043d57600080fd5b506104586004803603810190610453919061306c565b610f4b565b005b34801561046657600080fd5b50610481600480360381019061047c919061306c565b6110ba565b60405161048e91906130da565b60405180910390f35b3480156104a357600080fd5b506104be60048036038101906104b9919061306c565b61116c565b6040516104cb9190613014565b60405180910390f35b3480156104e057600080fd5b506104fb60048036038101906104f691906133bf565b61126e565b60405161050891906131d3565b60405180910390f35b34801561051d57600080fd5b5061053860048036038101906105339190613376565b611326565b6040516105459190613014565b60405180910390f35b34801561055a57600080fd5b506105636113b3565b604051610570919061340d565b60405180910390f35b34801561058557600080fd5b506105a0600480360381019061059b9190613428565b6113d9565b005b3480156105ae57600080fd5b506105b7611475565b6040516105c491906131d3565b60405180910390f35b3480156105d957600080fd5b506105f460048036038101906105ef919061306c565b61147b565b6040516106019190613014565b60405180910390f35b34801561061657600080fd5b5061061f611527565b60405161062c9190613014565b60405180910390f35b34801561064157600080fd5b5061065c6004803603810190610657919061306c565b6115b9565b60405161066991906131d3565b60405180910390f35b34801561067e57600080fd5b506106876115d1565b60405161069491906131d3565b60405180910390f35b3480156106a957600080fd5b506106c460048036038101906106bf9190613494565b6115d7565b005b3480156106d257600080fd5b506106ed60048036038101906106e89190613575565b611758565b005b3480156106fb57600080fd5b506107166004803603810190610711919061306c565b6117ba565b6040516107239190613014565b60405180910390f35b34801561073857600080fd5b50610741611866565b60405161074e91906131d3565b60405180910390f35b34801561076357600080fd5b5061077e6004803603810190610779919061306c565b61186c565b60405161078b9190613014565b60405180910390f35b3480156107a057600080fd5b506107bb60048036038101906107b6919061306c565b6119f9565b6040516107c89190613014565b60405180910390f35b3480156107dd57600080fd5b506107f860048036038101906107f391906135f8565b611b4b565b6040516108059190612f60565b60405180910390f35b610816611bdf565b6040516108239190613647565b60405180910390f35b60007f80ac58cd000000000000000000000000000000000000000000000000000000007bffffffffffffffffffffffffffffffffffffffffffffffffffffffff1916827bffffffffffffffffffffffffffffffffffffffffffffffffffffffff191614806108f757507f5b5e139f000000000000000000000000000000000000000000000000000000007bffffffffffffffffffffffffffffffffffffffffffffffffffffffff1916827bffffffffffffffffffffffffffffffffffffffffffffffffffffffff1916145b80610907575061090682611cee565b5b9050919050565b60606000805461091d90613691565b80601f016020809104026020016040519081016040528092919081815260200182805461094990613691565b80156109965780601f1061096b57610100808354040283529160200191610996565b820191906000526020600020905b81548152906001019060200180831161097957829003601f168201915b5050505050905090565b60006109ab82611d58565b6109ea576040517f08c379a00000000000000000000000000000000000000000000000000000000081526004016109e190613735565b60405180910390fd5b6004600083815260200190815260200160002060009054906101000a900473ffffffffffffffffffffffffffffffffffffffff169050919050565b6000610a30826110ba565b90508073ffffffffffffffffffffffffffffffffffffffff168373ffffffffffffffffffffffffffffffffffffffff161415610aa1576040517f08c379a0000000000000000000000000000000000000000000000000000000008152600401610a98906137c7565b60405180910390fd5b8073ffffffffffffffffffffffffffffffffffffffff16610ac0611dc4565b73ffffffffffffffffffffffffffffffffffffffff161480610aef5750610aee81610ae9611dc4565b611b4b565b5b610b2e576040517f08c379a0000000000000000000000000000000000000000000000000000000008152600401610b2590613859565b60405180910390fd5b610b388383611dcc565b505050565b60126020528060005260406000206000915054906101000a900473ffffffffffffffffffffffffffffffffffffffff1681565b60136020528060005260406000206000915090505481565b610b99610b93611dc4565b82611e85565b610bd8576040517f08c379a0000000000000000000000000000000000000000000000000000000008152600401610bcf906138eb565b60405180910390fd5b610be3838383611f63565b505050565b606060006040518060400160405280601a81526020017f646174613a696d6167652f7376672b786d6c3b6261736536342c00000000000081525090506000610c4e84604051602001610c3a9190613947565b6040516020818303038152906040526121bf565b905060008282604051602001610c6592919061395e565b6040516020818303038152906040529050809350505050919050565b606060006001600e5484610c9591906139b1565b610c9f9190613a11565b90506040518060400160405280600981526020017f3c7061746820643d270000000000000000000000000000000000000000000000815250915060005b81811015610d44576000846001600f54610cf69190613a11565b604051602001610d07929190613a67565b6040516020818303038152906040528051906020012060001c90506000610d2d8661186c565b905050508080610d3c90613a90565b915050610cdc565b5060006011808054905085610d5991906139b1565b81548110610d6a57610d69613ad9565b5b906000526020600020018054610d7f90613691565b80601f0160208091040260200160405190810160405280929190818152602001828054610dab90613691565b8015610df85780601f10610dcd57610100808354040283529160200191610df8565b820191906000526020600020905b815481529060010190602001808311610ddb57829003601f168201915b505050505090508281604051602001610e12929190613ba0565b60405160208183030381529060405292505050919050565b600c60009054906101000a900473ffffffffffffffffffffffffffffffffffffffff1673ffffffffffffffffffffffffffffffffffffffff163373ffffffffffffffffffffffffffffffffffffffff1614610eba576040517f08c379a0000000000000000000000000000000000000000000000000000000008152600401610eb190613c26565b60405180910390fd5b600c60009054906101000a900473ffffffffffffffffffffffffffffffffffffffff1673ffffffffffffffffffffffffffffffffffffffff166108fc479081150290604051600060405180830381858888f19350505050158015610f22573d6000803e3d6000fd5b50565b610f4083838360405180602001604052806000815250611758565b505050565b600e5481565b6000610f56826119f9565b511115610f98576040517f08c379a0000000000000000000000000000000000000000000000000000000008152600401610f8f90613c92565b60405180910390fd5b80600a5411610fdc576040517f08c379a0000000000000000000000000000000000000000000000000000000008152600401610fd390613cfe565b60405180910390fd5b6000601460008381526020019081526020016000205411611032576040517f08c379a000000000000000000000000000000000000000000000000000000000815260040161102990613d6a565b60405180910390fd5b60006014600083815260200190815260200160002054905060006110558261116c565b9050600061106282610be8565b9050600061106f82611326565b905061107b8582612338565b847f15a6487b7915a7116ce2a61d43b17e9b47484b1931f3c79f2f3d139b307b3893846040516110ab9190613014565b60405180910390a25050505050565b6000806002600084815260200190815260200160002060009054906101000a900473ffffffffffffffffffffffffffffffffffffffff169050600073ffffffffffffffffffffffffffffffffffffffff168173ffffffffffffffffffffffffffffffffffffffff161415611163576040517f08c379a000000000000000000000000000000000000000000000000000000000815260040161115a90613dfc565b60405180910390fd5b80915050919050565b606060006001600d548461118091906139b1565b61118a9190613a11565b9050611197600f546123ac565b6111a2600f546123ac565b6040516020016111b3929190613f26565b604051602081830303815290604052915060005b8181101561124557600084826040516020016111e4929190613a67565b6040516020818303038152906040528051906020012060001c9050600061120a82610c81565b9050848160405160200161121f92919061395e565b60405160208183030381529060405294505050808061123d90613a90565b9150506111c7565b50816040516020016112579190613fb7565b604051602081830303815290604052915050919050565b60008073ffffffffffffffffffffffffffffffffffffffff168273ffffffffffffffffffffffffffffffffffffffff1614156112df576040517f08c379a00000000000000000000000000000000000000000000000000000000081526004016112d69061404b565b60405180910390fd5b600360008373ffffffffffffffffffffffffffffffffffffffff1673ffffffffffffffffffffffffffffffffffffffff168152602001908152602001600020549050919050565b606060006040518060400160405280601d81526020017f646174613a6170706c69636174696f6e2f6a736f6e3b6261736536342c00000081525090508061138b84604051602001611377919061420d565b6040516020818303038152906040526121bf565b60405160200161139c92919061395e565b604051602081830303815290604052915050919050565b600c60009054906101000a900473ffffffffffffffffffffffffffffffffffffffff1681565b7f000000000000000000000000000000000000000000000000000000000000000073ffffffffffffffffffffffffffffffffffffffff163373ffffffffffffffffffffffffffffffffffffffff1614611467576040517f08c379a000000000000000000000000000000000000000000000000000000000815260040161145e906142a7565b60405180910390fd5b6114718282612535565b5050565b600f5481565b6010818154811061148b57600080fd5b9060005260206000200160009150905080546114a690613691565b80601f01602080910402602001604051908101604052809291908181526020018280546114d290613691565b801561151f5780601f106114f45761010080835404028352916020019161151f565b820191906000526020600020905b81548152906001019060200180831161150257829003601f168201915b505050505081565b60606001805461153690613691565b80601f016020809104026020016040519081016040528092919081815260200182805461156290613691565b80156115af5780601f10611584576101008083540402835291602001916115af565b820191906000526020600020905b81548152906001019060200180831161159257829003601f168201915b5050505050905090565b60146020528060005260406000206000915090505481565b600b5481565b6115df611dc4565b73ffffffffffffffffffffffffffffffffffffffff168273ffffffffffffffffffffffffffffffffffffffff16141561164d576040517f08c379a000000000000000000000000000000000000000000000000000000000815260040161164490614313565b60405180910390fd5b806005600061165a611dc4565b73ffffffffffffffffffffffffffffffffffffffff1673ffffffffffffffffffffffffffffffffffffffff16815260200190815260200160002060008473ffffffffffffffffffffffffffffffffffffffff1673ffffffffffffffffffffffffffffffffffffffff16815260200190815260200160002060006101000a81548160ff0219169083151502179055508173ffffffffffffffffffffffffffffffffffffffff16611707611dc4565b73ffffffffffffffffffffffffffffffffffffffff167f17307eab39ab6107e8899845ad3d59bd9653f200f220920489ca2b5937696c318360405161174c9190612f60565b60405180910390a35050565b611769611763611dc4565b83611e85565b6117a8576040517f08c379a000000000000000000000000000000000000000000000000000000000815260040161179f906138eb565b60405180910390fd5b6117b4848484846125e5565b50505050565b601181815481106117ca57600080fd5b9060005260206000200160009150905080546117e590613691565b80601f016020809104026020016040519081016040528092919081815260200182805461181190613691565b801561185e5780601f106118335761010080835404028352916020019161185e565b820191906000526020600020905b81548152906001019060200180831161184157829003601f168201915b505050505081565b600d5481565b6060601080805490508361188091906139b1565b8154811061189157611890613ad9565b5b9060005260206000200180546118a690613691565b80601f01602080910402602001604051908101604052809291908181526020018280546118d290613691565b801561191f5780601f106118f45761010080835404028352916020019161191f565b820191906000526020600020905b81548152906001019060200180831161190257829003601f168201915b505050505090506000600f54836002600f5461193b9190614333565b60405160200161194c929190613a67565b6040516020818303038152906040528051906020012060001c61196f91906139b1565b90506000600f54846003600f546119869190614333565b604051602001611997929190613a67565b6040516020818303038152906040528051906020012060001c6119ba91906139b1565b9050826119c6836123ac565b6119cf836123ac565b6040516020016119e1939291906143d9565b60405160208183030381529060405292505050919050565b6060611a0482611d58565b611a43576040517f08c379a0000000000000000000000000000000000000000000000000000000008152600401611a3a90614492565b60405180910390fd5b6000600660008481526020019081526020016000208054611a6390613691565b80601f0160208091040260200160405190810160405280929190818152602001828054611a8f90613691565b8015611adc5780601f10611ab157610100808354040283529160200191611adc565b820191906000526020600020905b815481529060010190602001808311611abf57829003601f168201915b505050505090506000611aed612641565b9050600081511415611b03578192505050611b46565b600082511115611b38578082604051602001611b2092919061395e565b60405160208183030381529060405292505050611b46565b611b4184612658565b925050505b919050565b6000600560008473ffffffffffffffffffffffffffffffffffffffff1673ffffffffffffffffffffffffffffffffffffffff16815260200190815260200160002060008373ffffffffffffffffffffffffffffffffffffffff1673ffffffffffffffffffffffffffffffffffffffff16815260200190815260200160002060009054906101000a900460ff16905092915050565b6000600b54341015611c26576040517f08c379a0000000000000000000000000000000000000000000000000000000008152600401611c1d906144fe565b60405180910390fd5b611c346008546009546126ff565b9050336012600083815260200190815260200160002060006101000a81548173ffffffffffffffffffffffffffffffffffffffff021916908373ffffffffffffffffffffffffffffffffffffffff1602179055506000600a5490508060136000848152602001908152602001600020819055506001600a54611cb69190613a11565b600a8190555080827fd18cd6f82baac9078af064ea020dd3dc7bff649bd8d50684f972d5995fec6e6960405160405180910390a35090565b60007f01ffc9a7000000000000000000000000000000000000000000000000000000007bffffffffffffffffffffffffffffffffffffffffffffffffffffffff1916827bffffffffffffffffffffffffffffffffffffffffffffffffffffffff1916149050919050565b60008073ffffffffffffffffffffffffffffffffffffffff166002600084815260200190815260200160002060009054906101000a900473ffffffffffffffffffffffffffffffffffffffff1673ffffffffffffffffffffffffffffffffffffffff1614159050919050565b600033905090565b816004600083815260200190815260200160002060006101000a81548173ffffffffffffffffffffffffffffffffffffffff021916908373ffffffffffffffffffffffffffffffffffffffff160217905550808273ffffffffffffffffffffffffffffffffffffffff16611e3f836110ba565b73ffffffffffffffffffffffffffffffffffffffff167f8c5be1e5ebec7d5bd14f71427d1e84f3dd0314c0f7b2291e5b200ac8c7c3b92560405160405180910390a45050565b6000611e9082611d58565b611ecf576040517f08c379a0000000000000000000000000000000000000000000000000000000008152600401611ec690614590565b60405180910390fd5b6000611eda836110ba565b90508073ffffffffffffffffffffffffffffffffffffffff168473ffffffffffffffffffffffffffffffffffffffff161480611f4957508373ffffffffffffffffffffffffffffffffffffffff16611f31846109a0565b73ffffffffffffffffffffffffffffffffffffffff16145b80611f5a5750611f598185611b4b565b5b91505092915050565b8273ffffffffffffffffffffffffffffffffffffffff16611f83826110ba565b73ffffffffffffffffffffffffffffffffffffffff1614611fd9576040517f08c379a0000000000000000000000000000000000000000000000000000000008152600401611fd090614622565b60405180910390fd5b600073ffffffffffffffffffffffffffffffffffffffff168273ffffffffffffffffffffffffffffffffffffffff161415612049576040517f08c379a0000000000000000000000000000000000000000000000000000000008152600401612040906146b4565b60405180910390fd5b612054838383612852565b61205f600082611dcc565b6001600360008573ffffffffffffffffffffffffffffffffffffffff1673ffffffffffffffffffffffffffffffffffffffff16815260200190815260200160002060008282546120af91906146d4565b925050819055506001600360008473ffffffffffffffffffffffffffffffffffffffff1673ffffffffffffffffffffffffffffffffffffffff16815260200190815260200160002060008282546121069190613a11565b92505081905550816002600083815260200190815260200160002060006101000a81548173ffffffffffffffffffffffffffffffffffffffff021916908373ffffffffffffffffffffffffffffffffffffffff160217905550808273ffffffffffffffffffffffffffffffffffffffff168473ffffffffffffffffffffffffffffffffffffffff167fddf252ad1be2c89b69c2b068fc378daa952ba7f163c4a11628f55a4df523b3ef60405160405180910390a4505050565b60606000825114156121e257604051806020016040528060008152509050612333565b6000604051806060016040528060408152602001614c4b60409139905060006003600285516122119190613a11565b61221b9190614708565b60046122279190614333565b905060006020826122389190613a11565b67ffffffffffffffff8111156122515761225061324b565b5b6040519080825280601f01601f1916602001820160405280156122835781602001600182028036833780820191505090505b509050818152600183018586518101602084015b818310156122f2576003830192508251603f8160121c168501518253600182019150603f81600c1c168501518253600182019150603f8160061c168501518253600182019150603f8116850151825360018201915050612297565b60038951066001811461230c576002811461231c57612327565b613d3d60f01b6002830352612327565b603d60f81b60018303525b50505050508093505050505b919050565b61234182611d58565b612380576040517f08c379a0000000000000000000000000000000000000000000000000000000008152600401612377906147ab565b60405180910390fd5b806006600084815260200190815260200160002090805190602001906123a7929190612e09565b505050565b606060008214156123f4576040518060400160405280600181526020017f30000000000000000000000000000000000000000000000000000000000000008152509050612530565b600082905060005b6000821461242657808061240f90613a90565b915050600a8261241f9190614708565b91506123fc565b60008167ffffffffffffffff8111156124425761244161324b565b5b6040519080825280601f01601f1916602001820160405280156124745781602001600182028036833780820191505090505b50905060008290505b600086146125285760018161249291906146d4565b90506000600a80886124a49190614708565b6124ae9190614333565b876124b991906146d4565b60306124c591906147d8565b905060008160f81b9050808484815181106124e3576124e2613ad9565b5b60200101907effffffffffffffffffffffffffffffffffffffffffffffffffffffffffffff1916908160001a905350600a8861251f9190614708565b9750505061247d565b819450505050505b919050565b60006012600084815260200190815260200160002060009054906101000a900473ffffffffffffffffffffffffffffffffffffffff16905060006013600085815260200190815260200160002054905061258f8282612857565b826014600083815260200190815260200160002081905550807faad5362ce528ed941024b95d4c18dfd49b8503e1f586a5c353631d98c2af41b7846040516125d791906131d3565b60405180910390a250505050565b6125f0848484611f63565b6125fc84848484612875565b61263b576040517f08c379a000000000000000000000000000000000000000000000000000000000815260040161263290614881565b60405180910390fd5b50505050565b606060405180602001604052806000815250905090565b606061266382611d58565b6126a2576040517f08c379a000000000000000000000000000000000000000000000000000000000815260040161269990614913565b60405180910390fd5b60006126ac612641565b905060008151116126cc57604051806020016040528060008152506126f7565b806126d6846129fd565b6040516020016126e792919061395e565b6040516020818303038152906040525b915050919050565b60007f000000000000000000000000000000000000000000000000000000000000000073ffffffffffffffffffffffffffffffffffffffff16634000aea07f000000000000000000000000000000000000000000000000000000000000000084866000604051602001612773929190614933565b6040516020818303038152906040526040518463ffffffff1660e01b81526004016127a0939291906149b1565b6020604051808303816000875af11580156127bf573d6000803e3d6000fd5b505050506040513d601f19601f820116820180604052508101906127e39190614a04565b506000612806846000306007600089815260200190815260200160002054612b5e565b9050600160076000868152602001908152602001600020546128289190613a11565b60076000868152602001908152602001600020819055506128498482612b9a565b91505092915050565b505050565b612871828260405180602001604052806000815250612bcd565b5050565b60006128968473ffffffffffffffffffffffffffffffffffffffff16612c28565b156129f0578373ffffffffffffffffffffffffffffffffffffffff1663150b7a026128bf611dc4565b8786866040518563ffffffff1660e01b81526004016128e19493929190614a31565b6020604051808303816000875af192505050801561291d57506040513d601f19601f8201168201806040525081019061291a9190614a92565b60015b6129a0573d806000811461294d576040519150601f19603f3d011682016040523d82523d6000602084013e612952565b606091505b50600081511415612998576040517f08c379a000000000000000000000000000000000000000000000000000000000815260040161298f90614881565b60405180910390fd5b805181602001fd5b63150b7a0260e01b7bffffffffffffffffffffffffffffffffffffffffffffffffffffffff1916817bffffffffffffffffffffffffffffffffffffffffffffffffffffffff1916149150506129f5565b600190505b949350505050565b60606000821415612a45576040518060400160405280600181526020017f30000000000000000000000000000000000000000000000000000000000000008152509050612b59565b600082905060005b60008214612a77578080612a6090613a90565b915050600a82612a709190614708565b9150612a4d565b60008167ffffffffffffffff811115612a9357612a9261324b565b5b6040519080825280601f01601f191660200182016040528015612ac55781602001600182028036833780820191505090505b5090505b60008514612b5257600182612ade91906146d4565b9150600a85612aed91906139b1565b6030612af99190613a11565b60f81b818381518110612b0f57612b0e613ad9565b5b60200101907effffffffffffffffffffffffffffffffffffffffffffffffffffffffffffff1916908160001a905350600a85612b4b9190614708565b9450612ac9565b8093505050505b919050565b600084848484604051602001612b779493929190614abf565b6040516020818303038152906040528051906020012060001c9050949350505050565b60008282604051602001612baf929190614b46565b60405160208183030381529060405280519060200120905092915050565b612bd78383612c3b565b612be46000848484612875565b612c23576040517f08c379a0000000000000000000000000000000000000000000000000000000008152600401612c1a90614881565b60405180910390fd5b505050565b600080823b905060008111915050919050565b600073ffffffffffffffffffffffffffffffffffffffff168273ffffffffffffffffffffffffffffffffffffffff161415612cab576040517f08c379a0000000000000000000000000000000000000000000000000000000008152600401612ca290614bbe565b60405180910390fd5b612cb481611d58565b15612cf4576040517f08c379a0000000000000000000000000000000000000000000000000000000008152600401612ceb90614c2a565b60405180910390fd5b612d0060008383612852565b6001600360008473ffffffffffffffffffffffffffffffffffffffff1673ffffffffffffffffffffffffffffffffffffffff1681526020019081526020016000206000828254612d509190613a11565b92505081905550816002600083815260200190815260200160002060006101000a81548173ffffffffffffffffffffffffffffffffffffffff021916908373ffffffffffffffffffffffffffffffffffffffff160217905550808273ffffffffffffffffffffffffffffffffffffffff16600073ffffffffffffffffffffffffffffffffffffffff167fddf252ad1be2c89b69c2b068fc378daa952ba7f163c4a11628f55a4df523b3ef60405160405180910390a45050565b828054612e1590613691565b90600052602060002090601f016020900481019282612e375760008555612e7e565b82601f10612e5057805160ff1916838001178555612e7e565b82800160010185558215612e7e579182015b82811115612e7d578251825591602001919060010190612e62565b5b509050612e8b9190612e8f565b5090565b5b80821115612ea8576000816000905550600101612e90565b5090565b6000604051905090565b600080fd5b600080fd5b60007fffffffff0000000000000000000000000000000000000000000000000000000082169050919050565b612ef581612ec0565b8114612f0057600080fd5b50565b600081359050612f1281612eec565b92915050565b600060208284031215612f2e57612f2d612eb6565b5b6000612f3c84828501612f03565b91505092915050565b60008115159050919050565b612f5a81612f45565b82525050565b6000602082019050612f756000830184612f51565b92915050565b600081519050919050565b600082825260208201905092915050565b60005b83811015612fb5578082015181840152602081019050612f9a565b83811115612fc4576000848401525b50505050565b6000601f19601f8301169050919050565b6000612fe682612f7b565b612ff08185612f86565b9350613000818560208601612f97565b61300981612fca565b840191505092915050565b6000602082019050818103600083015261302e8184612fdb565b905092915050565b6000819050919050565b61304981613036565b811461305457600080fd5b50565b60008135905061306681613040565b92915050565b60006020828403121561308257613081612eb6565b5b600061309084828501613057565b91505092915050565b600073ffffffffffffffffffffffffffffffffffffffff82169050919050565b60006130c482613099565b9050919050565b6130d4816130b9565b82525050565b60006020820190506130ef60008301846130cb565b92915050565b6130fe816130b9565b811461310957600080fd5b50565b60008135905061311b816130f5565b92915050565b6000806040838503121561313857613137612eb6565b5b60006131468582860161310c565b925050602061315785828601613057565b9150509250929050565b6000819050919050565b61317481613161565b811461317f57600080fd5b50565b6000813590506131918161316b565b92915050565b6000602082840312156131ad576131ac612eb6565b5b60006131bb84828501613182565b91505092915050565b6131cd81613036565b82525050565b60006020820190506131e860008301846131c4565b92915050565b60008060006060848603121561320757613206612eb6565b5b60006132158682870161310c565b93505060206132268682870161310c565b925050604061323786828701613057565b9150509250925092565b600080fd5b600080fd5b7f4e487b7100000000000000000000000000000000000000000000000000000000600052604160045260246000fd5b61328382612fca565b810181811067ffffffffffffffff821117156132a2576132a161324b565b5b80604052505050565b60006132b5612eac565b90506132c1828261327a565b919050565b600067ffffffffffffffff8211156132e1576132e061324b565b5b6132ea82612fca565b9050602081019050919050565b82818337600083830152505050565b6000613319613314846132c6565b6132ab565b90508281526020810184848401111561333557613334613246565b5b6133408482856132f7565b509392505050565b600082601f83011261335d5761335c613241565b5b813561336d848260208601613306565b91505092915050565b60006020828403121561338c5761338b612eb6565b5b600082013567ffffffffffffffff8111156133aa576133a9612ebb565b5b6133b684828501613348565b91505092915050565b6000602082840312156133d5576133d4612eb6565b5b60006133e38482850161310c565b91505092915050565b60006133f782613099565b9050919050565b613407816133ec565b82525050565b600060208201905061342260008301846133fe565b92915050565b6000806040838503121561343f5761343e612eb6565b5b600061344d85828601613182565b925050602061345e85828601613057565b9150509250929050565b61347181612f45565b811461347c57600080fd5b50565b60008135905061348e81613468565b92915050565b600080604083850312156134ab576134aa612eb6565b5b60006134b98582860161310c565b92505060206134ca8582860161347f565b9150509250929050565b600067ffffffffffffffff8211156134ef576134ee61324b565b5b6134f882612fca565b9050602081019050919050565b6000613518613513846134d4565b6132ab565b90508281526020810184848401111561353457613533613246565b5b61353f8482856132f7565b509392505050565b600082601f83011261355c5761355b613241565b5b813561356c848260208601613505565b91505092915050565b6000806000806080858703121561358f5761358e612eb6565b5b600061359d8782880161310c565b94505060206135ae8782880161310c565b93505060406135bf87828801613057565b925050606085013567ffffffffffffffff8111156135e0576135df612ebb565b5b6135ec87828801613547565b91505092959194509250565b6000806040838503121561360f5761360e612eb6565b5b600061361d8582860161310c565b925050602061362e8582860161310c565b9150509250929050565b61364181613161565b82525050565b600060208201905061365c6000830184613638565b92915050565b7f4e487b7100000000000000000000000000000000000000000000000000000000600052602260045260246000fd5b600060028204905060018216806136a957607f821691505b602082108114156136bd576136bc613662565b5b50919050565b7f4552433732313a20617070726f76656420717565727920666f72206e6f6e657860008201527f697374656e7420746f6b656e0000000000000000000000000000000000000000602082015250565b600061371f602c83612f86565b915061372a826136c3565b604082019050919050565b6000602082019050818103600083015261374e81613712565b9050919050565b7f4552433732313a20617070726f76616c20746f2063757272656e74206f776e6560008201527f7200000000000000000000000000000000000000000000000000000000000000602082015250565b60006137b1602183612f86565b91506137bc82613755565b604082019050919050565b600060208201905081810360008301526137e0816137a4565b9050919050565b7f4552433732313a20617070726f76652063616c6c6572206973206e6f74206f7760008201527f6e6572206e6f7220617070726f76656420666f7220616c6c0000000000000000602082015250565b6000613843603883612f86565b915061384e826137e7565b604082019050919050565b6000602082019050818103600083015261387281613836565b9050919050565b7f4552433732313a207472616e736665722063616c6c6572206973206e6f74206f60008201527f776e6572206e6f7220617070726f766564000000000000000000000000000000602082015250565b60006138d5603183612f86565b91506138e082613879565b604082019050919050565b60006020820190508181036000830152613904816138c8565b9050919050565b600081905092915050565b600061392182612f7b565b61392b818561390b565b935061393b818560208601612f97565b80840191505092915050565b60006139538284613916565b915081905092915050565b600061396a8285613916565b91506139768284613916565b91508190509392505050565b7f4e487b7100000000000000000000000000000000000000000000000000000000600052601260045260246000fd5b60006139bc82613036565b91506139c783613036565b9250826139d7576139d6613982565b5b828206905092915050565b7f4e487b7100000000000000000000000000000000000000000000000000000000600052601160045260246000fd5b6000613a1c82613036565b9150613a2783613036565b9250827fffffffffffffffffffffffffffffffffffffffffffffffffffffffffffffffff03821115613a5c57613a5b6139e2565b5b828201905092915050565b6000604082019050613a7c60008301856131c4565b613a8960208301846131c4565b9392505050565b6000613a9b82613036565b91507fffffffffffffffffffffffffffffffffffffffffffffffffffffffffffffffff821415613ace57613acd6139e2565b5b600182019050919050565b7f4e487b7100000000000000000000000000000000000000000000000000000000600052603260045260246000fd5b7f272066696c6c3d277472616e73706172656e7427207374726f6b653d27000000600082015250565b6000613b3e601d8361390b565b9150613b4982613b08565b601d82019050919050565b7f273e000000000000000000000000000000000000000000000000000000000000600082015250565b6000613b8a60028361390b565b9150613b9582613b54565b600282019050919050565b6000613bac8285613916565b9150613bb782613b31565b9150613bc38284613916565b9150613bce82613b7d565b91508190509392505050565b7f6e6f74206f776e65720000000000000000000000000000000000000000000000600082015250565b6000613c10600983612f86565b9150613c1b82613bda565b602082019050919050565b60006020820190508181036000830152613c3f81613c03565b9050919050565b7f746f6b656e2075726920616c7265616479207365740000000000000000000000600082015250565b6000613c7c601583612f86565b9150613c8782613c46565b602082019050919050565b60006020820190508181036000830152613cab81613c6f565b9050919050565b7f546f6b656e444920686173206e6f74206265656e206d696e7465642079657400600082015250565b6000613ce8601f83612f86565b9150613cf382613cb2565b602082019050919050565b60006020820190508181036000830152613d1781613cdb565b9050919050565b7f4e65656420746f207761697420666f7220436861696e6c696e6b205652460000600082015250565b6000613d54601e83612f86565b9150613d5f82613d1e565b602082019050919050565b60006020820190508181036000830152613d8381613d47565b9050919050565b7f4552433732313a206f776e657220717565727920666f72206e6f6e657869737460008201527f656e7420746f6b656e0000000000000000000000000000000000000000000000602082015250565b6000613de6602983612f86565b9150613df182613d8a565b604082019050919050565b60006020820190508181036000830152613e1581613dd9565b9050919050565b7f3c73766720786d6c6e733d27687474703a2f2f7777772e77332e6f72672f323060008201527f30302f73766727206865696768743d2700000000000000000000000000000000602082015250565b6000613e7860308361390b565b9150613e8382613e1c565b603082019050919050565b7f272077696474683d270000000000000000000000000000000000000000000000600082015250565b6000613ec460098361390b565b9150613ecf82613e8e565b600982019050919050565b7f273e270000000000000000000000000000000000000000000000000000000000600082015250565b6000613f1060038361390b565b9150613f1b82613eda565b600382019050919050565b6000613f3182613e6b565b9150613f3d8285613916565b9150613f4882613eb7565b9150613f548284613916565b9150613f5f82613f03565b91508190509392505050565b7f3c2f7376673e0000000000000000000000000000000000000000000000000000600082015250565b6000613fa160068361390b565b9150613fac82613f6b565b600682019050919050565b6000613fc38284613916565b9150613fce82613f94565b915081905092915050565b7f4552433732313a2062616c616e636520717565727920666f7220746865207a6560008201527f726f206164647265737300000000000000000000000000000000000000000000602082015250565b6000614035602a83612f86565b915061404082613fd9565b604082019050919050565b6000602082019050818103600083015261406481614028565b9050919050565b7f7b226e616d65223a2022535647204e4654222c20000000000000000000000000600082015250565b60006140a160148361390b565b91506140ac8261406b565b601482019050919050565b7f226465736372697074696f6e223a2022416e204e4654206261736564206f6e2060008201527f53564721222c2000000000000000000000000000000000000000000000000000602082015250565b600061411360278361390b565b915061411e826140b7565b602782019050919050565b7f2261747472696275746573223a2022222c200000000000000000000000000000600082015250565b600061415f60128361390b565b915061416a82614129565b601282019050919050565b7f22696d616765223a202200000000000000000000000000000000000000000000600082015250565b60006141ab600a8361390b565b91506141b682614175565b600a82019050919050565b7f227d000000000000000000000000000000000000000000000000000000000000600082015250565b60006141f760028361390b565b9150614202826141c1565b600282019050919050565b600061421882614094565b915061422382614106565b915061422e82614152565b91506142398261419e565b91506142458284613916565b9150614250826141ea565b915081905092915050565b7f4f6e6c7920565246436f6f7264696e61746f722063616e2066756c66696c6c00600082015250565b6000614291601f83612f86565b915061429c8261425b565b602082019050919050565b600060208201905081810360008301526142c081614284565b9050919050565b7f4552433732313a20617070726f766520746f2063616c6c657200000000000000600082015250565b60006142fd601983612f86565b9150614308826142c7565b602082019050919050565b6000602082019050818103600083015261432c816142f0565b9050919050565b600061433e82613036565b915061434983613036565b9250817fffffffffffffffffffffffffffffffffffffffffffffffffffffffffffffffff0483118215151615614382576143816139e2565b5b828202905092915050565b7f2000000000000000000000000000000000000000000000000000000000000000600082015250565b60006143c360018361390b565b91506143ce8261438d565b600182019050919050565b60006143e58286613916565b91506143f0826143b6565b91506143fc8285613916565b9150614407826143b6565b91506144138284613916565b9150819050949350505050565b7f45524337323155524953746f726167653a2055524920717565727920666f722060008201527f6e6f6e6578697374656e7420746f6b656e000000000000000000000000000000602082015250565b600061447c603183612f86565b915061448782614420565b604082019050919050565b600060208201905081810360008301526144ab8161446f565b9050919050565b7f6e65656420746f2073656e64206d6f7265206574680000000000000000000000600082015250565b60006144e8601583612f86565b91506144f3826144b2565b602082019050919050565b60006020820190508181036000830152614517816144db565b9050919050565b7f4552433732313a206f70657261746f7220717565727920666f72206e6f6e657860008201527f697374656e7420746f6b656e0000000000000000000000000000000000000000602082015250565b600061457a602c83612f86565b91506145858261451e565b604082019050919050565b600060208201905081810360008301526145a98161456d565b9050919050565b7f4552433732313a207472616e73666572206f6620746f6b656e2074686174206960008201527f73206e6f74206f776e0000000000000000000000000000000000000000000000602082015250565b600061460c602983612f86565b9150614617826145b0565b604082019050919050565b6000602082019050818103600083015261463b816145ff565b9050919050565b7f4552433732313a207472616e7366657220746f20746865207a65726f2061646460008201527f7265737300000000000000000000000000000000000000000000000000000000602082015250565b600061469e602483612f86565b91506146a982614642565b604082019050919050565b600060208201905081810360008301526146cd81614691565b9050919050565b60006146df82613036565b91506146ea83613036565b9250828210156146fd576146fc6139e2565b5b828203905092915050565b600061471382613036565b915061471e83613036565b92508261472e5761472d613982565b5b828204905092915050565b7f45524337323155524953746f726167653a2055524920736574206f66206e6f6e60008201527f6578697374656e7420746f6b656e000000000000000000000000000000000000602082015250565b6000614795602e83612f86565b91506147a082614739565b604082019050919050565b600060208201905081810360008301526147c481614788565b9050919050565b600060ff82169050919050565b60006147e3826147cb565b91506147ee836147cb565b92508260ff03821115614804576148036139e2565b5b828201905092915050565b7f4552433732313a207472616e7366657220746f206e6f6e20455243373231526560008201527f63656976657220696d706c656d656e7465720000000000000000000000000000602082015250565b600061486b603283612f86565b91506148768261480f565b604082019050919050565b6000602082019050818103600083015261489a8161485e565b9050919050565b7f4552433732314d657461646174613a2055524920717565727920666f72206e6f60008201527f6e6578697374656e7420746f6b656e0000000000000000000000000000000000602082015250565b60006148fd602f83612f86565b9150614908826148a1565b604082019050919050565b6000602082019050818103600083015261492c816148f0565b9050919050565b60006040820190506149486000830185613638565b61495560208301846131c4565b9392505050565b600081519050919050565b600082825260208201905092915050565b60006149838261495c565b61498d8185614967565b935061499d818560208601612f97565b6149a681612fca565b840191505092915050565b60006060820190506149c660008301866130cb565b6149d360208301856131c4565b81810360408301526149e58184614978565b9050949350505050565b6000815190506149fe81613468565b92915050565b600060208284031215614a1a57614a19612eb6565b5b6000614a28848285016149ef565b91505092915050565b6000608082019050614a4660008301876130cb565b614a5360208301866130cb565b614a6060408301856131c4565b8181036060830152614a728184614978565b905095945050505050565b600081519050614a8c81612eec565b92915050565b600060208284031215614aa857614aa7612eb6565b5b6000614ab684828501614a7d565b91505092915050565b6000608082019050614ad46000830187613638565b614ae160208301866131c4565b614aee60408301856130cb565b614afb60608301846131c4565b95945050505050565b6000819050919050565b614b1f614b1a82613161565b614b04565b82525050565b6000819050919050565b614b40614b3b82613036565b614b25565b82525050565b6000614b528285614b0e565b602082019150614b628284614b2f565b6020820191508190509392505050565b7f4552433732313a206d696e7420746f20746865207a65726f2061646472657373600082015250565b6000614ba8602083612f86565b9150614bb382614b72565b602082019050919050565b60006020820190508181036000830152614bd781614b9b565b9050919050565b7f4552433732313a20746f6b656e20616c7265616479206d696e74656400000000600082015250565b6000614c14601c83612f86565b9150614c1f82614bde565b602082019050919050565b60006020820190508181036000830152614c4381614c07565b905091905056fe4142434445464748494a4b4c4d4e4f505152535455565758595a6162636465666768696a6b6c6d6e6f707172737475767778797a303132333435363738392b2fa264697066735822122069d0841463bb674958ea70a04df830dccc39dcff79624059e3c78de63d85758664736f6c634300080a0033",
  "linkReferences": {},
  "deployedLinkReferences": {}
}