{
  "_format": "hh-sol-artifact-1",
  "contractName": "SampleERC1155",
  "sourceName": "contracts/SampleERC1155.sol",
  "abi": [
    {
      "inputs": [
        {
          "internalType": "string",
          "name": "_uri",
          "type": "string"
        }
      ],
      "stateMutability": "nonpayable",
      "type": "constructor"
    },
    {
      "anonymous": false,
      "inputs": [
        {
          "indexed": true,
          "internalType": "address",
          "name": "account",
          "type": "address"
        },
        {
          "indexed": true,
          "internalType": "address",
          "name": "operator",
          "type": "address"
        },
        {
          "indexed": false,
          "internalType": "bool",
          "name": "approved",
          "type": "bool"
        }
      ],
      "name": "ApprovalForAll",
      "type": "event"
    },
    {
      "anonymous": false,
      "inputs": [
        {
          "indexed": true,
          "internalType": "address",
          "name": "previousOwner",
          "type": "address"
        },
        {
          "indexed": true,
          "internalType": "address",
          "name": "newOwner",
          "type": "address"
        }
      ],
      "name": "OwnershipTransferred",
      "type": "event"
    },
    {
      "anonymous": false,
      "inputs": [
        {
          "indexed": true,
          "internalType": "address",
          "name": "operator",
          "type": "address"
        },
        {
          "indexed": true,
          "internalType": "address",
          "name": "from",
          "type": "address"
        },
        {
          "indexed": true,
          "internalType": "address",
          "name": "to",
          "type": "address"
        },
        {
          "indexed": false,
          "internalType": "uint256[]",
          "name": "ids",
          "type": "uint256[]"
        },
        {
          "indexed": false,
          "internalType": "uint256[]",
          "name": "values",
          "type": "uint256[]"
        }
      ],
      "name": "TransferBatch",
      "type": "event"
    },
    {
      "anonymous": false,
      "inputs": [
        {
          "indexed": true,
          "internalType": "address",
          "name": "operator",
          "type": "address"
        },
        {
          "indexed": true,
          "internalType": "address",
          "name": "from",
          "type": "address"
        },
        {
          "indexed": true,
          "internalType": "address",
          "name": "to",
          "type": "address"
        },
        {
          "indexed": false,
          "internalType": "uint256",
          "name": "id",
          "type": "uint256"
        },
        {
          "indexed": false,
          "internalType": "uint256",
          "name": "value",
          "type": "uint256"
        }
      ],
      "name": "TransferSingle",
      "type": "event"
    },
    {
      "anonymous": false,
      "inputs": [
        {
          "indexed": false,
          "internalType": "string",
          "name": "value",
          "type": "string"
        },
        {
          "indexed": true,
          "internalType": "uint256",
          "name": "id",
          "type": "uint256"
        }
      ],
      "name": "URI",
      "type": "event"
    },
    {
      "inputs": [
        {
          "internalType": "address",
          "name": "account",
          "type": "address"
        },
        {
          "internalType": "uint256",
          "name": "id",
          "type": "uint256"
        }
      ],
      "name": "balanceOf",
      "outputs": [
        {
          "internalType": "uint256",
          "name": "",
          "type": "uint256"
        }
      ],
      "stateMutability": "view",
      "type": "function"
    },
    {
      "inputs": [
        {
          "internalType": "address[]",
          "name": "accounts",
          "type": "address[]"
        },
        {
          "internalType": "uint256[]",
          "name": "ids",
          "type": "uint256[]"
        }
      ],
      "name": "balanceOfBatch",
      "outputs": [
        {
          "internalType": "uint256[]",
          "name": "",
          "type": "uint256[]"
        }
      ],
      "stateMutability": "view",
      "type": "function"
    },
    {
      "inputs": [
        {
          "internalType": "address",
          "name": "account",
          "type": "address"
        },
        {
          "internalType": "uint256",
          "name": "id",
          "type": "uint256"
        },
        {
          "internalType": "uint256",
          "name": "value",
          "type": "uint256"
        }
      ],
      "name": "burn",
      "outputs": [],
      "stateMutability": "nonpayable",
      "type": "function"
    },
    {
      "inputs": [
        {
          "internalType": "address",
          "name": "account",
          "type": "address"
        },
        {
          "internalType": "uint256[]",
          "name": "ids",
          "type": "uint256[]"
        },
        {
          "internalType": "uint256[]",
          "name": "values",
          "type": "uint256[]"
        }
      ],
      "name": "burnBatch",
      "outputs": [],
      "stateMutability": "nonpayable",
      "type": "function"
    },
    {
      "inputs": [
        {
          "internalType": "address",
          "name": "account",
          "type": "address"
        },
        {
          "internalType": "address",
          "name": "operator",
          "type": "address"
        }
      ],
      "name": "isApprovedForAll",
      "outputs": [
        {
          "internalType": "bool",
          "name": "",
          "type": "bool"
        }
      ],
      "stateMutability": "view",
      "type": "function"
    },
    {
      "inputs": [
        {
          "internalType": "address",
          "name": "account",
          "type": "address"
        },
        {
          "internalType": "uint256",
          "name": "id",
          "type": "uint256"
        },
        {
          "internalType": "uint256",
          "name": "amount",
          "type": "uint256"
        },
        {
          "internalType": "bytes",
          "name": "data",
          "type": "bytes"
        }
      ],
      "name": "mint",
      "outputs": [],
      "stateMutability": "nonpayable",
      "type": "function"
    },
    {
      "inputs": [],
      "name": "owner",
      "outputs": [
        {
          "internalType": "address",
          "name": "",
          "type": "address"
        }
      ],
      "stateMutability": "view",
      "type": "function"
    },
    {
      "inputs": [],
      "name": "renounceOwnership",
      "outputs": [],
      "stateMutability": "nonpayable",
      "type": "function"
    },
    {
      "inputs": [
        {
          "internalType": "address",
          "name": "from",
          "type": "address"
        },
        {
          "internalType": "address",
          "name": "to",
          "type": "address"
        },
        {
          "internalType": "uint256[]",
          "name": "ids",
          "type": "uint256[]"
        },
        {
          "internalType": "uint256[]",
          "name": "amounts",
          "type": "uint256[]"
        },
        {
          "internalType": "bytes",
          "name": "data",
          "type": "bytes"
        }
      ],
      "name": "safeBatchTransferFrom",
      "outputs": [],
      "stateMutability": "nonpayable",
      "type": "function"
    },
    {
      "inputs": [
        {
          "internalType": "address",
          "name": "from",
          "type": "address"
        },
        {
          "internalType": "address",
          "name": "to",
          "type": "address"
        },
        {
          "internalType": "uint256",
          "name": "id",
          "type": "uint256"
        },
        {
          "internalType": "uint256",
          "name": "amount",
          "type": "uint256"
        },
        {
          "internalType": "bytes",
          "name": "data",
          "type": "bytes"
        }
      ],
      "name": "safeTransferFrom",
      "outputs": [],
      "stateMutability": "nonpayable",
      "type": "function"
    },
    {
      "inputs": [
        {
          "internalType": "address",
          "name": "operator",
          "type": "address"
        },
        {
          "internalType": "bool",
          "name": "approved",
          "type": "bool"
        }
      ],
      "name": "setApprovalForAll",
      "outputs": [],
      "stateMutability": "nonpayable",
      "type": "function"
    },
    {
      "inputs": [
        {
          "internalType": "address",
          "name": "_marketplaceAddress",
          "type": "address"
        }
      ],
      "name": "setMarketplaceAddress",
      "outputs": [],
      "stateMutability": "nonpayable",
      "type": "function"
    },
    {
      "inputs": [
        {
          "internalType": "bytes4",
          "name": "interfaceId",
          "type": "bytes4"
        }
      ],
      "name": "supportsInterface",
      "outputs": [
        {
          "internalType": "bool",
          "name": "",
          "type": "bool"
        }
      ],
      "stateMutability": "view",
      "type": "function"
    },
    {
      "inputs": [
        {
          "internalType": "address",
          "name": "newOwner",
          "type": "address"
        }
      ],
      "name": "transferOwnership",
      "outputs": [],
      "stateMutability": "nonpayable",
      "type": "function"
    },
    {
      "inputs": [
        {
          "internalType": "uint256",
          "name": "",
          "type": "uint256"
        }
      ],
      "name": "uri",
      "outputs": [
        {
          "internalType": "string",
          "name": "",
          "type": "string"
        }
      ],
      "stateMutability": "view",
      "type": "function"
    }
  ],
  "bytecode": "0x60806040523480156200001157600080fd5b5060405162003b6e38038062003b6e8339818101604052810190620000379190620003a8565b8062000049816200007160201b60201c565b506200006a6200005e6200008d60201b60201c565b6200009560201b60201c565b506200045e565b8060029080519060200190620000899291906200015b565b5050565b600033905090565b6000600360009054906101000a900473ffffffffffffffffffffffffffffffffffffffff16905081600360006101000a81548173ffffffffffffffffffffffffffffffffffffffff021916908373ffffffffffffffffffffffffffffffffffffffff1602179055508173ffffffffffffffffffffffffffffffffffffffff168173ffffffffffffffffffffffffffffffffffffffff167f8be0079c531659141344cd1fd0a4f28419497f9722a3daafe3b4186f6b6457e060405160405180910390a35050565b828054620001699062000428565b90600052602060002090601f0160209004810192826200018d5760008555620001d9565b82601f10620001a857805160ff1916838001178555620001d9565b82800160010185558215620001d9579182015b82811115620001d8578251825591602001919060010190620001bb565b5b509050620001e89190620001ec565b5090565b5b8082111562000207576000816000905550600101620001ed565b5090565b6000604051905090565b600080fd5b600080fd5b600080fd5b600080fd5b6000601f19601f8301169050919050565b7f4e487b7100000000000000000000000000000000000000000000000000000000600052604160045260246000fd5b620002748262000229565b810181811067ffffffffffffffff821117156200029657620002956200023a565b5b80604052505050565b6000620002ab6200020b565b9050620002b9828262000269565b919050565b600067ffffffffffffffff821115620002dc57620002db6200023a565b5b620002e78262000229565b9050602081019050919050565b60005b8381101562000314578082015181840152602081019050620002f7565b8381111562000324576000848401525b50505050565b6000620003416200033b84620002be565b6200029f565b90508281526020810184848401111562000360576200035f62000224565b5b6200036d848285620002f4565b509392505050565b600082601f8301126200038d576200038c6200021f565b5b81516200039f8482602086016200032a565b91505092915050565b600060208284031215620003c157620003c062000215565b5b600082015167ffffffffffffffff811115620003e257620003e16200021a565b5b620003f08482850162000375565b91505092915050565b7f4e487b7100000000000000000000000000000000000000000000000000000000600052602260045260246000fd5b600060028204905060018216806200044157607f821691505b60208210811415620004585762000457620003f9565b5b50919050565b613700806200046e6000396000f3fe608060405234801561001057600080fd5b50600436106100f45760003560e01c8063731133e911610097578063e985e9c511610066578063e985e9c51461026d578063f242432a1461029d578063f2fde38b146102b9578063f5298aca146102d5576100f4565b8063731133e9146101fb5780638da5cb5b14610217578063a22cb46514610235578063b47cc55614610251576100f4565b80632eb2c2d6116100d35780632eb2c2d6146101895780634e1273f4146101a55780636b20c454146101d5578063715018a6146101f1576100f4565b8062fdd58e146100f957806301ffc9a7146101295780630e89341c14610159575b600080fd5b610113600480360381019061010e9190612005565b6102f1565b6040516101209190612054565b60405180910390f35b610143600480360381019061013e91906120c7565b6103ba565b604051610150919061210f565b60405180910390f35b610173600480360381019061016e919061212a565b61049c565b60405161018091906121f0565b60405180910390f35b6101a3600480360381019061019e919061240f565b610530565b005b6101bf60048036038101906101ba91906125a1565b6105d1565b6040516101cc91906126d7565b60405180910390f35b6101ef60048036038101906101ea91906126f9565b6106ea565b005b6101f9610787565b005b61021560048036038101906102109190612784565b61080f565b005b61021f6108b1565b60405161022c9190612816565b60405180910390f35b61024f600480360381019061024a919061285d565b6108db565b005b61026b6004803603810190610266919061289d565b610a5c565b005b610287600480360381019061028291906128ca565b610b1c565b604051610294919061210f565b60405180910390f35b6102b760048036038101906102b2919061290a565b610bb0565b005b6102d360048036038101906102ce919061289d565b610c51565b005b6102ef60048036038101906102ea91906129a1565b610d49565b005b60008073ffffffffffffffffffffffffffffffffffffffff168373ffffffffffffffffffffffffffffffffffffffff161415610362576040517f08c379a000000000000000000000000000000000000000000000000000000000815260040161035990612a66565b60405180910390fd5b60008083815260200190815260200160002060008473ffffffffffffffffffffffffffffffffffffffff1673ffffffffffffffffffffffffffffffffffffffff16815260200190815260200160002054905092915050565b60007fd9b67a26000000000000000000000000000000000000000000000000000000007bffffffffffffffffffffffffffffffffffffffffffffffffffffffff1916827bffffffffffffffffffffffffffffffffffffffffffffffffffffffff1916148061048557507f0e89341c000000000000000000000000000000000000000000000000000000007bffffffffffffffffffffffffffffffffffffffffffffffffffffffff1916827bffffffffffffffffffffffffffffffffffffffffffffffffffffffff1916145b80610495575061049482610de6565b5b9050919050565b6060600280546104ab90612ab5565b80601f01602080910402602001604051908101604052809291908181526020018280546104d790612ab5565b80156105245780601f106104f957610100808354040283529160200191610524565b820191906000526020600020905b81548152906001019060200180831161050757829003601f168201915b50505050509050919050565b610538610e50565b73ffffffffffffffffffffffffffffffffffffffff168573ffffffffffffffffffffffffffffffffffffffff16148061057e575061057d85610578610e50565b610b1c565b5b6105bd576040517f08c379a00000000000000000000000000000000000000000000000000000000081526004016105b490612b59565b60405180910390fd5b6105ca8585858585610e58565b5050505050565b60608151835114610617576040517f08c379a000000000000000000000000000000000000000000000000000000000815260040161060e90612beb565b60405180910390fd5b6000835167ffffffffffffffff81111561063457610633612217565b5b6040519080825280602002602001820160405280156106625781602001602082028036833780820191505090505b50905060005b84518110156106df576106af85828151811061068757610686612c0b565b5b60200260200101518583815181106106a2576106a1612c0b565b5b60200260200101516102f1565b8282815181106106c2576106c1612c0b565b5b602002602001018181525050806106d890612c69565b9050610668565b508091505092915050565b6106f2610e50565b73ffffffffffffffffffffffffffffffffffffffff168373ffffffffffffffffffffffffffffffffffffffff161480610738575061073783610732610e50565b610b1c565b5b610777576040517f08c379a000000000000000000000000000000000000000000000000000000000815260040161076e90612d24565b60405180910390fd5b61078283838361116c565b505050565b61078f610e50565b73ffffffffffffffffffffffffffffffffffffffff166107ad6108b1565b73ffffffffffffffffffffffffffffffffffffffff1614610803576040517f08c379a00000000000000000000000000000000000000000000000000000000081526004016107fa90612d90565b60405180910390fd5b61080d600061141d565b565b600460009054906101000a900473ffffffffffffffffffffffffffffffffffffffff1673ffffffffffffffffffffffffffffffffffffffff163373ffffffffffffffffffffffffffffffffffffffff161461089f576040517f08c379a000000000000000000000000000000000000000000000000000000000815260040161089690612e22565b60405180910390fd5b6108ab848484846114e3565b50505050565b6000600360009054906101000a900473ffffffffffffffffffffffffffffffffffffffff16905090565b8173ffffffffffffffffffffffffffffffffffffffff166108fa610e50565b73ffffffffffffffffffffffffffffffffffffffff161415610951576040517f08c379a000000000000000000000000000000000000000000000000000000000815260040161094890612eb4565b60405180910390fd5b806001600061095e610e50565b73ffffffffffffffffffffffffffffffffffffffff1673ffffffffffffffffffffffffffffffffffffffff16815260200190815260200160002060008473ffffffffffffffffffffffffffffffffffffffff1673ffffffffffffffffffffffffffffffffffffffff16815260200190815260200160002060006101000a81548160ff0219169083151502179055508173ffffffffffffffffffffffffffffffffffffffff16610a0b610e50565b73ffffffffffffffffffffffffffffffffffffffff167f17307eab39ab6107e8899845ad3d59bd9653f200f220920489ca2b5937696c3183604051610a50919061210f565b60405180910390a35050565b610a64610e50565b73ffffffffffffffffffffffffffffffffffffffff16610a826108b1565b73ffffffffffffffffffffffffffffffffffffffff1614610ad8576040517f08c379a0000000000000000000000000000000000000000000000000000000008152600401610acf90612d90565b60405180910390fd5b80600460006101000a81548173ffffffffffffffffffffffffffffffffffffffff021916908373ffffffffffffffffffffffffffffffffffffffff16021790555050565b6000600160008473ffffffffffffffffffffffffffffffffffffffff1673ffffffffffffffffffffffffffffffffffffffff16815260200190815260200160002060008373ffffffffffffffffffffffffffffffffffffffff1673ffffffffffffffffffffffffffffffffffffffff16815260200190815260200160002060009054906101000a900460ff16905092915050565b610bb8610e50565b73ffffffffffffffffffffffffffffffffffffffff168573ffffffffffffffffffffffffffffffffffffffff161480610bfe5750610bfd85610bf8610e50565b610b1c565b5b610c3d576040517f08c379a0000000000000000000000000000000000000000000000000000000008152600401610c3490612d24565b60405180910390fd5b610c4a8585858585611679565b5050505050565b610c59610e50565b73ffffffffffffffffffffffffffffffffffffffff16610c776108b1565b73ffffffffffffffffffffffffffffffffffffffff1614610ccd576040517f08c379a0000000000000000000000000000000000000000000000000000000008152600401610cc490612d90565b60405180910390fd5b600073ffffffffffffffffffffffffffffffffffffffff168173ffffffffffffffffffffffffffffffffffffffff161415610d3d576040517f08c379a0000000000000000000000000000000000000000000000000000000008152600401610d3490612f46565b60405180910390fd5b610d468161141d565b50565b610d51610e50565b73ffffffffffffffffffffffffffffffffffffffff168373ffffffffffffffffffffffffffffffffffffffff161480610d975750610d9683610d91610e50565b610b1c565b5b610dd6576040517f08c379a0000000000000000000000000000000000000000000000000000000008152600401610dcd90612d24565b60405180910390fd5b610de18383836118fb565b505050565b60007f01ffc9a7000000000000000000000000000000000000000000000000000000007bffffffffffffffffffffffffffffffffffffffffffffffffffffffff1916827bffffffffffffffffffffffffffffffffffffffffffffffffffffffff1916149050919050565b600033905090565b8151835114610e9c576040517f08c379a0000000000000000000000000000000000000000000000000000000008152600401610e9390612fd8565b60405180910390fd5b600073ffffffffffffffffffffffffffffffffffffffff168473ffffffffffffffffffffffffffffffffffffffff161415610f0c576040517f08c379a0000000000000000000000000000000000000000000000000000000008152600401610f039061306a565b60405180910390fd5b6000610f16610e50565b9050610f26818787878787611b18565b60005b84518110156110d7576000858281518110610f4757610f46612c0b565b5b602002602001015190506000858381518110610f6657610f65612c0b565b5b60200260200101519050600080600084815260200190815260200160002060008b73ffffffffffffffffffffffffffffffffffffffff1673ffffffffffffffffffffffffffffffffffffffff16815260200190815260200160002054905081811015611007576040517f08c379a0000000000000000000000000000000000000000000000000000000008152600401610ffe906130fc565b60405180910390fd5b81810360008085815260200190815260200160002060008c73ffffffffffffffffffffffffffffffffffffffff1673ffffffffffffffffffffffffffffffffffffffff168152602001908152602001600020819055508160008085815260200190815260200160002060008b73ffffffffffffffffffffffffffffffffffffffff1673ffffffffffffffffffffffffffffffffffffffff16815260200190815260200160002060008282546110bc919061311c565b92505081905550505050806110d090612c69565b9050610f29565b508473ffffffffffffffffffffffffffffffffffffffff168673ffffffffffffffffffffffffffffffffffffffff168273ffffffffffffffffffffffffffffffffffffffff167f4a39dc06d4c0dbc64b70af90fd698a233a518aa5d07e595d983b8c0526c8f7fb878760405161114e929190613172565b60405180910390a4611164818787878787611b20565b505050505050565b600073ffffffffffffffffffffffffffffffffffffffff168373ffffffffffffffffffffffffffffffffffffffff1614156111dc576040517f08c379a00000000000000000000000000000000000000000000000000000000081526004016111d39061321b565b60405180910390fd5b8051825114611220576040517f08c379a000000000000000000000000000000000000000000000000000000000815260040161121790612fd8565b60405180910390fd5b600061122a610e50565b905061124a81856000868660405180602001604052806000815250611b18565b60005b835181101561139757600084828151811061126b5761126a612c0b565b5b60200260200101519050600084838151811061128a57611289612c0b565b5b60200260200101519050600080600084815260200190815260200160002060008973ffffffffffffffffffffffffffffffffffffffff1673ffffffffffffffffffffffffffffffffffffffff1681526020019081526020016000205490508181101561132b576040517f08c379a0000000000000000000000000000000000000000000000000000000008152600401611322906132ad565b60405180910390fd5b81810360008085815260200190815260200160002060008a73ffffffffffffffffffffffffffffffffffffffff1673ffffffffffffffffffffffffffffffffffffffff16815260200190815260200160002081905550505050808061138f90612c69565b91505061124d565b50600073ffffffffffffffffffffffffffffffffffffffff168473ffffffffffffffffffffffffffffffffffffffff168273ffffffffffffffffffffffffffffffffffffffff167f4a39dc06d4c0dbc64b70af90fd698a233a518aa5d07e595d983b8c0526c8f7fb868660405161140f929190613172565b60405180910390a450505050565b6000600360009054906101000a900473ffffffffffffffffffffffffffffffffffffffff16905081600360006101000a81548173ffffffffffffffffffffffffffffffffffffffff021916908373ffffffffffffffffffffffffffffffffffffffff1602179055508173ffffffffffffffffffffffffffffffffffffffff168173ffffffffffffffffffffffffffffffffffffffff167f8be0079c531659141344cd1fd0a4f28419497f9722a3daafe3b4186f6b6457e060405160405180910390a35050565b600073ffffffffffffffffffffffffffffffffffffffff168473ffffffffffffffffffffffffffffffffffffffff161415611553576040517f08c379a000000000000000000000000000000000000000000000000000000000815260040161154a9061333f565b60405180910390fd5b600061155d610e50565b905061157e8160008761156f88611cf8565b61157888611cf8565b87611b18565b8260008086815260200190815260200160002060008773ffffffffffffffffffffffffffffffffffffffff1673ffffffffffffffffffffffffffffffffffffffff16815260200190815260200160002060008282546115dd919061311c565b925050819055508473ffffffffffffffffffffffffffffffffffffffff16600073ffffffffffffffffffffffffffffffffffffffff168273ffffffffffffffffffffffffffffffffffffffff167fc3d58168c5ae7397731d063d5bbf3d657854427343f4c083240f7aacaa2d0f62878760405161165b92919061335f565b60405180910390a461167281600087878787611d72565b5050505050565b600073ffffffffffffffffffffffffffffffffffffffff168473ffffffffffffffffffffffffffffffffffffffff1614156116e9576040517f08c379a00000000000000000000000000000000000000000000000000000000081526004016116e09061306a565b60405180910390fd5b60006116f3610e50565b905061171381878761170488611cf8565b61170d88611cf8565b87611b18565b600080600086815260200190815260200160002060008873ffffffffffffffffffffffffffffffffffffffff1673ffffffffffffffffffffffffffffffffffffffff168152602001908152602001600020549050838110156117aa576040517f08c379a00000000000000000000000000000000000000000000000000000000081526004016117a1906130fc565b60405180910390fd5b83810360008087815260200190815260200160002060008973ffffffffffffffffffffffffffffffffffffffff1673ffffffffffffffffffffffffffffffffffffffff168152602001908152602001600020819055508360008087815260200190815260200160002060008873ffffffffffffffffffffffffffffffffffffffff1673ffffffffffffffffffffffffffffffffffffffff168152602001908152602001600020600082825461185f919061311c565b925050819055508573ffffffffffffffffffffffffffffffffffffffff168773ffffffffffffffffffffffffffffffffffffffff168373ffffffffffffffffffffffffffffffffffffffff167fc3d58168c5ae7397731d063d5bbf3d657854427343f4c083240f7aacaa2d0f6288886040516118dc92919061335f565b60405180910390a46118f2828888888888611d72565b50505050505050565b600073ffffffffffffffffffffffffffffffffffffffff168373ffffffffffffffffffffffffffffffffffffffff16141561196b576040517f08c379a00000000000000000000000000000000000000000000000000000000081526004016119629061321b565b60405180910390fd5b6000611975610e50565b90506119a58185600061198787611cf8565b61199087611cf8565b60405180602001604052806000815250611b18565b600080600085815260200190815260200160002060008673ffffffffffffffffffffffffffffffffffffffff1673ffffffffffffffffffffffffffffffffffffffff16815260200190815260200160002054905082811015611a3c576040517f08c379a0000000000000000000000000000000000000000000000000000000008152600401611a33906132ad565b60405180910390fd5b82810360008086815260200190815260200160002060008773ffffffffffffffffffffffffffffffffffffffff1673ffffffffffffffffffffffffffffffffffffffff16815260200190815260200160002081905550600073ffffffffffffffffffffffffffffffffffffffff168573ffffffffffffffffffffffffffffffffffffffff168373ffffffffffffffffffffffffffffffffffffffff167fc3d58168c5ae7397731d063d5bbf3d657854427343f4c083240f7aacaa2d0f628787604051611b0992919061335f565b60405180910390a45050505050565b505050505050565b611b3f8473ffffffffffffffffffffffffffffffffffffffff16611f4a565b15611cf0578373ffffffffffffffffffffffffffffffffffffffff1663bc197c8187878686866040518663ffffffff1660e01b8152600401611b859594939291906133dd565b6020604051808303816000875af1925050508015611bc157506040513d601f19601f82011682018060405250810190611bbe919061345a565b60015b611c6757611bcd613494565b806308c379a01415611c2a5750611be26134b6565b80611bed5750611c2c565b806040517f08c379a0000000000000000000000000000000000000000000000000000000008152600401611c2191906121f0565b60405180910390fd5b505b6040517f08c379a0000000000000000000000000000000000000000000000000000000008152600401611c5e906135be565b60405180910390fd5b63bc197c8160e01b7bffffffffffffffffffffffffffffffffffffffffffffffffffffffff1916817bffffffffffffffffffffffffffffffffffffffffffffffffffffffff191614611cee576040517f08c379a0000000000000000000000000000000000000000000000000000000008152600401611ce590613650565b60405180910390fd5b505b505050505050565b60606000600167ffffffffffffffff811115611d1757611d16612217565b5b604051908082528060200260200182016040528015611d455781602001602082028036833780820191505090505b5090508281600081518110611d5d57611d5c612c0b565b5b60200260200101818152505080915050919050565b611d918473ffffffffffffffffffffffffffffffffffffffff16611f4a565b15611f42578373ffffffffffffffffffffffffffffffffffffffff1663f23a6e6187878686866040518663ffffffff1660e01b8152600401611dd7959493929190613670565b6020604051808303816000875af1925050508015611e1357506040513d601f19601f82011682018060405250810190611e10919061345a565b60015b611eb957611e1f613494565b806308c379a01415611e7c5750611e346134b6565b80611e3f5750611e7e565b806040517f08c379a0000000000000000000000000000000000000000000000000000000008152600401611e7391906121f0565b60405180910390fd5b505b6040517f08c379a0000000000000000000000000000000000000000000000000000000008152600401611eb0906135be565b60405180910390fd5b63f23a6e6160e01b7bffffffffffffffffffffffffffffffffffffffffffffffffffffffff1916817bffffffffffffffffffffffffffffffffffffffffffffffffffffffff191614611f40576040517f08c379a0000000000000000000000000000000000000000000000000000000008152600401611f3790613650565b60405180910390fd5b505b505050505050565b600080823b905060008111915050919050565b6000604051905090565b600080fd5b600080fd5b600073ffffffffffffffffffffffffffffffffffffffff82169050919050565b6000611f9c82611f71565b9050919050565b611fac81611f91565b8114611fb757600080fd5b50565b600081359050611fc981611fa3565b92915050565b6000819050919050565b611fe281611fcf565b8114611fed57600080fd5b50565b600081359050611fff81611fd9565b92915050565b6000806040838503121561201c5761201b611f67565b5b600061202a85828601611fba565b925050602061203b85828601611ff0565b9150509250929050565b61204e81611fcf565b82525050565b60006020820190506120696000830184612045565b92915050565b60007fffffffff0000000000000000000000000000000000000000000000000000000082169050919050565b6120a48161206f565b81146120af57600080fd5b50565b6000813590506120c18161209b565b92915050565b6000602082840312156120dd576120dc611f67565b5b60006120eb848285016120b2565b91505092915050565b60008115159050919050565b612109816120f4565b82525050565b60006020820190506121246000830184612100565b92915050565b6000602082840312156121405761213f611f67565b5b600061214e84828501611ff0565b91505092915050565b600081519050919050565b600082825260208201905092915050565b60005b83811015612191578082015181840152602081019050612176565b838111156121a0576000848401525b50505050565b6000601f19601f8301169050919050565b60006121c282612157565b6121cc8185612162565b93506121dc818560208601612173565b6121e5816121a6565b840191505092915050565b6000602082019050818103600083015261220a81846121b7565b905092915050565b600080fd5b7f4e487b7100000000000000000000000000000000000000000000000000000000600052604160045260246000fd5b61224f826121a6565b810181811067ffffffffffffffff8211171561226e5761226d612217565b5b80604052505050565b6000612281611f5d565b905061228d8282612246565b919050565b600067ffffffffffffffff8211156122ad576122ac612217565b5b602082029050602081019050919050565b600080fd5b60006122d66122d184612292565b612277565b905080838252602082019050602084028301858111156122f9576122f86122be565b5b835b81811015612322578061230e8882611ff0565b8452602084019350506020810190506122fb565b5050509392505050565b600082601f83011261234157612340612212565b5b81356123518482602086016122c3565b91505092915050565b600080fd5b600067ffffffffffffffff82111561237a57612379612217565b5b612383826121a6565b9050602081019050919050565b82818337600083830152505050565b60006123b26123ad8461235f565b612277565b9050828152602081018484840111156123ce576123cd61235a565b5b6123d9848285612390565b509392505050565b600082601f8301126123f6576123f5612212565b5b813561240684826020860161239f565b91505092915050565b600080600080600060a0868803121561242b5761242a611f67565b5b600061243988828901611fba565b955050602061244a88828901611fba565b945050604086013567ffffffffffffffff81111561246b5761246a611f6c565b5b6124778882890161232c565b935050606086013567ffffffffffffffff81111561249857612497611f6c565b5b6124a48882890161232c565b925050608086013567ffffffffffffffff8111156124c5576124c4611f6c565b5b6124d1888289016123e1565b9150509295509295909350565b600067ffffffffffffffff8211156124f9576124f8612217565b5b602082029050602081019050919050565b600061251d612518846124de565b612277565b905080838252602082019050602084028301858111156125405761253f6122be565b5b835b8181101561256957806125558882611fba565b845260208401935050602081019050612542565b5050509392505050565b600082601f83011261258857612587612212565b5b813561259884826020860161250a565b91505092915050565b600080604083850312156125b8576125b7611f67565b5b600083013567ffffffffffffffff8111156125d6576125d5611f6c565b5b6125e285828601612573565b925050602083013567ffffffffffffffff81111561260357612602611f6c565b5b61260f8582860161232c565b9150509250929050565b600081519050919050565b600082825260208201905092915050565b6000819050602082019050919050565b61264e81611fcf565b82525050565b60006126608383612645565b60208301905092915050565b6000602082019050919050565b600061268482612619565b61268e8185612624565b935061269983612635565b8060005b838110156126ca5781516126b18882612654565b97506126bc8361266c565b92505060018101905061269d565b5085935050505092915050565b600060208201905081810360008301526126f18184612679565b905092915050565b60008060006060848603121561271257612711611f67565b5b600061272086828701611fba565b935050602084013567ffffffffffffffff81111561274157612740611f6c565b5b61274d8682870161232c565b925050604084013567ffffffffffffffff81111561276e5761276d611f6c565b5b61277a8682870161232c565b9150509250925092565b6000806000806080858703121561279e5761279d611f67565b5b60006127ac87828801611fba565b94505060206127bd87828801611ff0565b93505060406127ce87828801611ff0565b925050606085013567ffffffffffffffff8111156127ef576127ee611f6c565b5b6127fb878288016123e1565b91505092959194509250565b61281081611f91565b82525050565b600060208201905061282b6000830184612807565b92915050565b61283a816120f4565b811461284557600080fd5b50565b60008135905061285781612831565b92915050565b6000806040838503121561287457612873611f67565b5b600061288285828601611fba565b925050602061289385828601612848565b9150509250929050565b6000602082840312156128b3576128b2611f67565b5b60006128c184828501611fba565b91505092915050565b600080604083850312156128e1576128e0611f67565b5b60006128ef85828601611fba565b925050602061290085828601611fba565b9150509250929050565b600080600080600060a0868803121561292657612925611f67565b5b600061293488828901611fba565b955050602061294588828901611fba565b945050604061295688828901611ff0565b935050606061296788828901611ff0565b925050608086013567ffffffffffffffff81111561298857612987611f6c565b5b612994888289016123e1565b9150509295509295909350565b6000806000606084860312156129ba576129b9611f67565b5b60006129c886828701611fba565b93505060206129d986828701611ff0565b92505060406129ea86828701611ff0565b9150509250925092565b7f455243313135353a2062616c616e636520717565727920666f7220746865207a60008201527f65726f2061646472657373000000000000000000000000000000000000000000602082015250565b6000612a50602b83612162565b9150612a5b826129f4565b604082019050919050565b60006020820190508181036000830152612a7f81612a43565b9050919050565b7f4e487b7100000000000000000000000000000000000000000000000000000000600052602260045260246000fd5b60006002820490506001821680612acd57607f821691505b60208210811415612ae157612ae0612a86565b5b50919050565b7f455243313135353a207472616e736665722063616c6c6572206973206e6f742060008201527f6f776e6572206e6f7220617070726f7665640000000000000000000000000000602082015250565b6000612b43603283612162565b9150612b4e82612ae7565b604082019050919050565b60006020820190508181036000830152612b7281612b36565b9050919050565b7f455243313135353a206163636f756e747320616e6420696473206c656e67746860008201527f206d69736d617463680000000000000000000000000000000000000000000000602082015250565b6000612bd5602983612162565b9150612be082612b79565b604082019050919050565b60006020820190508181036000830152612c0481612bc8565b9050919050565b7f4e487b7100000000000000000000000000000000000000000000000000000000600052603260045260246000fd5b7f4e487b7100000000000000000000000000000000000000000000000000000000600052601160045260246000fd5b6000612c7482611fcf565b91507fffffffffffffffffffffffffffffffffffffffffffffffffffffffffffffffff821415612ca757612ca6612c3a565b5b600182019050919050565b7f455243313135353a2063616c6c6572206973206e6f74206f776e6572206e6f7260008201527f20617070726f7665640000000000000000000000000000000000000000000000602082015250565b6000612d0e602983612162565b9150612d1982612cb2565b604082019050919050565b60006020820190508181036000830152612d3d81612d01565b9050919050565b7f4f776e61626c653a2063616c6c6572206973206e6f7420746865206f776e6572600082015250565b6000612d7a602083612162565b9150612d8582612d44565b602082019050919050565b60006020820190508181036000830152612da981612d6d565b9050919050565b7f4f6e6c7920746865206d61726b6574706c6163652063616e2063616c6c20746860008201527f69732066756e6374696f6e000000000000000000000000000000000000000000602082015250565b6000612e0c602b83612162565b9150612e1782612db0565b604082019050919050565b60006020820190508181036000830152612e3b81612dff565b9050919050565b7f455243313135353a2073657474696e6720617070726f76616c2073746174757360008201527f20666f722073656c660000000000000000000000000000000000000000000000602082015250565b6000612e9e602983612162565b9150612ea982612e42565b604082019050919050565b60006020820190508181036000830152612ecd81612e91565b9050919050565b7f4f776e61626c653a206e6577206f776e657220697320746865207a65726f206160008201527f6464726573730000000000000000000000000000000000000000000000000000602082015250565b6000612f30602683612162565b9150612f3b82612ed4565b604082019050919050565b60006020820190508181036000830152612f5f81612f23565b9050919050565b7f455243313135353a2069647320616e6420616d6f756e7473206c656e6774682060008201527f6d69736d61746368000000000000000000000000000000000000000000000000602082015250565b6000612fc2602883612162565b9150612fcd82612f66565b604082019050919050565b60006020820190508181036000830152612ff181612fb5565b9050919050565b7f455243313135353a207472616e7366657220746f20746865207a65726f20616460008201527f6472657373000000000000000000000000000000000000000000000000000000602082015250565b6000613054602583612162565b915061305f82612ff8565b604082019050919050565b6000602082019050818103600083015261308381613047565b9050919050565b7f455243313135353a20696e73756666696369656e742062616c616e636520666f60008201527f72207472616e7366657200000000000000000000000000000000000000000000602082015250565b60006130e6602a83612162565b91506130f18261308a565b604082019050919050565b60006020820190508181036000830152613115816130d9565b9050919050565b600061312782611fcf565b915061313283611fcf565b9250827fffffffffffffffffffffffffffffffffffffffffffffffffffffffffffffffff0382111561316757613166612c3a565b5b828201905092915050565b6000604082019050818103600083015261318c8185612679565b905081810360208301526131a08184612679565b90509392505050565b7f455243313135353a206275726e2066726f6d20746865207a65726f206164647260008201527f6573730000000000000000000000000000000000000000000000000000000000602082015250565b6000613205602383612162565b9150613210826131a9565b604082019050919050565b60006020820190508181036000830152613234816131f8565b9050919050565b7f455243313135353a206275726e20616d6f756e7420657863656564732062616c60008201527f616e636500000000000000000000000000000000000000000000000000000000602082015250565b6000613297602483612162565b91506132a28261323b565b604082019050919050565b600060208201905081810360008301526132c68161328a565b9050919050565b7f455243313135353a206d696e7420746f20746865207a65726f2061646472657360008201527f7300000000000000000000000000000000000000000000000000000000000000602082015250565b6000613329602183612162565b9150613334826132cd565b604082019050919050565b600060208201905081810360008301526133588161331c565b9050919050565b60006040820190506133746000830185612045565b6133816020830184612045565b9392505050565b600081519050919050565b600082825260208201905092915050565b60006133af82613388565b6133b98185613393565b93506133c9818560208601612173565b6133d2816121a6565b840191505092915050565b600060a0820190506133f26000830188612807565b6133ff6020830187612807565b81810360408301526134118186612679565b905081810360608301526134258185612679565b9050818103608083015261343981846133a4565b90509695505050505050565b6000815190506134548161209b565b92915050565b6000602082840312156134705761346f611f67565b5b600061347e84828501613445565b91505092915050565b60008160e01c9050919050565b600060033d11156134b35760046000803e6134b0600051613487565b90505b90565b600060443d10156134c657613549565b6134ce611f5d565b60043d036004823e80513d602482011167ffffffffffffffff821117156134f6575050613549565b808201805167ffffffffffffffff8111156135145750505050613549565b80602083010160043d038501811115613531575050505050613549565b61354082602001850186612246565b82955050505050505b90565b7f455243313135353a207472616e7366657220746f206e6f6e204552433131353560008201527f526563656976657220696d706c656d656e746572000000000000000000000000602082015250565b60006135a8603483612162565b91506135b38261354c565b604082019050919050565b600060208201905081810360008301526135d78161359b565b9050919050565b7f455243313135353a204552433131353552656365697665722072656a6563746560008201527f6420746f6b656e73000000000000000000000000000000000000000000000000602082015250565b600061363a602883612162565b9150613645826135de565b604082019050919050565b600060208201905081810360008301526136698161362d565b9050919050565b600060a0820190506136856000830188612807565b6136926020830187612807565b61369f6040830186612045565b6136ac6060830185612045565b81810360808301526136be81846133a4565b9050969550505050505056fea26469706673582212201b8c346e99acaeb7932f65368dfb8b06a7b75491b587070af7b86e6569dc36e264736f6c634300080a0033",
  "linkReferences": {},
  "deployedLinkReferences": {}
}